:020000040800F2
:10000000000700204D020008D51A00084F1900080B
:10001000D11A0008A5050008031D00080000000013
:10002000000000000000000000000000DB1A0008D3
:10003000A905000800000000D91A0008DD1A000810
:1000400067020008670200086702000867020008EC
:1000500067020008670200086702000867020008DC
:1000600067020008670200086702000867020008CC
:1000700067020008670200086702000867020008BC
:1000800067020008670200086702000867020008AC
:10009000670200086702000867020008670200089C
:1000A000670200086702000867020008670200088C
:1000B000951B000867020008670200086702000835
:1000C000670200086702000867020008670200086C
:1000D000670200086702000867020008670200085C
:1000E000670200086702000867020008670200084C
:1000F000670200086702000867020008670200083C
:10010000670200086702000867020008670200082B
:10011000670200086702000867020008670200081B
:10012000670200086702000867020008670200080B
:1001300067020008670200086702000867020008FB
:1001400067020008670200086702000867020008EB
:1001500067020008670200086702000867020008DB
:1001600067020008670200086702000867020008CB
:10017000670200086702000867020008000000002C
:1001800067020008670200086702000867020008AB
:10019000670200086702000867020008670200089B
:1001A00067020008670200086702000800F002F812
:1001B00000F03CF80AA090E8000C82448344AAF1C5
:1001C0000107DA4501D100F031F8AFF2090EBAE8C3
:1001D0000F0013F0010F18BFFB1A43F0010318477B
:1001E0009C240000BC240000103A24BF78C878C1C9
:1001F000FAD8520724BF30C830C144BF04680C602D
:10020000704700000023002400250026103A28BF74
:1002100078C1FBD8520728BF30C148BF0B60704778
:100220001FB502F019FA1FBD10B510BD00F0CFF8D0
:100230001146FFF7F5FF01F083FD00F0EDF803B480
:10024000FFF7F2FF03BC00F0F5F800000948804713
:1002500009480047FEE7FEE7FEE7FEE7FEE7FEE7A8
:10026000FEE7FEE7FEE7FEE704480549054A064BC0
:1002700070470000811B0008AD010008000100204C
:1002800000070020000300200003002053EA020CB6
:1002900000F069802DE9F04B4FF00006002B1FBFE6
:1002A000B3FA83F503FA05F424FA05F65E4012BFAB
:1002B0001643B2FA82F502FA05F4C5F120051EBF15
:1002C00022FA05FC44EA0C04203556EA044C4FEAB5
:1002D000144418BF641C4FF000084FF0000990420E
:1002E00071EB030C39D3002919BFB1FA81F701FA78
:1002F00007F6B0FA80F700FA07F6C7F120071EBF2D
:1003000020FA07FC46EA0C062037B6FBF4FCA7EB04
:100310000507103F07F01F0BCBF120060CFA0BFB73
:100320002CFA06F644BFB3460026202FA4BF5E4633
:100330004FF0000B5BEA060C08BF4FF0010B19EB06
:100340000B09ABFB027C48EB0608C01B06FB02CC8A
:100350000BFB03CC71EB0C01C1E70B460246414697
:100360004846BDE8F08B13B54FF000004FF0000198
:10037000AFF30080BDE81C4070474FF0000200B5AD
:10038000134694469646203922BFA0E80C50A0E8B8
:100390000C50B1F12001BFF4F7AF090728BFA0E866
:1003A0000C5048BF0CC05DF804EB890028BF40F832
:1003B000042B08BF704748BF20F8022B11F0804F74
:1003C00018BF00F8012B704770477047704775469B
:1003D00000F02CF8AE4605006946534620F00700B1
:1003E000854618B020B5FFF73FFFBDE820404FF02D
:1003F00000064FF000074FF000084FF0000B21F00F
:100400000701AC46ACE8C009ACE8C009ACE8C009DB
:10041000ACE8C0098D46704710B50446AFF30080C4
:100420002046BDE81040FFF70ABF000000487047B3
:10043000A000002001491820ABBEFEE72600020004
:100440007047000055494A6822F440324A604A68C1
:1004500043681A434A600268526822F48072036853
:100460005A6002685368026943EA022203685A60CC
:100470000268526822F0407203685A60026852684B
:1004800083681A4303685A600268926822F4006223
:1004900003689A6002689268C3681A4303689A60A6
:1004A0003F4B826A9A4218D00268926822F07062CA
:1004B00003689A6002689268836A1A4303689A60C4
:1004C0000268926822F0405203689A60026892685B
:1004D000C36A1A4303689A600BE00268926822F0CC
:1004E000706203689A600268926822F04052036862
:1004F0009A600268926822F0020203689A600268B9
:100500009368027E43EA420203689A602022125CEA
:10051000A2B10268526842F4006203685A6002683D
:10052000526822F4604203685A6002685368426A63
:10053000521E43EA423203685A6005E0026852687C
:1005400022F4006203685A600268D26A22F47002E0
:100550000368DA620268D36A828B521E43EA02524F
:100560000368DA620268926822F4007203689A6093
:100570000268936890F8302043EA422203689A6048
:100580000268926822F4806203689A600268936845
:10059000426943EA822203689A607047002301405F
:1005A0000100000F00BFFEE7704772B600BFFEE714
:1005B00038B502460020009000BF92F83C000128A8
:1005C00001D1022038BD012082F83C0000BF08683C
:1005D000092816D91068C0680C780A3C04EB440559
:1005E0000724AC40A0431468E0600C780A3C04EB9C
:1005F00044048868A0401468E46820431468E060FC
:1006000013E0106800690C7804EB44050724AC4043
:10061000A043146820610C7804EB44048868A0406F
:10062000146824692043146820614868072817D299
:100630001068406B0C79641E04EB84051F24AC40E9
:10064000A04314686063088880B20C79641E04EBD0
:100650008404A0401468646B20431468606331E034
:1006600048680D2817D21068006B0C79E41F04EB62
:1006700084051F24AC40A04314682063088880B21E
:100680000C79E41F04EB8404A0401468246B20431D
:100690001468206316E01068C06A0C790D3C04EB06
:1006A00084051F24AC40A0431468E062088880B22F
:1006B0000C790D3C04EB8404A0401468E46A2043E8
:1006C0001468E0621E4B1F4C1068A0420AD10868F3
:1006D000122807D1586820F400005860586840F488
:1006E00080005860174C1068A04222D1164C086850
:1006F000A04202D0086811281BD1586820F480005D
:100700005860586840F4000058600F4C0868A042D8
:100710000FD10E4800680E4CB0FBF4F000EB8000E7
:100720004000009002E00098401E009000980028D1
:10073000F9D100BF002082F83C0000BF00BF41E7B4
:100740000023014000200140120000100C00002096
:1007500040420F0001460868C06C704770B50446FF
:1007600000250CB9012070BD1549A06A884200D04F
:1007700000BF206C30B9204600F024F800206064EF
:1007800084F83C00206C00F0100088B9206C20F444
:10079000885040F0020020642046FFF753FE0020FE
:1007A0006064206C20F0020040F00100206400E052
:1007B000012500BF002084F83C0000BF2846D2E796
:1007C0000100000F10B586B00446142101A8FFF700
:1007D000D4FD1949206888422BD100BF0020009029
:1007E0001648006840F480701449086008460068A4
:1007F00000F48070009000BF00BF00BF0020009098
:100800000E481438006840F001000C4914390860A3
:100810000846006800F00100009000BF00BF2020E3
:100820000190032002900020039001A9044800F0E9
:100830002BF906B010BD00000020014044380240F2
:100840000000024070B504460D460026206880680E
:1008500000F48060B0F5806F11D12068806800F4EA
:100860008070B0F5807F0AD1206C40F020002064B9
:1008700000BF002084F83C0000BF012070BD00F0E4
:1008800011FA064618E0681CB0B125B100F00AFA6A
:10089000801BA84210D92068006800F002000228DE
:1008A0000AD0206C40F00400206400BF002084F8CF
:1008B0003C0000BF0320E1E72068006800F0020070
:1008C0000228E0D16FF0120021680860206C40F42B
:1008D000007020642068806800F04050B8B9207E25
:1008E000A8B92068C06A00F4700020B12068806850
:1008F00000F4806058B9206C20F480702064206C73
:1009000000F4805018B9206C40F0010020640020F1
:10091000B4E7000008B501460020009000BF91F840
:100920003C00012801D1022008BD012081F83C00D3
:1009300000BF0868806800F00100A0B908688068FE
:1009400040F001000B6898603F4800683F4BB0FBE7
:10095000F3F000EB4000009002E00098401E009091
:1009600000980028F9D10868806800F0010000288C
:1009700060D0086C40F20163984340F480700864D2
:100980000868406800F4806028B1086C20F40050CA
:1009900040F480500864086C00F48050B0F5805F2B
:1009A00004D1486C20F00600486401E0002048644F
:1009B00000BF002081F83C0000BF254A6FF02200F4
:1009C0000B681860506800F01F0018BB214B0868C6
:1009D000984213D0204B0868984204D1101D00683B
:1009E00000F01F0050B11D4B086898422AD11848EA
:1009F000001D006800F01F00102823D208688068DE
:100A000000F04050F0B90868806840F080400B6802
:100A1000986017E00F4B0868984213D10868806807
:100A200000F0405070B90868806840F080400B6862
:100A3000986007E0086C40F010000864486C40F0D3
:100A40000100486400206FE70C00002040420F00C6
:100A5000002301400020014000210140002201400C
:100A600070B5044600F01EF906462546681C10B114
:100A700004480078054400BF00F014F9801BA84228
:100A8000FAD370BD08000020F8B502460B460025D9
:100A9000002400200021E0E0012606FA01F51E688E
:100AA00006EA0504AC4274D11E7906F00306012E55
:100AB00004D01E7906F00306022E13D190684F0071
:100AC0000326BE40B0434F00DE68BE403043906016
:100AD000506801268E40B0431E79C6F300168E4042
:100AE000304350601E7906F00306032E09D0D0680B
:100AF0004F000326BE40B0434F009E68BE403043C7
:100B0000D0601E7906F00306022E13D1CF0802F141
:100B1000200656F827004E07F70E0F26BE40B043BA
:100B20004F07FF0E1E69BE403043CF0802F120067A
:100B300046F8270010684F000326BE40B0431E79D8
:100B400006F003064F00BE40304310605E6806F4B6
:100B50004036002E1DD000BF00260096414E36685C
:100B600046F480463F4F3E603E46366806F4804677
:100B7000009600BF00BF3C4E8F0856F827008E0736
:100B8000370F0F26BE40B043384EB24202D1002686
:100B90002EE061E0364EB24201D1012628E0354E0A
:100BA000B24201D1022623E0334EB24201D10326E4
:100BB0001EE0324EB24201D1042619E0304EB2425C
:100BC00001D1052614E02F4EB24201D106260FE0D6
:100BD0002D4EB24201D107260AE02C4EB24201D17D
:100BE000082605E02A4EB24201D1092600E00A2675
:100BF0008F073F0FBE4030431B4E8F0846F827003B
:100C0000244E3068A0435E6806F4801606B1204387
:100C1000204E3060361D3068A0435E6806F4001632
:100C200006B120431B4E361D30601A4E361F306809
:100C3000A0435E6806F4003606B12043154E361F09
:100C40003060361F3068A0435E6806F4803606B117
:100C50002043104E083E3060491C1029FFF41CAFA1
:100C6000F8BD00004438024008380140000002404E
:100C70000004024000080240000C02400010024044
:100C80000014024000180240001C024000200240F4
:100C900000240240083C01400AB1816101E00B04DC
:100CA0008361704701480068704700000000002021
:100CB00003480068034909780844014908607047FF
:100CC000000000200800002010B50D48006840F426
:100CD00000700B4908600846006840F480600860B6
:100CE0000846006840F480700860032000F0A6F811
:100CF0000F2000F007F800F02BF8002010BD0000D6
:100D0000003C024070B504460E4800784FF47A71FA
:100D1000B1FBF0F00C490968B1FBF0F5284600F092
:100D200009FC08B1012070BD102C07D20022214619
:100D3000501E00F045F80548046001E00120F2E78C
:100D40000020F0E7080000200C0000200400002034
:100D500008B500BF002000900E48006840F48040B5
:100D60000C4908600846006800F48040009000BF0D
:100D700000BF00BF00200090081F006840F08050B6
:100D8000091F08600846006800F08050009000BF0E
:100D900000BF08BD443802400146084600280DDB6C
:100DA00000BF00BF00F01F0301229A4043099B00CF
:100DB00003F1E023C3F8002100BF00BF00BF70476C
:100DC0002DE9F05F80460D461646002700F09CFF97
:100DD000074639462A46334601F00700C0F1070AA4
:100DE000BAF1040F02D94FF0040A01E0C0F1070A7A
:100DF000D14600F1040ABAF1070F02D24FF0000AFF
:100E000001E0A0F1030AD4464FF0010A0AFA09FAF8
:100E1000AAF1010A0AEA020A0AFA0CFA4FF0010BD7
:100E20000BFA0CFBABF1010B0BEA030B4AEA0B04C8
:100E30002146404600F070FFBDE8F09F00BF00F083
:100E40000702064B19684FF6FF031940044B0B438A
:100E500043EA0221014B196000BF70470CED00E02E
:100E60000000FA0570B504460D460CB9012070BDAE
:100E70005848006800F00F00A84209D255490D708B
:100E80000846006800F00F00A84201D00120EEE7FC
:100E9000207800F0020002281DD1207800F0040024
:100EA000042805D14C48006840F4E0504A490860E5
:100EB000207800F00800082805D14748006840F471
:100EC0006040454908604448006820F0F000A1688F
:100ED000084341490860207800F00100A8B3606829
:100EE000012807D13C4808380068C0F34040B8B931
:100EF0000120BCE76068022802D06068032807D19F
:100F0000354808380068C0F3406048B90120AEE7B2
:100F1000314808380068C0F3400008B90120A6E74E
:100F20002D48006820F00300616808432A490860E2
:100F3000FFF7B8FE064609E0FFF7B4FE801B41F25A
:100F40008831884202D9032091E707E022480068EF
:100F500000F00C006168B0EB810FEDD11D48006816
:100F600000F00F00A84209D91A490D700846006820
:100F700000F00F00A84201D0012078E7207800F0AF
:100F80000400042807D11448006820F4E050E16808
:100F9000084311490860207800F00800082808D1AB
:100FA0000D48006820F46040216940EAC1000A4908
:100FB000086000F019F808490968C1F30311074AED
:100FC000515CC8400649086006480068FFF79AFE71
:100FD00000204CE7003C024008380240622600082E
:100FE0000C000020040000202DE9F047002400251B
:100FF0000026A1462548006800F00C0020B1042816
:1010000005D008283AD105E0DFF8849039E0DFF810
:10101000849036E01D48001F006800F03F041B4824
:10102000001F006800F4800078B11A481749091FB2
:101030000968C1F38811A0FB017001462246002314
:101040003846FFF723F905460EE011480F49091FFE
:101050000968C1F38811A0FB0170014622460023F4
:101060003846FFF713F905460848001F0068C0F32B
:101070000140401C4600B5FBF6F902E0DFF8109095
:1010800000BF00BF4846BDE8F087000008380240B6
:101090000024F40040787D01F8B504460CB9012025
:1010A000F8BD207800F00100002874D0F9480068ED
:1010B00000F00C0004280DD0F648006800F00C0089
:1010C000082813D1F348001F006800F48000B0F531
:1010D000800F0BD1EF4808380068C0F3404000286B
:1010E00059D06068002856D10120D9E700BF606858
:1010F000B0F5803F08D1E7480838006840F48030F8
:10110000E449083908601EE06068B0F5A02F0DD1F1
:10111000E0480838006840F48020DE49083908605B
:101120000846006840F4803008600CE0D948083870
:10113000006820F48030D749083908600846006804
:1011400020F48020086000BF606890B1FFF7AAFD1E
:10115000054606E0FFF7A6FD401B642801D90320E1
:101160009EE7CC4808380068C0F340400028F1D022
:1011700011E0FFF797FD054606E0FFF793FD401BE2
:10118000642801D903208BE7C24808380068C0F3FF
:1011900040400028F1D1207800F0020002285FD101
:1011A000BC48006800F00C0058B1BA48006800F074
:1011B0000C0008281CD1B748001F006800F480000C
:1011C000B0B9B44808380068C0F3400020B1E06806
:1011D000012801D0012063E7AE480838006820F0FC
:1011E000F800216940EAC100AA490839086037E0DF
:1011F000E06800B30120A8490860FFF753FD0546E9
:1012000006E0FFF74FFD401B022801D9032047E706
:10121000A04808380068C0F340000028F1D09D487D
:101220000838006820F0F800216940EAC1009949B7
:101230000839086014E0002097490860FFF732FD84
:10124000054606E0FFF72EFD401B022801D90320CA
:1012500026E7904808380068C0F340000028F1D124
:10126000207800F0080008282CD16069A8B101207E
:101270008A490860FFF716FD054606E0FFF712FDF4
:10128000401B022801D903200AE782486C3000681D
:10129000C0F340000028F1D014E000207F4908602E
:1012A000FFF700FD054606E0FFF7FCFC401B0228A7
:1012B00001D90320F4E677486C300068C0F34000A1
:1012C0000028F1D1207800F00400042870D1002714
:1012D00070483830006800F0805090B900BF00209E
:1012E00000906C483830006840F0805069493831CF
:1012F00008600846006800F08050009000BF00BF02
:1013000001276748006800F48070B0B9644800683D
:1013100040F4807062490860FFF7C4FC054606E0AF
:10132000FFF7C0FC401B022801D90320B8E65C4847
:10133000006800F480700028F2D000BFA068012887
:1013400008D154486830006840F0010051496831C4
:1013500008601DE0A06805280DD14E48683000687F
:1013600040F004004B49683108600846006840F0CE
:10137000010008600CE047486830006820F0010078
:101380004449683108600846006820F0040008609D
:1013900000BFA068A8B1FFF785FC054609E0FFF78C
:1013A00081FC401B41F28831884202D9032077E654
:1013B00026E0384868300068C0F340000028EED0CE
:1013C00013E0FFF76FFC054608E0FFF76BFC401BDE
:1013D00041F28831884201D9032061E62D48683006
:1013E0000068C0F340000028EFD1012F07D1294841
:1013F0003830006820F0805026493831086000BF3E
:10140000A069002845D02348006800F00C00082897
:101410005DD0A069022845D100201F490866FFF76A
:1014200041FC054606E0FFF73DFC401B022801D9C0
:10143000032035E6174808380068C0F340600028EC
:10144000F1D1D4E907010843616A40EA8111012220
:10145000A06AC2EB500041EA00412C20005D41EA45
:1014600000600C49091F086001200B490866FFF75E
:1014700019FC054606E0FFF715FC401B022801D9C0
:1014800003200DE6034808380068C0F340600028D8
:10149000F1D049E00838024000004742800E474240
:1014A00000700040002021490866FFF7FBFB05465D
:1014B00006E0FFF7F7FB401B022801D90320EFE508
:1014C0001B480068C0F340600028F2D12CE0A069FE
:1014D000012800D1E4E51648001D0668A06901282E
:1014E00020D006F48001E06981421BD106F03F0163
:1014F000206A814216D147F6C0703040616AB0EB75
:10150000811F0FD106F440310122A06AC2EB5000C6
:10151000B1EB004F06D106F070612C20005DB1EBFD
:10152000006F01D00120BBE50020B9E50000474273
:101530000038024070B504462546681EB0F1807F31
:1015400001D301200FE0681E4FF0E02148610F2118
:101550004FF0FF3000F0E0FB00204FF0E021886109
:1015600007200861002070BD7047704730B5024603
:101570000B4600BF92F83C00012801D1022030BD8B
:10158000012082F83C0000BF022082F83D00106874
:1015900044681068816824F0700418680443106877
:1015A0004460184D1068A8421BD01068B0F1804FFD
:1015B00017D0154D1068A84213D0144D1068A842DA
:1015C0000FD0134D1068A8420BD0124D1068A842DE
:1015D00007D0114D1068A84203D0104D1068A842E2
:1015E00005D121F080015868014310688160012015
:1015F00082F83D0000BF002082F83C0000BF00BF21
:10160000BDE7000000000140000400400008004069
:10161000000C004000040140004001400018004060
:1016200010B504460CB9012010BD94F83D0028B94E
:10163000002084F83C00204600F026F8022084F8C0
:101640003D00211D206800F0ADFA012084F846001D
:1016500000BF84F83E0001213F2001554020015584
:101660004120015500BF00BF012084F84200432003
:101670000155442001554520015500BF012084F843
:101680003D000020D0E7000038B504462068B0F1E6
:10169000804F17D100BF002000900B48006840F039
:1016A0000100094908600846006800F00100009048
:1016B00000BF00BF002211461C20FFF781FB1C2049
:1016C000FFF76AFB38BD0000403802402DE9F041C9
:1016D00004460D46002700BF94F83C00012802D1C3
:1016E0000220BDE8F081012084F83C0000BF022008
:1016F00084F83D002068866826F0770626F47F4649
:10170000206886602868502833D00CDC202850D010
:1017100004DC00284BD0102851D149E0302849D0B2
:1017200040284CD139E060282DD0702807D0B0F582
:10173000805F03D0B0F5005F41D10DE041E0D5E915
:1017400002136A68206800F0A1FA2068866846F0F3
:1017500077062068866034E0D5E902136A6820685D
:1017600000F094FA2068806840F480402168886026
:1017700027E0EA686968206800F09CFA5021206838
:1017800000F08FFA1DE0EA686968206800F0A5FAA9
:101790006021206800F085FA13E0EA686968206833
:1017A00000F088FA4021206800F07BFA09E000BFD1
:1017B00000BF00BF2968206800F073FA01E001272C
:1017C00000BF00BF012084F83D0000BF002084F866
:1017D0003C0000BF384684E7704770B50446206877
:1017E000C5682068066906F00200022819D105F0D4
:1017F0000200022815D1401F2168086101202077CE
:101800002068806900F0030018B12046FFF7E4FF6C
:1018100005E0204600F097F8204600F095F80020FB
:10182000207706F00400042819D105F004000428EC
:1018300015D1C043216808610220207720688069A3
:1018400000F4407018B12046FFF7C6FF05E02046BF
:1018500000F079F8204600F077F80020207706F0B5
:101860000800082819D105F00800082815D1C04340
:1018700021680861042020772068C06900F0030017
:1018800018B12046FFF7A8FF05E0204600F05BF8FE
:10189000204600F059F80020207706F010001028AC
:1018A00019D105F01000102815D1C0432168086136
:1018B000082020772068C06900F4407018B12046E5
:1018C000FFF78AFF05E0204600F03DF8204600F0D3
:1018D0003BF80020207706F0010048B105F0010038
:1018E00030B16FF0010021680861204600F02DF84A
:1018F00006F08000802809D105F08000802805D1FD
:10190000C043216808612046FFF72EFE06F0400024
:10191000402809D105F04000402805D1C043216886
:101920000861204600F012F806F02000202809D1B6
:1019300005F02000202805D1C04321680861204619
:10194000FFF713FE70BD704770477047704700BFC8
:10195000FEE700001FB50020009001900290039068
:10196000164817490860002048604FF080711448FD
:10197000816000210161017680F82010C162114967
:1019800081620021C1600121C161002180F8301015
:1019900001214161FEF7E2FE08B1FEF706FE0520D7
:1019A0000090012001900020029069460448FEF753
:1019B000FFFD08B1FEF7F9FD1FBD0000002001404A
:1019C000100000200100000F00B587B0142102A80C
:1019D000FEF7D3FC00BF002001901F48006840F0D4
:1019E00001001D4908600846006800F001000190F0
:1019F00000BF00BF00BF002001900846006840F013
:101A0000020008600846006800F00200019000BF74
:101A100000BF002201211148FFF73EF900224FF4D8
:101A200080610F48FFF738F90120029003900020F1
:101A30000490059002A90948FFF726F84FF480604A
:101A400002900120039000200490059002A9044810
:101A5000FFF71AF807B000BD30380240000402401A
:101A60000000024000B587B000200390049005906C
:101A70000690019002904FF080401449086040F2B7
:101A8000E730486000211148816045F20821C160BB
:101A9000002101618161FFF7C3FD08B1FEF785FDFB
:101AA0004FF48050039003A90848FFF70FFE08B1D8
:101AB000FEF77BFD00200190029001A90348FFF78B
:101AC00055FD08B1FEF771FD07B000BD58000020BC
:101AD00000BFFEE700BFFEE77047704710B5FFF795
:101AE000E7F810BD00B593B0302107A8FEF745FC1C
:101AF000142102A8FEF741FC00BF002001901E48FF
:101B0000006840F080501C4908600846006800F0FA
:101B10008050019000BF00BF00BF00200190174817
:101B2000006820F4404040F48040144908600846B2
:101B3000006800F44040019000BF00BF0220079001
:101B400001200A9010200B9000200D9007A8FFF7AD
:101B5000A3FA08B1FEF729FD0F20029000200390A0
:101B6000049005900690002102A8FFF77BF908B1C8
:101B7000FEF71BFD13B000BD40380240007000406E
:101B80000348006840F47000014908607047000095
:101B900088ED00E010B50248FFF71FFE10BD000001
:101BA0005800002010B502682D4B98420ED0B0F1BD
:101BB000804F0BD02B4B984208D02B4B984205D02E
:101BC0002A4B984202D02A4B984203D122F070024D
:101BD0004B681A43224B984220D0B0F1804F1DD061
:101BE000204B98421AD0204B984217D01F4B984256
:101BF00014D01F4B984211D01E4B98420ED01E4B52
:101C000098420BD01D4B984208D01D4B984205D0EE
:101C10001C4B984202D01C4B984203D122F44072D4
:101C2000CB681A4322F080034C6943EA0402026045
:101C30008B68C3620B688362094B984202D00C4BDD
:101C4000984201D10B69036301234361036903F0E7
:101C500001031BB1036923F00103036110BD000000
:101C6000000001400004004000080040000C00405B
:101C70000004014000400140004401400048014090
:101C800000180040001C00400020004030B50C4609
:101C9000816821F47F4142EA03252543294381607D
:101CA00030BD0A46816821F0700142F007031943F4
:101CB0008160704730B50B461446026A056A25F00C
:101CC00001050562816921F0F00141EA041122F069
:101CD0000A021A438161026230BD30B50B461446D8
:101CE000026A056A25F010050562816921F47041D8
:101CF00041EA043122F0A00242EA03128161026249
:101D000030BD00BFFEE7000002480068C0F30220BB
:101D1000704700000CED00E010B5002804DB0A0756
:101D2000130E054A135406E00A07140E034A00F086
:101D30000F031B1FD45410BD00E400E018ED00E0B9
:101D40002DED0C8B82B0FEF7BFFFFFF7CBFEFFF748
:101D50003BFEFFF7FFFDFFF785FE3DE01F48FEF766
:101D6000D9FD4FF0FF311D48FEF76CFD1B48FEF713
:101D7000F1FC044600F075FA41EC1D0B9FED180BC9
:101D800053EC102B00F080FA41EC1C0B9FED160B6E
:101D900053EC102B00F076FB41EC1B0B9FED140B6A
:101DA00053EC102B00F0D8F841EC1A0B9FED120BFE
:101DB00053EC102B00F068FA41EC190B9FED100B5F
:101DC00053EC102B00F020F841EC180B00F01CFA3B
:101DD00001900120FEF744FEC0E700001000002043
:101DE00000000000007007400000000000407F403D
:101DF0000000000000002440CDCCCCCCCCCCFC3F7B
:101E0000000000000000404010B591EA030F48BFF9
:101E100083F0004300F13E83841A71EB030C05D27A
:101E2000121943EB0C03001B61EB0C01DFF824E1FA
:101E30004FEA1154A4EB135C1EEA430F18BF9EEA4D
:101E4000445F73D023EA0E03DCF1200E21EA045133
:101E500043F4801332D322FA0CFE10EB0E0023FA67
:101E60000CFE41EB0E01CCF1200E03FA0EFE10EB3E
:101E70000E0051F10001B1F5801FCCF1200E32D2DD
:101E800001EB045112FA0EF2BDE8104058BF704742
:101E9000401C38BF5FEA420218BF7047002814BFD9
:101EA00020F0010041F100014FEA410313F5001F4A
:101EB00038BF7047A1F1C04100F0DEBA012A43EB00
:101EC0000302ACF1200CDCF11F0E32BF4FF0000E0C
:101ED00023FA0CF310EB030041EB0451B4EB115F58
:101EE000D0D0A1EB045101F5801149085FEA300020
:101EF00001EB04510ED350F1000038BF12FA0EFE70
:101F000008D1BDE81040C9E7401C38BF5FEA420273
:101F1000CAD1C3E7BDE810404FEA410313F5001FE3
:101F200038BF7047A1F1C04100F0A6BA9EEA445FF5
:101F300008D011EA5E0FBDE8104004BF01F0004177
:101F400000207047BDE8104070B500F047FA00BFB0
:101F500064FBBE3E0000E0FF2DE9C04130B4DFF875
:101F6000A0C23CEA111418BF3CEA131400F0EC8044
:101F700081EA03051CEA111444EAD57418BF1CEA6F
:101F8000131500F0C780A4EB05044FF0004545EAA7
:101F9000C12145EAC32341EA505143EA525304F1B7
:101FA0007F74994204F500344FEAC0204FEAC22200
:101FB00008BF904200F09C804FEA13650FF2401674
:101FC000765D4FEA134506FB05F7C7F1807706FB00
:101FD00007F74FEAD737A7FB03687642C8F5803882
:101FE000A7FB06CE38BFA8F1010807FB08E64FF0B3
:101FF000000EA6FB028CE6FB03CEDCF1000CCEF15A
:10200000004E38BFAEF1010EA6FB0C584FF0000792
:102010004FF00005E6FB0E87A1FB08C6A0FB07CE2C
:1020200016EB0E0645F10005E1FB076515F1E04EE4
:102030007EBFA4F580345FEA46066D4116F1800745
:1020400045F100054FEA17274FEA066647EA05679C
:10205000A6F1DE46B6F1805F4FEA15251FD9384656
:1020600024F0010C05EBC471BCF1FE6F01EB0C1107
:1020700002D8F0BCBDE8008124425CBF01F5801E9F
:102080009EEAC47F02D4F0BCBDE80081244238D46B
:10209000F0BCA1F1C041BDE8004100F0EDB94FEA4C
:1020A000D22242EA43524FEAD323A7FB02864FEAE9
:1020B000D02040EA415007FB03661EEA0E0F4FEAAC
:1020C000D12105FB026658BFA6EB0056B6EB0056C1
:1020D0004FEA520E4EEAC37E18EB0E0E56EB530E2D
:1020E000BDD518EB02085E417F1C55F10005B6E72F
:1020F0004FF480154FF000074FF000064FF0000836
:10210000ADE7F0BC4FF0000001F1C04101F000412B
:10211000BDE8008111EA0C1F0CEA131500D00CE099
:1021200013EA0C1F00F025804FF00000F0BC81EA9C
:10213000030101F00041BDE80081F0BCBDE80041B1
:1021400081EA030100F098B9F0BCBDE8004170B528
:1021500000F044F9097EFC3E00F007B881EA030173
:102160004FF0000001F00041704781EA030100F0E8
:1021700083B9F0BCBDE800414FF000002149704731
:10218000FFFDFBF9F7F5F4F2F0EEEDEBE9E8E6E43C
:10219000E3E1E0DEDDDBDAD8D7D5D4D3D1D0CFCDC3
:1021A000CCCBCAC8C7C6C5C4C2C1C0BFBEBDBCBBFC
:1021B000BAB9B8B7B6B5B4B3B2B1B0AFAEADACABF7
:1021C000AAA9A8A8A7A6A5A4A3A3A2A1A09F9F9ED1
:1021D0009D9C9C9B9A999998979796959594939383
:1021E000929191908F8F8E8E8D8C8C8B8B8A89891A
:1021F000888887878685858484838382828181809D
:102200000000FF070000F87F4FEA1153A3F5806339
:10221000D3F11E03A8BFD3F1200C08DB4FF000421E
:1022200042EAC12252EA505232FA03F070470942A0
:102230000BD4102BC4BF0020704703F5787CBCF191
:10224000FF3F05D04FF0FF3070474FF00000704760
:1022500070B500F0C3F800BF499224800020704799
:10226000F0E7B0FA80F310FA03F10AD0C3F11D03CE
:1022700003F580634FEA41504FEA035202EBD1214C
:1022800070474FF000007047DFF848C170B51CEA96
:10229000111E1EBF1CEA13159EEA0C0F95EA0C0FC7
:1022A00000F06F8081EA030423EA4C134EEAD47EE7
:1022B00021EA4C1141F4801143F48013AE44A1FB98
:1022C000024CA0FB0365AEF17F7E361955EB0C0581
:1022D000A1FB034C4CF10003A0FB021C16EB0C0607
:1022E000654153F10003094218BF46F0010613F49B
:1022F000007F0BD14FEA03314FEA0530340341EA46
:10230000155140EA16506FF003020AE04FEAC3216C
:102310004FEAC520F40241EA555140EA56506FF0A9
:10232000020202EB2E4201EB025585EACE710AD081
:102330005FEA440C18BF24F0004450F1000041F162
:10234000000120EAD47040F2FE7C624500D270BDEC
:10235000A84214BF4FF080444FF04044002E08BF05
:102360000024BEF1806FA8BFA1F1C041BDE870405C
:1023700080F282804FF0000001F1C04101F0004185
:1023800070479EEA0C0F0CEA131518BF95EA0C0F64
:1023900006D04FF0000081EA030E0EF0004170BD40
:1023A00000F01CF88900013E00F007B800F009B801
:1023B0004FEA430C5FEA5C5C08D081EA030100F05D
:1023C0005BB84FEA410C5FEA5C5CF6D14FF000006D
:1023D000014970470000FF070000F87F0EF1020E70
:1023E0002EF0030E5EF8046B364205D4012A43EB4F
:1023F000030515F5001F12D8012841EB010C1CF54F
:10240000001F0CD80ED14FEAD17C15F5001F0CEB44
:102410004C0C0CF1020C08BF4CEBD37C04E04FF0E9
:10242000080C01E04FEAD37C0CEB4C0526FA05F6CC
:1024300006F00706B6F1040C06D20EEB860CBDE8DA
:1024400070404CF0010C6047DFE80CF0090B020211
:102450004FF000414FF00000A1F5002170BD19467A
:102460001046012851EB010418BFD4F5001484BFB5
:10247000002001F0004170BD0808A0F500114FEAEE
:102480003101704710B591EA030F48BF83F0004354
:102490003FF5C2AC841A71EB030C07D212198CF011
:1024A000004C43EB0C03001B61EB0C01DFF8A4E1D3
:1024B0004FEA1154A4EB135C1EEA430F18BF9EEAC7
:1024C000445F00F0B08023EA6E03524221EA0451D7
:1024D000C3EB6E0338BF5B1EDCF1200E25D322FA5E
:1024E0000CFE10EB0E0043FA0CFE41EB0E01CCF19A
:1024F000200E03FA0EFE10EB0E0051F10001CCF19C
:10250000200E29D412FA0EF201EB0451BDE810405E
:1025100058BF7047401C1CBFB2F1004F70470028E5
:102520000CBF491C20F00100704712EB020E43EB78
:10253000030218BF4FF0010E4EEA4202ACF1200C2C
:10254000DCF11E0E54D943FA0CFE10EB0E0051F1D3
:10255000FF31CCF11E0ED5D50EF1010E12FA0EFE92
:10256000404141EB010101EB445C5FEA5C5C10D946
:1025700010EBDE7001EB045138BFBEF1004FBDE837
:10258000104018BF704700280CBF491C20F0010004
:10259000704730D24FEAD42C11F5001124F40064B6
:1025A0001BD0B1FA81F20B3AA41AA41ED2F1200377
:1025B000914030FA03F31943904001EBCC71002CA9
:1025C00001EB0451BDE81040A8BF704701F1C041C4
:1025D0004FF0000001F000417047B0FA80F310FAAC
:1025E00003F100D110BDE41A173C4805C90AE4E71D
:1025F00001EB045110BD491001EB0451BDE810403E
:102600004FEA300002E04FF0000170474A0008BF77
:102610000042F8D0B2F5001F28BF704701F000411A
:102620004FF0000070479EEA445F07D011EA5E0F4A
:10263000BDE8104004BF002100207047BDE81040F5
:1026400070B5FFF7CBFE00BF40DFF63E83F00041E0
:10265000104670470000E0FF4FF04070E1EE100AB6
:10266000704700000000000000000102030406079C
:102670000809000000000102030400009C26000875
:102680000000002010000000E8010008AC2600084F
:1026900010000020F0060000040200080000000006
:0C26A00010000000010000000024F40005
:04000005080001AD41
:00000001FF
