:020000040800F2
:100000005807002079020008291C0008211C00085C
:10001000251C0008710400084D1F000800000000A6
:10002000000000000000000000000000311C00087B
:1000300075040008000000002D1C0008351C000895
:10004000930200089302000893020008930200083C
:10005000930200089302000893020008930200082C
:10006000930200089302000893020008930200081C
:10007000930200089302000893020008930200080C
:1000800093020008930200089302000893020008FC
:1000900093020008930200089302000893020008EC
:1000A00093020008930200089302000893020008DC
:1000B0004D1C0008930200089302000893020008F8
:1000C00093020008930200089302000893020008BC
:1000D0009302000893020008411F000893020008E1
:1000E000930200089302000893020008930200089C
:1000F000930200089302000893020008930200088C
:10010000930200089302000893020008930200087B
:10011000930200089302000893020008930200086B
:10012000930200089302000893020008930200085B
:10013000930200089302000893020008930200084B
:10014000930200089302000893020008930200083B
:10015000930200089302000893020008930200082B
:10016000930200089302000893020008930200081B
:1001700093020008930200089302000800000000A8
:1001800093020008930200089302000893020008FB
:1001900093020008930200089302000893020008EB
:1001A00093020008930200089302000800F002F88E
:1001B00000F052F814A696E8000CB244B344DA45B5
:1001C00001D100F049F8BAE80F000FA696E8300018
:1001D000A5EB040504EB0607AAEB0704A7F101074A
:1001E0004FEA15154FEA3414A4F10104AC4201D3CF
:1001F00000F032F813F0010F18BFFB1A43F00103AF
:1002000000F001F8DBE71847B8280000D828000004
:10021000103A24BF78C878C1FAD8520724BF30C832
:1002200030C144BF04680C60704700007047000094
:100230000023002400250026103A28BF78C1FBD8EF
:10024000520728BF30C148BF0B6070471FB502F08E
:100250001DFC1FBD10B510BD00F0D0F81146FFF712
:10026000F5FF01F075FE00F0EEF803B4FFF7F2FFC2
:1002700003BC00F0F5F80000094880470948004732
:10028000FEE7FEE7FEE7FEE7FEE7FEE7FEE7FEE746
:10029000FEE7FEE704480549054A064B70470000A3
:1002A000391C0008AD010008580100205807002043
:1002B000580300205803002053EA020C00F0698024
:1002C0002DE9F04B4FF00006002B1FBFB3FA83F56A
:1002D00003FA05F424FA05F65E4012BF1643B2FA9B
:1002E00082F502FA05F4C5F120051EBF22FA05FCCD
:1002F00044EA0C04203556EA044C4FEA144418BF73
:10030000641C4FF000084FF00009904271EB030CA1
:1003100039D3002919BFB1FA81F701FA07F6B0FA0B
:1003200080F700FA07F6C7F120071EBF20FA07FC86
:1003300046EA0C062037B6FBF4FCA7EB0507103F96
:1003400007F01F0BCBF120062CFA06F60CFA0BFB7C
:1003500044BFB3460026202FA4BF5E464FF0000BDB
:100360005BEA060C08BF4FF0010B19EB0B0948EBD9
:100370000608ABFB027C06FB02CC0BFB03CCC01BCC
:1003800071EB0C01C1E70B46024641464846BDE809
:10039000F08B13B5084318BF4FF0FF300146AFF3A1
:1003A0000080BDE81C4070474FF0000200B51346C6
:1003B00094469646203922BFA0E80C50A0E80C5085
:1003C000B1F12001BFF4F7AF090728BFA0E80C5036
:1003D00048BF0CC05DF804EB890028BF40F8042B2F
:1003E00008BF704748BF20F8022B11F0804F18BF9C
:1003F00000F8012B7047704770477047754600F052
:100400002BF8AE4605006946534620F007008546A6
:1004100018B020B5FFF73EFFBDE820404FF00006C2
:100420004FF000074FF000084FF0000BAC46ACE86F
:10043000C009ACE8C009ACE8C009ACE8C00921F0CB
:1004400007018D46704710B50446AFF30080204683
:10045000BDE81040FFF709BF0048704710000020BA
:1004600001491820ABBEFEE72600020070470000DD
:10047000FEE7000070470000B0B581B00022009296
:1004800090F83C20012A01D1022182E0D1F800E05D
:1004900001221FFA8EFC80F83C204FEA4C0212FA2F
:1004A0008EF30268BEF10A0F32BF10321E3B0C32CF
:1004B000072415689C4025EA040414608C681568BC
:1004C00004FA03F32B4313604A68062A07D802EBA9
:1004D00082014A1F01681F2351F8344F0CE0016864
:1004E0000C2A02EB820203D851F8304F233A02E083
:1004F00051F82C4F413A1F23934024EA03030B6029
:100500000D680CFA02F22A4342F204330A60C4F284
:1005100001030168BEF1120FA3F5417208BF9142B9
:1005200002D0914232D109E01D6825F400051D601A
:100530001D6845F480051D60914227D11221C1F24A
:1005400000018E4502D0BEF1110F1FD11A688E45F1
:1005500022F480021A601A6842F400021A6015D16F
:1005600040F20001C2F2000109684DF68362C4F254
:100570001B32A1FB0212910C01EB8101490000BF6B
:100580000091009911B100990139F9E7002180F833
:100590003C10084601B0B0BD0068C06C7047000058
:1005A000002804BF0120704710B50446006C30B924
:1005B000204600F09BF80020606484F83C00206C2A
:1005C000C0063AD4206C41F202118843023042F254
:1005D00004312064C4F20101086820F4403008604E
:1005E0000A6894E809101A43D4F810E00A604168D8
:1005F000012321F4807141604168C0F6007341EA33
:100600000E214160416821F040714160416841EA3A
:100610000C014160816821F400618160E1688268B9
:1006200011438160A16A8268994222F070628260FF
:10063000826804D122F040510AE0012052E01143C7
:100640008160816821F040518160E16A82681143D4
:100650008160816821F0020181608168227E94F8C6
:10066000203041EA42018160416883B141F4006178
:10067000416041684EF2000221F460414160616ACC
:10068000CFF6FF72436802EB4131194301E021F4D8
:1006900000614160C16A40F2000C21F47001C16246
:1006A000E2696169CFF6F07CC36A0CEB02521A432F
:1006B000C262826822F40072826094F830208368FB
:1006C00043EA42228260826822F480628260826809
:1006D00042EA8121816000206064216C012262F382
:1006E00001012164002184F83C1010BD80B586B062
:1006F00042F200010068C4F2010100228842059222
:10070000CDE903220292019201D006B080BD43F6EA
:1007100030000092C4F20200436943F480734361E5
:10072000436903F480730093009B0092036843F0D5
:1007300001030360006800F0010000900098202091
:1007400001900320CDE9020201F5604001A900F00B
:100750005FF906B080BD0000F0B581B004460068C6
:100760000D468268520544BF80685FEAC0502BD4B2
:1007700000F020FA21680A68920715D406466F1C1B
:1007800008E000BF20680068800727D52168086856
:10079000800709D4002FF9D0002DF3D000F00AFA19
:1007A000801BA842EED8F1E76FF012000860206CC1
:1007B00040F400702064886810F0405F01D1207E12
:1007C000B0B1002001B0F0BD206C40F020002064EA
:1007D000002084F83C00012001B0F0BD206C40F006
:1007E00004002064002084F83C00032001B0F0BD28
:1007F000C86A10F4700F02D088684005E1D4206CFC
:1008000020F480702064206CC004DAD4206C40F0A6
:1008100001002064D5E7000010B581B000210091EF
:1008200090F83C10012902D1022001B010BD0468EB
:10083000012180F83C10214651F8083FDB0717D111
:100840000B684DF6836243F001030B6040F2000336
:10085000C2F200031B68C4F21B32A3FB02239A0CF2
:1008600002EB42020092009A12B1009A013AF9E7B3
:100870000A68036CD20709D143F01001016400F14A
:10088000440101200A681043086055E040F20172FB
:1008900023EA020202F5807202646268520504D5FE
:1008A000026C012363F30D320264026C4FF0000E00
:1008B0000023D20444BF426C22F0060342F2043CFF
:1008C000436480F83CE06FF02200C4F2010C206029
:1008D000DCF80000C0060DD0ACF5417084422BD18D
:1008E0004FF60450CFF6FF705CF8000010F0405F48
:1008F00022D124E042F20000C4F20100844217D069
:1009000042F20020C4F2010084420DD042F20010F5
:10091000C4F2010084420FD1DCF80000C00607D009
:10092000ACF58270844207D1DCF80000C00603D425
:10093000086810F0405F02D0002001B010BD4FF0F9
:1009400080409FE770B5866D044600F033F994F857
:100950003510022925D105462068216C026822F055
:1009600016020260426922F08002426109B9A16C5C
:1009700019B1016821F008010160016821F001014D
:10098000016000BF20680068C0070ED000F012F9B7
:10099000401B0628F6D320206065032084F835002C
:1009A0000CE080206065012008E0E06D3F2101FA45
:1009B00000F0B060012084F835000020002184F8A8
:1009C000341070BD90F83510022909D1052180F846
:1009D00035100068016821F00101016000207047B6
:1009E0008021416501207047B0B5044600F0E2F86F
:1009F000054640F20400C2F200000078611C18BFF6
:100A0000044400BF00F0D6F8401BA042FAD3B0BDAA
:100A10002DE9F04F82B000F13E4707F1FF778605E0
:100A200046EA972742F20046C4F202060A22B04282
:100A300008BF0922092F38BF3A46002400274FF08B
:100A40000009009209E000BF09F101090237B9F17C
:100A5000100F04F1040400F0A4800D68012202FAD2
:100A600009FC15EA0C08EFD0D1F804B00BF0030A2A
:100A7000AAF10105012D12D80322856802FA07FEAA
:100A8000CA6825EA0E05BA402A4382604268CBF361
:100A9000001522EA0C0205FA09F52A434260BAF170
:100AA000030F1CD0C26803238E6803FA07F5AA431C
:100AB000BE403243BAF1020FC26010D16FF00302A0
:100AC00002EA59020244D2F820C004F01C050F23A8
:100AD0000E69AB402CEA0303AE4033431362026855
:100AE00003234E68BB409A4306F00303BB401A43FE
:100AF00016F4403F0260A7D0002243F6440301925F
:100B0000C4F202031A6843F6004E42F480421A60AF
:100B10001A68C4F2010E02F480420192019A29F08F
:100B200003024FF6084C7244CFF6FF7C52F80C30AB
:100B300004F00C060F25B540AB43009D05FA06F600
:100B4000334342F80C30DEF808204B6842EA0806CE
:100B500043F60C4CDD0258BF22EA0806CEF80860C6
:100B6000C4F2010CDCF800209D0242EA080658BFDE
:100B700022EA0806CCF80060DEF804209D0342EA71
:100B8000080658BF22EA0806CEF80460DEF8002006
:100B9000DB0342EA080658BF22EA0806CEF80060E6
:100BA00052E702B0BDE8F08F002A08BF0904816156
:100BB0007047000040F25410C2F200000068704715
:100BC00040F2040040F25411C2F20000C2F20001EF
:100BD00000780A68104408607047000080B543F64A
:100BE0000040C4F20200016841F400710160016834
:100BF00041F480610160016841F48071016003206B
:100C000000F088F80F2000F005F800F02BF8002025
:100C100080BD0000B0B540F20402C2F2000240F212
:100C200000011278C2F200014FF47A730968B3FB35
:100C3000F2F20446B1FBF2F1084600F031FB0F2C52
:100C40004FF001050CD858B94FF0FF302146002273
:100C5000002500F033F840F20800C2F20000046002
:100C60002846B0BD82B0002043F640010190C4F296
:100C700002014A6842F480424A604A6802F48042B3
:100C80000192019A0090086840F08050086008685E
:100C900000F080500090009802B07047002848BFD4
:100CA000704700F01F01012202FA01F14EF200121A
:100CB0004009CEF2000242F82010704710B54EF6FF
:100CC0000C5CCEF2000CDCF80030C3F3022E8EF088
:100CD0000704042C28BF0424BEF103034FF0FF3E99
:100CE0000EFA04F438BF0023A14399400EFA03F32F
:100CF0009A43114300F1604200F00F03090102F52D
:100D00006442043B6344002848BF03F10C021170A5
:100D100010BD00004EF60C51CEF200010A684FF6ED
:100D2000FF031A4060F30A2242F0806040F0FD7039
:100D300008607047002804BF012070472DE9F0418A
:100D400043F60808C4F202080446D8F8F8030D4632
:100D500000F00F00884207D288F8F853D8F8F8035B
:100D600000F00F00A84276D12068810717D541070F
:100D700005D5D8F8001041F4E051C8F8001001077B
:100D800005D5D8F8001041F46041C8F80010D8F833
:100D90000010A26821F0F0011143C8F80010C0074C
:100DA0003FD1D8F8F80300F00F00A84207D988F81F
:100DB000F853D8F8F80300F00F00A8424BD1206890
:100DC000410707D5D8F80010E26821F4E05111433B
:100DD000C8F80010000708D5D8F80000216920F4F1
:100DE000604040EAC100C8F8000000F07BF8D8F885
:100DF000001042F6A622C1F30311C0F60002515CB6
:100E000040F2000220FA01F140F20800C2F20000B4
:100E10000068C2F200021160FFF7FCFE0020BDE88E
:100E2000F0816068811E022907D258F8081C8901E8
:100E30005CBF0120BDE8F08110E0012807D158F81F
:100E4000081C89035CBF0120BDE8F08106E058F86A
:100E5000081C890702D40120BDE8F081D8F80010F1
:100E600021F003010843C8F80000FFF7A3FE06467F
:100E700041F28837D8F80000616800F00C00B0EB50
:100E8000810F8ED0FFF796FE801BB842F2D9032067
:100E9000BDE8F08140F2000043F60801C2F2000014
:100EA000C4F202010068096842F6B622C1F3822149
:100EB000C0F60002515CC8407047000040F20000DC
:100EC00043F60801C2F20000C4F20201006809689A
:100ED00042F6B622C1F34231C0F60002515CC8406E
:100EE0007047000010B543F60404C4F202046068C1
:100EF00000F00C0008280AD0042819BF42F2004074
:100F0000C0F2F40047F64000C0F27D1010BD20682A
:100F100021682368490247F64001C0F27D1100F0C4
:100F20003F02C3F388105CBF42F20041C0F2F401FB
:100F3000A1FB00010023FFF7BFF921680222C1F3E2
:100F4000014102EB4101B0FBF1F010BD002804BFEC
:100F5000012070472DE9F04182B00446007843F645
:100F60000006C007C4F2020647D0B06800F00C00CB
:100F7000042808D1306880033FD56068E8BB0120B1
:100F800002B0BDE8F081B06800F00C00082802D182
:100F900070684002EED46568B5F5A02F0AD0B5F5AB
:100FA000803F0BD0306820F480303060306820F40F
:100FB000802006E0306840F480203060306840F4E3
:100FC00080303060FFF7F6FD002D054612D000BFDF
:100FD0003068800311D4FFF7EDFD401B6428F7D97A
:100FE00026E100BFFFF7E6FD401B64284FF0030039
:100FF00000F2E28030688003F4D4207880071BD5AB
:10100000B06810F00C0F09D0B06800F00C00082890
:1010100040F087807068400200F18380306880076C
:1010200003D5E068012840F09E803068216920F0F7
:10103000F80040EAC10030602078000735D42078FD
:10104000400748D4A56965B3B06800F00C000828D3
:1010500040F09E80012D00F086807068E16900F408
:1010600080028A4240F07F80216A00F03F028A427B
:1010700079D147F6C071626A0140B1EB821F72D12B
:10108000A16A4FF6FF73C903994300F44032A1F5FA
:1010900080318A4267D1E16A00F07060B0EB016F85
:1010A00061D1002002B0BDE8F0816069002840F203
:1010B0000000C4F247205AD00121C0F8801EFFF77B
:1010C00079FD0546706F8007B9D4FFF773FD401BAB
:1010D0000228F7D9ACE0306C5FEAC0080AD40020DF
:1010E0000190306C40F080503064306C00F08050E3
:1010F0000190019847F20007C4F200073868C00564
:1011000024D4386840F480703860FFF753FD0546FA
:101110003868C0051AD4FFF74DFD401B0228F7D9E7
:1011200086E0E068002857D00020C4F24720012163
:101130000160FFF73FFD0546306880073FF575AF5A
:10114000FFF738FD401B0228F6D971E0A568052D90
:1011500056D0012D58D0306F20F001003067306F2D
:1011600020F0040053E0012002B0BDE8F08100212E
:10117000C0F8801EFFF71EFD054600BF706F800798
:101180007FF55DAFFFF716FD401B0228F6D94FE053
:101190000027C4F2472700203866FFF70BFD022D19
:1011A00005460DD13068800159D5FFF703FD401B7E
:1011B00002284FF00300F5D902B0BDE8F08100BF6E
:1011C000306880017FF56DAFFFF7F4FC401B02280B
:1011D0004FF00300F4D9EFE70020C4F247200021CC
:1011E0000160FFF7E7FC0546306880077FF524AF14
:1011F000FFF7E0FC401B02284FF00300F4D9DBE7C7
:10120000306F40F004003067306F40F0010030670D
:10121000FFF7D0FC002D054641F2883713D000BF00
:10122000306F800712D4FFF7C5FC401BB842F7D9D6
:10123000032002B0BDE8F081FFF7BCFC401BB842C0
:101240004FF00300B8D8306F8007F5D4B8F1000F25
:101250003FF5F8AE306C20F080503064F2E604F1D7
:101260001C052FCD084340EA8210D9034FF6FF72C8
:101270009143A1F5803140EA056008437060012088
:101280003866FFF797FC0446306880013FF509AFE8
:10129000FFF790FC001B02284FF00300F4D98BE706
:1012A000411E0020B0EB116F1CBF012070474EF2B1
:1012B0001002CEF2000251604EF62351CEF2000130
:1012C000F0230B7007219060116070477047000099
:1012D0007047000090F83C20012A4FF0020255D0E0
:1012E00010B5012380F83C3080F83D200268D2F828
:1012F00004E0D2F808C00C682EF07003234341F2DA
:10130000FF74C4F20004A24253600DDC40F2FF738C
:10131000C4F200039A4215DCB2F1804F29D040F2AA
:101320000043C4F2000322E040F2FF33C4F20103A1
:101330009A4212DC41F60003C4F200039A4218D02C
:10134000002312E040F60003C4F200039A4210D0DA
:1013500040F60043C4F2000309E044F20003C4F283
:1013600001039A4205D040F20043C4F201039A42BD
:1013700004D149682CF080031943916001210022B7
:1013800080F83D1080F83C20BDE8104010467047C2
:10139000002804BF0120704710B5044690F83D00B6
:1013A00028B9002084F83C00204600F01FF80220F5
:1013B00084F83D002068211D00F04EFC012084F8D7
:1013C000460084F83E0084F83F0084F8400084F82A
:1013D000410084F8420084F8430084F8440084F813
:1013E000450084F83D00002010BD00000068B0F109
:1013F000804F18BF704780B582B00020019043F63F
:101400004000C4F202000168002241F001010160C5
:101410000068002100F00100019001981C20FFF7F6
:101420004DFC1C2002B0BDE88040FFF737BC000037
:1014300090F83C20012A4FF0020200F0C68080B5EF
:10144000012380F83C3080F83D20D0F800C04FF6F2
:101450007772DCF8083023EA0202CCF808200B6827
:101460004F2B28DC1F2B44DD202B45D0302B43D0C5
:10147000402B40F0AC80D1F804E0C968DCF82030A3
:10148000DCF8202022F00102CCF82020DCF8182023
:1014900022F0F00242EA011123F00A0242EA0E02AF
:1014A000CCF81810CCF82020DCF8081041F04701E7
:1014B00021F030017EE06F2B26DDB3F5005F47D0D1
:1014C000B3F5805F78D0702B40F08180D1E901E3E3
:1014D000C968DCF8082043EA0E0322F47F4243EA9D
:1014E00001211143CCF80810DCF8081041F0770115
:1014F00060E00BB1102B6AD1DCF8081021F070010C
:10150000194341F0070155E0502B34D0602B5ED1D8
:10151000D1F804E0C968DCF82030DCF8202022F0A3
:101520001002CCF82020DCF8182022F4704242EAA5
:10153000013123F0A00242EA0E12CCF81810CCF8C8
:101540002020DCF8081041F0670121F0100131E0A3
:10155000D1E901E3C968DCF8082043EA0E0322F46C
:101560007F4243EA01211143CCF80810DCF808104F
:1015700041F480411EE0D1F804E0C968DCF8203075
:10158000DCF8202022F00102CCF82020DCF8182022
:1015900022F0F00242EA011123F00A0242EA0E02AE
:1015A000CCF81810CCF82020DCF8081041F05701D6
:1015B00021F02001CCF808100022012180F83D1014
:1015C000002180F83C10BDE88040104670470122A1
:1015D000F3E700007047000070B504460068C56876
:1015E0000669B10716D515F0020113D06FF002019C
:1015F0000161012121778069800703D02046FFF730
:10160000E9FF05E0204600F08DF8204600F08CF858
:1016100000202077700718D515F0040015D0206839
:101620006FF00401016102212177806910F4407F8D
:1016300003D02046FFF7CEFF05E0204600F072F809
:10164000204600F071F800202077300717D515F0FC
:10165000080014D020686FF008010161042121778F
:10166000C069800703D02046FFF7B4FF05E020469D
:1016700000F058F8204600F057F800202077F006D8
:1016800018D515F0100015D020686FF01001016119
:1016900008212177C06910F4407F03D02046FFF76E
:1016A00099FF05E0204600F03DF8204600F03CF8A8
:1016B00000202077F00718BF15F0010002D1300696
:1016C00009D412E020686FF001010161204600F0AA
:1016D0002DF8300609D515F0800006D020686FF08F
:1016E000800101612046FFF7F1FD700609D515F074
:1016F000400006D020686FF040010161204600F0F4
:1017000017F8B00658BF70BD15F0200008D021684A
:101710006FF0200220460A61BDE87040FFF7D8BD97
:1017200070BD000070470000704700007047000067
:10173000704700007047000070470000B0B582B0ED
:10174000044600680168C368426901F02F05202D36
:1017500003F0200506D12DB1204602B0BDE8B0400F
:1017600000F01ABB5FEA017C1EBF02F0010E03F419
:10177000907212EB0E0240D1226BCD0618D5012AD1
:1017800016D113F0100213D00021019101680191CC
:101790004168019101994069400636D4A08DE18DE0
:1017A000E28D002A18BF884240F00E8102B0B0BD21
:1017B0000A0672D513F080026FD094F841102129E7
:1017C000F4D1A168B1F5805F03D12169002900F04F
:1017D0003081216A4A1C226209784160E18C01391A
:1017E0000A04E184E2D1C16821F08001C160C168CE
:1017F00041F04001C16002B0B0BDC80718BF13F48A
:1018000080705ED1480762D468E0E06B0168496887
:101810008AB2002ACAD0A38D9A42C7D2E185C06994
:10182000B0F5807F31D000BF206850E8030F2168F9
:1018300020F4807041E80302002AF5D1206850E8C6
:10184000050F216820F0010041E80502002AF5D1CA
:10185000206850E8050F216820F0400041E80502AB
:10186000002AF5D1202084F842000020206300BF28
:10187000206850E8030F216820F0100041E80302BF
:10188000002AF5D1E06BFFF75DF802206063A08DC0
:10189000E18D401A81B22046C0E049067FF586AF4F
:1018A00013F040013FF482AFC16821F04001C160F4
:1018B0002021204684F8411002B0BDE8B04000F07D
:1018C000ADB9606C40F001006064480706D5BEF118
:1018D000000F03D0606C40F002006064880706D5FA
:1018E000BEF1000F03D0606C40F004006064BCF1F6
:1018F000000F06D55EEA050003D0606C40F00800DA
:101900006064606C00283FF451AF880603D515B1C0
:10191000204600F041FA20684069616C00F0400008
:1019200001F00801401848D0206850E8030F2168F2
:1019300020F4907041E80302002AF5D1206850E8B5
:10194000050F216820F0010041E80502002AF5D1C9
:10195000206B01280AD100BF206850E8030F2168DE
:1019600020F0100041E80302002AF5D1202084F87D
:1019700042000020206320684069400653D500BF24
:10198000206850E8050F216820F0400041E805027A
:10199000002AF5D1E06B002845D041F68D51C0F604
:1019A00000010165FFF70EF800283FF4FFAEE06B81
:1019B000016D02B0BDE8B04008472046FFF7BCFE0D
:1019C0000020606402B0B0BD401A00BF216851E839
:1019D000031F226821F4907142E80313002BF5D114
:1019E000216851E8051F226821F0010142E8051332
:1019F000002BF5D1202184F842100021216300BF83
:101A0000216851E8031F226821F0100142E8031306
:101A1000002BF5D1022281B22046626302B0BDE8FC
:101A2000B040FFF787BE204602B0BDE8B040FFF7E8
:101A300083BE216A31F8022B6FF35F22426021627C
:101A4000CCE60000002804BF0120704710B5044612
:101A500090F8410028B9002084F84000204600F0AA
:101A600021F8242084F841002068C16821F4005145
:101A7000C160204600F0F0F92068016921F490412E
:101A80000161416921F02A014161C16841F40051BD
:101A9000C16000202021606484F8411084F8421065
:101AA000606310BD80B586B044F200410068C4F2A6
:101AB0000001002288420592CDE9032202920192A0
:101AC00001D006B080BD43F630000092C4F202009F
:101AD000036943F400330361036903F400330093A3
:101AE000009B0092036843F008030360006800F065
:101AF000080000900098602001900220CDE90202C9
:101B0000032004900720059001F5E43001A9FEF7B9
:101B10007FFF262000210022FFF7D0F82620FFF7C4
:101B2000BDF806B080BD0000704700002DE9F0430D
:101B300081B0044690F8410020281CD18846002935
:101B40004FF0010066D01646002A63D00020606482
:101B500021201D4684F84100FFF72CF8A684E68476
:101B6000A1680646B1F5805F01D1206938B1C14650
:101B70004FF0000805E0022001B0BDE8F0834FF00F
:101B80000009E08C48B36F1C0CE0B9F1000F1BD0CA
:101B900019F8010B21684860E08C0138E084E08C82
:101BA000D8B100BF206800680006EED4002FF9D03D
:101BB000FFF700F801464FF0030045B3891BA94227
:101BC00025D82068C068EDE738F8020B21686FF36C
:101BD0005F2048604FF00009DEE72068006840069B
:101BE00014D46F1C04E000BF2068006840060DD4C8
:101BF000002FF9D0FEF7DEFF01464FF0030035B1AC
:101C0000891BA94203D82068C068EDE70020202185
:101C100084F8411001B0BDE8F08300007047000077
:101C2000FEE70000FEE70000FEE70000704700004E
:101C300070470000FEF7C4BF4EF68850CEF2000099
:101C4000016841F4700101607047000040F2BC007F
:101C5000C2F20000FFF7C0BC10B540F6FF3E0368BB
:101C6000C4F2000E40F2004C7045C4F2010C0FDCCF
:101C7000B0F1804F19D040F20042C4F2000290420D
:101C800013D040F60002C4F2000290420DD010E0E2
:101C900040F60042C4F20002904206D0604504D0F3
:101CA0000022C4F20102904203D14A6823F070037B
:101CB000134341F6FF72C4F2000290420DDC7045FE
:101CC0001FDCB0F1804F41D040F20042C4F200026C
:101CD00090423BD040F6000221E043F6FF72C4F28E
:101CE0000102904220DC42F20002C4F20002904263
:101CF0002CD00022C4F20102904227D0604525D0AA
:101D000028E040F60042C4F2000290421ED041F6A4
:101D10000002C4F20002904218D041F60042C4F220
:101D20000002904212D015E044F20002C4F2010217
:101D300090420BD044F60002C4F20102904205D05A
:101D400044F20042C4F20102904203D1CA6823F473
:101D50004073134323F080024B69D1F800E08C6894
:101D60001A430260C46240F48062C0F828E0624511
:101D700004BF09690163012141610169C90708BF05
:101D800010BD016921F00101016110BD806B0021CE
:101D9000C185C184FFF7D0BC90F84210222918BF3A
:101DA00070478268B2F5805F01D1016991B1816AA3
:101DB000B2F5805F07D00AB9026922B102685268A1
:101DC00002F07F0201E0026852680A70816A013104
:101DD000816207E00168826A49686FF35F2122F837
:101DE000021B8262C18D01390A04C18500D070478F
:101DF0000168CA6822F02002CA60CA6822F48072B0
:101E0000CA604A6922F001024A61202180F842102A
:101E100000214163026B012A18BFFFF785BE81B024
:101E2000016300BF016851E8031F026821F010013F
:101E300042E80313002BF5D101680A68D20606D5E3
:101E4000002200920A680092496800910099818DF1
:101E500001B0FFF76FBC000010B504460068D4E97C
:101E600002C22369016921F4405111430161626991
:101E700043EA0C01E3691143C268194349F20C6358
:101E80009A431143C1604169A26921F4407141F252
:101E90000043114340F48062C4F201039A4241615D
:101EA00002D1FFF70BF801E0FEF7F4FFE169636888
:101EB0001922B1F5004FA0FB020120D15A00DB0F1F
:101EC000FEF7FAF948F21F51C5F2EB11A0FB01230E
:101ED0005A094FF69C73C0F6FF7303F1805302FB5F
:101EE0000300322303EBC000A0FB01014FF4F870A4
:101EF00000EA111000EB0210C1F342111CE09A003D
:101F00009B0FFEF7D9F948F21F51C5F2EB11A0FB68
:101F100001235A094FF69C73C0F6FF7302FB0300BE
:101F2000322303EB0010A0FB0101F02000EA511066
:101F300000EB0210C1F3431108442168886010BD12
:101F400040F20410C2F20000FFF7F8BBFEE7000009
:101F500094B043F6300547F20007C4F20205C4F21C
:101F60000007FEF73BFE08AC20463021FEF71CFAC6
:101F700000260696CDE90466CDE902660196286939
:101F8000012140F080502861286900F080500190C4
:101F900001980196386861F38F303860386800F432
:101FA0004040019001980220089010200C9020469B
:101FB0000B910E96FEF7CAFF08B172B6FEE70F202E
:101FC000CDE9020602A80021CDE904660696FEF7D7
:101FD000B1FE10B172B600BFFEE700260C96CDE947
:101FE0000A66CDE908660296286807F5CA3440F00B
:101FF000010028602868012100F001000290029889
:1020000002962868002240F00200286028684FF0FD
:10201000010900F00200029002980296286840F040
:1020200008002860286800F0080002900298204606
:10203000FEF7BAFD07F5C83528464FF48061002247
:102040004FF4806AFEF7B0FD0DF1200820464146AE
:10205000CDE90899CDE90A66FEF7DAFC2846414643
:10206000CDE908A9CDE90A66FEF7D2FC40F274007A
:10207000012207F53041C2F20000C0F60072CDE93E
:102080000A66CDE90866067680F82060C0E90A266F
:10209000C0F81C9080F83060C0E90016C0E9026604
:1020A000C0E90469FEF77CFA08B172B6FEE70520C4
:1020B000CDE9080940F27400C2F2000008A90A96AE
:1020C000FEF7DAF908B172B6FEE740F2BC00002173
:1020D000C2F200004FF0804240F2E73345F2082799
:1020E000CDE90A11CDE90811CDE90211C0E90023BB
:1020F000C0E9021701618161FFF74AF908B172B6C0
:10210000FEE74FF48050089040F2BC00C2F200009D
:1021100008A9FFF78DF910B172B600BFFEE740F2D3
:10212000BC000024C2F2000002A9CDE90244FFF77E
:10213000D1F810B172B600BFFEE740F2041044F2CD
:102140000041C2F20000C4F200010C234FF4E1325E
:1021500080E81600C0E90344C0E90534C461FFF714
:1021600071FC10B172B600BFFEE79FED2B0B40F281
:10217000740659EC100B9FED2A0B40F24C185AECE8
:1021800010BB9FED290B40F27007C2F2000654EC21
:10219000105BC2F20008C2F2000700903046FEF762
:1021A0003BFB30464FF0FF31FEF7D6FA3046FEF7E4
:1021B000F3F940F25011C2F2000108603046FEF718
:1021C000EBF900F064FA009A4B4600F073FA5A46B5
:1021D000534600F0D5F82A46234600F029F800F0CF
:1021E00029FAC8F80000D8F80000C0F3032078707E
:1021F000D8F8000038700120FEF7F6FB40F204101A
:10220000C2F20000394602224FF47A73FFF78EFCC7
:10221000C4E700BF00BF00BF0000000000807640A0
:102220000000000000D08B4000000000000074405F
:1022300010B591EA030F48BF83F0004300F14083DB
:10224000841A71EB030C05D2121943EB0C03001B2B
:1022500061EB0C014FEA1154A4EB135CDFF81CE1B5
:102260001EEA430F18BF9EEA445F00F0748021EA23
:10227000045123EA0E0343F48013DCF1200E32D321
:1022800022FA0CFE10EB0E0023FA0CFE41EB0E01BD
:10229000CCF1200E03FA0EFE10EB0E00CCF1200E56
:1022A00051F10001B1F5801F32D201EB045112FA55
:1022B0000EF2BDE8104058BF7047401C38BF5FEABF
:1022C000420218BF7047002814BF20F0010041F1FE
:1022D00000014FEA410313F5001F38BF7047A1F119
:1022E000C04100F0DFBA012A43EB0302ACF1200C3D
:1022F000DCF11F0E32BF4FF0000E23FA0CF310EB8F
:10230000030041EB0451B4EB115FD0D0A1EB0451B9
:1023100001F58011490801EB04515FEA30000ED34A
:1023200050F1000038BF12FA0EFE08D1BDE810408F
:10233000C9E7401C38BF5FEA4202CAD1C3E7BDE823
:1023400010404FEA410313F5001F38BF7047A1F159
:10235000C04100F0A7BA9EEA445F08D011EA5E0FC0
:10236000BDE8104004BF01F0004100207047BDE807
:10237000104070B500F048FA64FBBE3E0000E0FF7C
:102380002DE9C04130B4DFF8A4C23CEA111418BFF3
:102390003CEA131400F0ED801CEA111481EA0305F5
:1023A00044EAD57418BF1CEA131500F0C880A4EBEA
:1023B000050404F17F7404F500344FF0004545EA4C
:1023C000C12145EAC32341EA505143EA52534FEA3F
:1023D000C0204FEAC222994208BF904200F09D807F
:1023E0004FEA13650FF24416765D4FEA134506FB7C
:1023F00005F7C7F1807706FB07F74FEAD737A7FB4A
:1024000003687642A7FB06CEC8F5803838BFA8F12E
:10241000010807FB08E6A6FB028C4FF0000EE6FB66
:1024200003CEDCF1000CCEF1004E38BFAEF1010E50
:10243000A6FB0C584FF00007E6FB0E87A1FB08C671
:10244000A0FB07CE16EB0E064FF0000545F1000588
:10245000E1FB076515F1E04E7EBFA4F580345FEA2D
:1024600046066D4116F1800745F100054FEA172732
:1024700047EA05674FEA15254FEA0666A6F1DE46EC
:10248000B6F1805F20D9384605EBC47124F0010C09
:1024900001EB0C11BCF1FE6F02D8F0BCBDE800816D
:1024A00024425CBF01F5801E9EEAC47F02D4F0BCCA
:1024B000BDE80081244200F13980A1F1C041F0BCA7
:1024C000BDE8004100F0EEB94FEAD02040EA4150AB
:1024D0004FEAD1214FEAD22242EA43524FEAD323B4
:1024E000A7FB028607FB036605FB02661EEA0E0FCA
:1024F00058BFA6EB0056B6EB00564FEA520E4EEA16
:10250000C37E18EB0E0E56EB530EBCD518EB02082B
:102510005E417F1C55F10005B5E74FF480154FF083
:1025200000074FF000064FF00008ACE701F1C04192
:1025300001F000414FF00000F0BCBDE800810CEA62
:10254000131511EA0C1F00D00CE013EA0C1F00F069
:1025500026804FF0000081EA030101F00041F0BC49
:10256000BDE80081F0BCBDE8004181EA030100F054
:1025700099B9F0BCBDE8004170B500F045F900BF65
:10258000097EFC3E00F007B84FF0000081EA03012D
:1025900001F00041704781EA030100F083B9F0BC0B
:1025A000BDE8004122494FF000007047FFFDFBF9F4
:1025B000F7F5F4F2F0EEEDEBE9E8E6E4E3E1E0DE76
:1025C000DDDBDAD8D7D5D4D3D1D0CFCDCCCBCAC8E8
:1025D000C7C6C5C4C2C1C0BFBEBDBCBBBAB9B8B70F
:1025E000B6B5B4B3B2B1B0AFAEADACABAAA9A8A802
:1025F000A7A6A5A4A3A3A2A1A09F9F9E9D9C9C9BD0
:102600009A9999989797969595949393929191907A
:102610008F8F8E8E8D8C8C8B8B8A8989888887870B
:102620008685858484838382828181800000FF0780
:102630000000F87F4FEA1153A3F58063D3F11E0326
:10264000A8BFD3F1200C08DB4FF0004242EAC122C0
:1026500052EA505232FA03F0704709420BD4102B61
:10266000C4BF0020704703F5787CBCF1FF3F05D064
:102670004FF0FF3070474FF00000704770B500F02A
:10268000C3F800BF4992248000207047F0E7B0FAF9
:1026900080F310FA03F10AD0C3F11D0303F5806340
:1026A0004FEA03524FEA415002EBD12170474FF0FD
:1026B0000000704770B5DFF848C11CEA111E1EBF4C
:1026C0001CEA13159EEA0C0F95EA0C0F00F06F80C0
:1026D00081EA03044EEAD47EAE4421EA4C1123EA97
:1026E0004C1341F4801143F48013AEF17F7EA1FBC3
:1026F000024CA0FB0365361955EB0C05A1FB034CFE
:102700004CF10003A0FB021C16EB0C06654153F1D3
:102710000003094218BF46F0010613F4007F0BD1F5
:102720004FEA03314FEA053041EA155140EA1650AD
:1027300034036FF003020AE04FEAC3214FEAC520D9
:1027400041EA555140EA5650F4026FF0020202EBA2
:102750002E4201EB025585EACE710AD05FEA440CA5
:1027600018BF24F0004450F1000041F1000120EABC
:10277000D47040F2FE7C624500D270BDA84214BF06
:102780004FF080444FF04044002E08BF0024BEF1BB
:10279000806FA8BFA1F1C041BDE8704080F2828087
:1027A00001F1C04101F000414FF0000070470CEA18
:1027B00013159EEA0C0F18BF95EA0C0F06D081EA9C
:1027C000030E4FF000000EF0004170BD00F01CF849
:1027D0008900013E00F007B800F009B84FEA430C49
:1027E0005FEA5C5C08D081EA030100F05BB84FEA65
:1027F000410C5FEA5C5CF6D102494FF00000704783
:102800000000FF070000F87F0EF1020E2EF0030E0D
:102810005EF8046B364205D4012A43EB030515F537
:10282000001F12D8012841EB010C1CF5001F0CD829
:102830000ED14FEAD17C0CEB4C0C0CF1020C15F5CF
:10284000001F08BF4CEBD37C04E04FF0080C01E004
:102850004FEAD37C0CEB4C0526FA05F606F007068A
:10286000B6F1040C06D20EEB860CBDE870404CF0BD
:10287000010C6047DFE80CF0090B02024FF0004149
:10288000A1F500214FF0000070BD19461046012847
:1028900051EB010418BFD4F5001484BF002001F0EF
:1028A000004170BD0808A0F500114FEA31017047E2
:1028B00010B591EA030F48BF83F000433FF5C0AC69
:1028C000841A71EB030C07D28CF0004C121943EB05
:1028D0000C03001B61EB0C014FEA1154A4EB135CD9
:1028E000DFF8A4E11EEA430F18BF9EEA445F00F040
:1028F000B48021EA045123EA6E035242C3EB6E0313
:1029000038BF5B1EDCF1200E25D322FA0CFE10EB43
:102910000E0043FA0CFE41EB0E01CCF1200E03FA3F
:102920000EFE10EB0E00CCF1200E51F1000129D467
:1029300001EB045112FA0EF2BDE8104058BF704787
:10294000401C1CBFB2F1004F704700280CBF491C4F
:1029500020F00100704712EB020E43EB030218BF98
:102960004FF0010E4EEA4202ACF1200CDCF11E0EDB
:1029700056D943FA0CFE10EB0E00CCF11E0E51F1AD
:10298000FF31D5D50EF1010E12FA0EFE404141EB9A
:10299000010101EB445C5FEA5C5C10D901EB04517E
:1029A00010EBDE7038BFBEF1004FBDE8104018BF1D
:1029B000704700280CBF491C20F00100704734D23A
:1029C0004FEAD42C24F4006411F500111BD0B1FAA5
:1029D00081F20B3AA41AA41ED2F12003914030FADE
:1029E00003F31943904001EBCC7101EB0451002C2F
:1029F000BDE81040A8BF704701F1C04101F000419F
:102A00004FF000007047B0FA80F310FA03F102D1E2
:102A1000BDE810407047E41A173C4805C90AE2E7D0
:102A200001EB0451BDE81040704749104FEA3000F7
:102A300001EB0451BDE8104002E04FF00001704787
:102A40004A0008BF0042F8D0B2F5001F28BF704707
:102A500001F000414FF0000070479EEA445F07D04C
:102A600011EA5E0FBDE8104004BF0021002070474E
:102A7000BDE8104070B5FFF7C7FE00BF40DFF63E6F
:102A8000104683F0004170470000E0FFF1EE100AAD
:102A90004FF6FF71C0F2C03120EA010040F04070F3
:102AA000E1EE100A70470000000000000000010283
:102AB00003040607080900000000010203040000E7
:102AC000E02A0008000000201000000010020008AA
:102AD000F02A00081000002048070000300200081B
:102AE0000024F400010000001000000000000000BD
:04000005080001AD41
:00000001FF
