:020000040800F2
:10000000080700202503000861360008FD2E0008BF
:100010005D3600089D150008ED3C0008000000005A
:10002000000000000000000000000000D5360008BD
:10003000A115000800000000D13600082D37000887
:100040003F0300083F0300083F0300083F03000888
:100050003F0300083F0300083F0300083F03000878
:100060003F0300083F0300083F0300083F03000868
:100070003F0300083F0300083F0300083F03000858
:100080003F0300083F0300083F0300083F03000848
:100090003F0300083F0300083F0300083F03000838
:1000A0003F0300083F0300083F0300083F03000828
:1000B0003F0300083F0300083F0300083F03000818
:1000C0003F0300083F0300083F0300083F03000808
:1000D0003F0300083F0300083F030008DD3C000821
:1000E0003F0300083F0300083F0300083F030008E8
:1000F0003F0300083F0300083F0300083F030008D8
:100100003F0300083F0300083F0300083F030008C7
:100110003F030008E93700083F0300083F030008D9
:100120003F0300083F0300083F0300083F030008A7
:100130003F0300083F0300083F0300083F03000897
:100140003F0300083F0300083F0300083F03000887
:100150003F0300083F0300083F0300083F03000877
:100160003F0300083F0300083F0300083F03000867
:100170003F0300083F0300083F03000800000000A1
:100180003F0300083F0300083F0300083F03000847
:100190003F0300083F0300083F0300083F03000837
:1001A0003F0300083F0300083F03000800F002F887
:1001B00000F0A8F814A696E8000CB244B344DA455F
:1001C00001D100F09FF8BAE80F000FA696E83000C2
:1001D000A5EB040504EB0607AAEB0704A7F101074A
:1001E0004FEA15154FEA3414A4F10104AC4201D3CF
:1001F00000F088F813F0010F18BFFB1A43F0010359
:1002000000F001F8DBE71847B4460000D4460000D0
:10021000103A24BF78C878C1FAD8520724BF30C832
:1002200030C144BF04680C60704700007047000094
:100230000023002400250026103A28BF78C1FBD8EF
:10024000520728BF30C148BF0B6070476E2900F0CD
:10025000DF81702900F02183662904F097826529E7
:1002600004F09482672904F09182612904F090825D
:1002700003681B0A28BF41F08001692900F08C81C6
:10028000642900F08981752900F086816F2900F0CA
:10029000AF82782900F0ED82E92900F04982E42953
:1002A00000F04682F52900F04382EF2900F0AC828D
:1002B000F82900F0EC820368DB0928BF41F08001D7
:1002C000632900F0ED87732900F0F287E32900F03D
:1002D000FD87F32901F00280002070471FB504F06C
:1002E00048FA01F051F804000020002104F0B4F9AC
:1002F000401C60600020002104F098F9E0601FBD00
:1003000010B510BD01F012F81146FFF7E7FF03F03A
:100310004FFD01F0EFF803B4FFF7F2FF03BC01F06B
:1003200035F900000948804709480047FEE7FEE725
:10033000FEE7FEE7FEE7FEE7FEE7FEE7FEE7FEE795
:1003400004480549054A064B70470000D5370008A8
:10035000AD01000808010020080700200803002064
:100360000803002053EA020C00F069802DE9F04BED
:100370004FF00006002B1FBFB3FA83F503FA05F414
:1003800024FA05F65E4012BF1643B2FA82F502FA6D
:1003900005F4C5F120051EBF22FA05FC44EA0C0451
:1003A000203556EA044C4FEA144418BF641C4FF041
:1003B00000084FF00009904271EB030C39D300297B
:1003C00019BFB1FA81F701FA07F6B0FA80F700FA1F
:1003D00007F6C7F120071EBF20FA07FC46EA0C0605
:1003E0002037B6FBF4FCA7EB0507103F07F01F0B07
:1003F000CBF120062CFA06F60CFA0BFB44BFB346F1
:100400000026202FA4BF5E464FF0000B5BEA060CCF
:1004100008BF4FF0010B19EB0B0948EB0608ABFBCB
:10042000027C06FB02CC0BFB03CCC01B71EB0C0166
:10043000C1E70B46024641464846BDE8F08B13B57E
:10044000084318BF4FF0FF300146AFF30080BDE80E
:100450001C4070470FB41CB5084B06AA7B44694684
:100460000090059800F0EDF804460020694600F081
:10047000FBF820461CBC5DF814FB000009020000DC
:100480004FF0000200B5134694469646203922BF2D
:10049000A0E80C50A0E80C50B1F12001BFF4F7AF78
:1004A000090728BFA0E80C5048BF0CC05DF804EB5A
:1004B000890028BF40F8042B08BF704748BF20F8C8
:1004C000022B11F0804F18BF00F8012B70477047C6
:1004D0007047704770B5044685690068C10601D54C
:1004E000302600E02026C00707D070BDD4E90121E6
:1004F00030469047206A401C20626D1EF6D570BDC4
:1005000070B5044685690078C00707D170BDD4E98D
:10051000012120209047206A401C20626D1EF6D5E4
:1005200070BD09684A0501D540B27047C905FCD5C0
:1005300000B2704709684A0501D5C0B27047C905C5
:10054000FCD580B2704770B50C460546012A05D02F
:100550002878800600D5EA69002302E0012305E03F
:100560005B1C934202D2E05C0028F9D1A869E6182E
:10057000C01AA861286A184428622846FFF7AAFF13
:1005800004E0D5E9012114F8010B9047B442F8D3F7
:100590002846FFF7B5FF70BD2DE9F041064600245F
:1005A00010687529314616A510D0FFF7BAFF00284C
:1005B00002DA404213A507E031688A0701D512A587
:1005C00002E0490704D511A5012401E0FFF7B2FFBD
:1005D00000210A2206F1240709E0B0FBF2FCB0FB7F
:1005E000F2F302FB1C00303078541846491C0028F6
:1005F000F3D123462A463046BDE8F04100F061BA07
:10060000000000002D0000002B0000002000000072
:1006100011680268006A530501D508700AE0D30525
:1006200001D5088006E0130603D5C217C1E9000210
:1006300000E008600120704701694A1C02610878E7
:10064000704700B58FB0CDE9013100210591054912
:100650007944CDE903101146684600F029F90FB03E
:1006600000BD0000E5FFFFFF0A6802F8010B0A6009
:10067000704700002DE9FF5F15468A460446DFF803
:10068000AC80F8440027D8E900103E46CDE90010C0
:1006900010E03AF816106A4602A800F023FE411C4A
:1006A00007D02178890603D5E269391891420DD81F
:1006B0000744761C2078800602D5E069B84205DD43
:1006C000AE42E6DB3AF816000028E2D1A069C01B72
:1006D000A0612046FFF7FEFED8E90010CDE900102A
:1006E000002017E03AF818106A4602A800F0FAFD58
:1006F000B0F1FF3F81460BD000250DF1080B05E05E
:10070000D4E901211BF8050090476D1C4D45F7D336
:1007100008F10100B0428046E4DB206A38442062E0
:100720002046FFF7EDFEBDE8FF9F00000E410000F0
:100730002DE9F0418046D21D22F007020025D2E9C2
:100740000002F52915A614D0011E72F1000106DA87
:100750000023D0EB030063EB020211A608E0D8F8F7
:1007600000108B0701D50FA602E0490701D50EA6A0
:1007700001251146002408F1240704E000F05CF98B
:1007800030323A55641C50EA0102F7D12B4632460A
:1007900021464046BDE8F04100F093B9000000005A
:1007A0002D0000002B0000002000000030B40021CC
:1007B00000F1240408E002F00705D208303542EACF
:1007C0004372DB086554491C52EA0305F3D10468FF
:1007D000002310A2250708D504F020040C4304D000
:1007E000C46901230CA2641EC46130BC00F069B965
:1007F00010B5044621461068FFF79CFE02462046CD
:10080000BDE810400023D1E7D21D22F00701D1E955
:100810000023CBE70000000030000000F0B40D46DC
:100820000188090502D5214C7C4402E01F4C7C4420
:100830000E34002100F1240608E002F00F0712092F
:10084000E75D42EA03721B097754491C52EA030729
:10085000F3D102780023120704D5702D06D009B118
:10086000022311342246F0BC00F02BB901231034CE
:10087000F8E770B504460D4621461068FFF75AFEAA
:10088000024629462046BDE870400023C6E7D21D37
:1008900022F00703D3E90023C0E70368126843F09E
:1008A000200303600823C3610023B7E7703F000003
:1008B0002DE9F05F894604464FF0000ADFF874B175
:1008C000FB44C0F820A02046E1688847002874D087
:1008D000252806D0D4E901219047206A401C2062D7
:1008E000F1E700265F462046E16888472028054654
:1008F00007DB312D05D2781910F8200C08B106431A
:10090000F1E7B00701D526F00406C4F81CA00027C3
:10091000C4F818A02A2D09D0284603F07FFE38B36A
:1009200004EB8708303DC8F8185019E059F8041B4B
:10093000204604EB87029161E1688847012F054654
:1009400018D1E069002820DA26F020061DE0D8F84A
:10095000180000EB800005EB40003038C8F81800A4
:100960002046E1688847054603F058FE0028EED18E
:10097000012F0AD02E2D08D12046E16888477F1C20
:100980000546022F46F02006C4DBA069002803DAE2
:10099000404246F00106A061F00701D026F01006A3
:1009A0006C2D0BD0682D09D04C2D39D06A2D35D047
:1009B000742D35D07A2D33D016E038E0E1682F461B
:1009C00020468847B842054609D16C2F26D04FF4FF
:1009D0008060E168064320468847054604E06C2FA6
:1009E0001AD04FF4807006430DB3A5F141001928C9
:1009F00002D8203546F400664A462946204626603D
:100A00004E46FFF723FC80B101280BD0F61D26F0DF
:100A1000070000F1080956E74020E4E78020D8E706
:100A20000020D6E706F104094DE7284652E7206A80
:100A3000BDE8F09F003F000030B5B0F10A0271F14F
:100A400000034FEA900E4EEA817EB0EB0E0061EBA0
:100A500091014FEA101E4EEA017E10EB0E0041EBB1
:100A600011114FEA102E4EEA016E10EB0E0041EB11
:100A700011214FEA104E4EEA014E10EB0E0041EBF1
:100A80001141401841F100014FEAD00040EA4170A5
:100A90004FEAD1014FEA810444EA907410EB8005DB
:100AA00044EB01046D1944EB0404521BA3414FF0C5
:100AB000000348BF0A3200D530BD401C41F100019F
:100AC00030BD2DE9F0470D4699469246044600F1A7
:100AD00024080168880604D5E06921F0100121602E
:100AE00000E00120A84201DD471B00E00027A169CA
:100AF0007A1902EB0900081AA0612078C00602D416
:100B00002046FFF7E7FC002608E0D4E901211AF8A7
:100B100006009047206A401C761C20624E45F4DB9C
:100B20002078C0060AD52046FFF7D4FC06E0D4E9B9
:100B3000012130209047206A401C2062381EA7F116
:100B40000107F4DC07E0D4E9012118F8050090471B
:100B5000206A401C2062281EA5F10105F3DC204616
:100B6000FFF7CEFC2078000602D50220BDE8F08712
:100B70000120FBE72DE9FF4F0C461E464FF0FF37E3
:100B80008BB0D2E90001DDF860800A908A46C1F39B
:100B90000A5505B93D46002108464FF00000BAF15C
:100BA000000F00F4400005DA00EB80004FF4400134
:100BB00001EA50004FEA9059B9F1010F00DDB94642
:100BC0000A9850EA4A000ED044F61050A5F2FF35BC
:100BD00045432F14B8F1000F1ED07542291E1EDDAB
:100BE000C9F100021CE0B8F1010F4FF0000001D084
:100BF000302103E0F24305E02154401CB042FBDB0E
:100C000030460022002121540B99C1F80880C1E927
:100C100000200FB0BDE8F08FBD1B6D1CDEE74A461B
:100C200000DA694206A800F0F3FB06AB93E8070080
:100C300003AB83E8070050460A9903F00FF98DE8EB
:100C40000700A0F500501F3800900398002D0ADD22
:100C500042F21F014A460844002303A90390684654
:100C600003F078FB09E0A0F500504A461F38002346
:100C700003A90390684603F082FB8DE80700000497
:100C8000000C03D04FF0FF30410800E01046B8F1EF
:100C9000000F03D00022009215461EE0751E05D4F9
:100CA000FFF7CAFE303262556D1EF9D5B3460122F8
:100CB000084302D000227F1C04E02078302801D1B4
:100CC00000227F1E002A099784D01DE0112D07DA2B
:100CD000FFF7B2FE303262556D1C50EA0102F5D1C9
:100CE000084302D00098C8B10EE00021681E05E05C
:100CF000235C625C63542254401E491C8142F7DB32
:100D0000AB46A81B401E0990002004F80B000B986E
:100D1000099AC0F80880C0E9002B7AE711264FF045
:100D2000000857E72DE9F04F88460446D21D22F00F
:100D3000070191B0D1E90001CDE90A0103F056FCA9
:100D400002460B98C00F01D02D2007E020688107D4
:100D500001D52B2002E0202101EAC000032A0990DE
:100D600001D0072A05DB03464146204600F010FB70
:100D70000BE12078800601D5E06900E00620B8F19B
:100D8000650F814606D0B8F1660F18D0B8F1670F2D
:100D900070D131E00020B9F1110F009001DB112377
:100DA00001E009F101030AAA01A90CA8FFF7E2FE7C
:100DB000DDE90C70002609F10105834647E00120BA
:100DC0004B4600904FF000470AAA01A90CA8FFF774
:100DD000D1FEDDE90DB00C995D46002610B909F190
:100DE00001000D18B9EB050003D4C0F1FF3609F17D
:100DF0000105A5EB09002BE0B9F1010F01DA4FF075
:100E000001090020B9F1110F0090484601DD1123BE
:100E100000E003460AAA01A90CA8FFF7ABFEDDE932
:100E20000C704D4600268346207800070AD4AB4557
:100E300000DA5D4601A8012D04DD411911F8011CFD
:100E4000302907D04F4502DA17F1040F04DA0120E8
:100E500082460FE06D1EEEE7002F02DCED1B3E44E4
:100E600003E0781CA84200DD7D1CB81B00F1010ADC
:100E70004FF000472078000703D4AA4501DB4FF06C
:100E8000FF3A0021B7F1004F0DF143088DF84310F0
:100E900024D002202B23002F01DA7F422D230A21A8
:100EA000021EA0F1010000DC5FB197FBF1FC97FB93
:100EB000F1F201FB1C7C17460CF1300C08F801CD57
:100EC000EEE7A8F1010003702188090501D545214D
:100ED00000E06521A0F1010800F8011C09980FA9A4
:100EE000A1EB0807FF1D00B10120411901EBEA70D9
:100EF000A1693844081A401EA0612078C00602D4B7
:100F00002046FFF7E7FA099828B1D4E90121904774
:100F1000206A401C20622078C00622D52046FFF7B8
:100F2000D9FA1EE0002E04DBB34502DD01A8805D86
:100F300000E03020D4E901219047206A401C206263
:100F4000761CAAF101005FEA000A0AD100F01CFA3F
:100F5000C0680168405CD4E901219047206A401CC8
:100F60002062281EA5F10105DCDC07E0D4E901219F
:100F700018F8010B9047206A401C2062381EA7F128
:100F80000107F3DC2046FFF7BBFA032011B041E66E
:100F90002DE9F04F04460D46D21D22F0070089B01E
:100FA000D0E900974846394603F020FB0246F80F87
:100FB00001D02D2307E02068810701D52B2302E013
:100FC000202101EAC0038DF820300BB1012000E0A0
:100FD0000020032A824601D0072A04DB2946204646
:100FE00000F0D6F93FE12078800601D40D2500E01D
:100FF000E569C7F30A560D2D49DA00214FEA175B60
:1010000008464FF00000002F00F4400007DA00EB24
:1010100080004FF4400100EBD07001EA60008115C0
:10102000012901DD4FF0FF3100224FEA850CBCF1B0
:10103000180F06D31346ACF118004FF08052C2408F
:1010400003E04FF4801323FA0CF30CF10C0CBCF109
:10105000200F04D3ACF1200C09FA0CF001E007FAE0
:101060000CF000294FF0004801DD18B90FE00ED157
:1010700040450CD319EB02095F4121B9404502D12B
:101080009F4329EA0209BBEB175F00D0761C20883A
:10109000000502D57B48784402E07A487844193844
:1010A00008AA302302F80A30037C0AF10101002E5D
:1010B0000AF1020A53546A4602DC4FF0300101E0A3
:1010C0004FF031014FF001088DF8001002D0A6F268
:1010D000FF3603E059EA470100D06B4E002D02DCD9
:1010E0002178090704D54FF002082E218DF8011050
:1010F000C44600210BE0C7F303433F01C35C491C16
:101100006D1E02F80830052908F1010801DA002DEA
:10111000F1DC00210CE000EB1973491C1B786D1EFB
:10112000082902F808304FEA091908F1010801DA24
:10113000002DF0DC21688B0602D516E0A8F101082D
:10114000E04505DD02EB080313F8013C302BF5D038
:10115000B8F1000F09DD02EB080313F8013C2E2B58
:1011600003D1090701D4A8F10108002D05DD3E21B6
:1011700002F808106D1E08F10108407C002E02F8EC
:10118000080008F1010804DA2D20764202F8080070
:1011900002E02B2002F808000A214FF47A70864200
:1011A00008F101080BDB96FBF0F3303302F808304E
:1011B00096FBF0F308F1010800FB136601E0642ED2
:1011C0000CDB642096FBF0F3303302F8083096FB1A
:1011D000F0F308F1010800FB136601E00A2E06DBBC
:1011E00096FBF1F0303002F8080008F1010896FB98
:1011F000F1F001FB1060303002F80800A16908F13D
:10120000010808EB050202EB0A00081AA061207829
:10121000C00602D42046FFF75DF9216A08AE01EB53
:101220000A00206204E0D4E9012116F8010B90477E
:10123000BAF1010AF7D22078C00602D52046FFF79E
:1012400049F96E4609E016F8010B3E280FD0D4E9A3
:1012500001219047206A401C2062B8F10108F2D2B7
:101260002046FFF74DF909B00320BDE8F08F206A52
:101270002844206203E0D4E90121302090476D1E0C
:10128000EBD3F8E74E37000002FCFFFF10B54369CF
:1012900013B1AFF3008001E0FFF755F9012010BD55
:1012A000127800F124010A7000224A700122EDE751
:1012B00011684FF0FF32E9E710B5436913B1AFF39E
:1012C000008001E0FFF7D6F9012010BD128800F17F
:1012D000240182840022C2840122EDE711684FF0CC
:1012E000FF32E9E72DE9F04116460C46054600F0CD
:1012F00043F8036893F80101012807D0FF2C12D8A6
:10130000185D80B101202C70BDE8F081D3F8070191
:101310003246214603F20713C7182846BC46BDE8EB
:10132000F041002360474FF0FF30EDE7754600F0D5
:10133000EBF8AE4605006946534620F007008546A7
:1013400018B020B5FEF7FCFFBDE820404FF00006C6
:101350004FF000074FF000084FF0000BAC46ACE830
:10136000C009ACE8C009ACE8C009ACE8C00921F08C
:1013700007018D467047000010B500F005F8001D0C
:1013800010BD00BFD532000000487047300000207B
:101390002DE9F0411F46044603260168072A01F49F
:1013A000006004DB08B116A505E016A503E008B14E
:1013B00015A500E015A521F010002060A069C01E51
:1013C000A0610FB1401EA0612046FFF783F84FB126
:1013D000D4E9012138469047206A401C2062C01C95
:1013E000206206E0206AFAE7D4E9012115F8010B32
:1013F0009047761EF8D22046FFF782F8BDE8F081CC
:101400004E414E006E616E00494E4600696E6600A8
:101410002DE9F047814616468AB0354878440DC814
:101420008DE80D0032487844801C03AC0DC884E878
:101430000D0041F69B300844372190FBF1F290FB00
:10144000F1F5A5F1800501FB12041B3C02D56442B5
:10145000012000E00020DFF898A080460027FA4431
:10146000AAF1BE0A0EE0E0070AD03246684607EB52
:10147000470101230AEB810102F081FF8DE807009B
:1014800064107F1C002CEED1194F7F44AE3F19E051
:10149000E80715D007EB04100DF1180A90E80E00CC
:1014A0008AE80E00C068F04201D1981908903246CF
:1014B000012306A903A802F062FF03AB83E807003B
:1014C0006D10641C002DE3D14FF0010332466946D4
:1014D000B8F1000F03A802D002F03CFF01E002F0D7
:1014E0004EFFC9E90001C9F808200AB0BDE8F0873D
:1014F0005834000010B50446AFF300802046BDE824
:101500001040FEF708BF00000048704710000020A0
:1015100030B44FF0013C50F8042B51F8043BCCFAA6
:1015200052F4D51A20D1FCB950F8042B51F8043BE1
:10153000CCFA52F4D51A17D1B4B950F8042B51F89B
:10154000043BCCFA52F4D51A0ED16CB950F8042BE6
:1015500051F8043BCCFA52F4D51A05D1002CDAD05C
:1015600030BC4FF00000704729BAB1FA81F111F098
:101570001801D1F120008440F2D1CA40CB4012F0D2
:10158000FF0213F0FF0330BCD01A70470149182046
:10159000ABBEFEE72600020070470000FFE7FEE753
:1015A0007047000081B0EFF3108072B60090FFE743
:1015B000FEE7000080B584B002900298806D019033
:1015C00000F0C2FA0090029890F8350002280DD081
:1015D000FFE7029980204865FFE70299002081F823
:1015E0003400FFE701208DF80F0055E002980168F4
:1015F000086820F01600086002980168486920F029
:10160000800048610298006C20B9FFE70298806C66
:1016100038B1FFE702980168086820F00800086008
:10162000FFE702980168086820F001000860FFE702
:10163000029800680068C007C8B1FFE700F084FAAC
:101640000099401A062811D3FFE702992020486527
:101650000299032081F83500FFE70299002081F804
:101660003400FFE703208DF80F0015E0E0E7029853
:10167000C16D3F208840019988600299012081F85E
:101680003500FFE70299002081F83400FFE7FFE70B
:1016900000208DF80F00FFE79DF80F0004B080BD1B
:1016A00082B00090009890F83500022807D0FFE73C
:1016B00000998020486501208DF807000EE0009910
:1016C000052081F8350000980168086820F00100C5
:1016D0000860FFE700208DF80700FFE79DF807008E
:1016E00002B0704780B584B0039000F02DFA0290EC
:1016F000039801900198013048B1FFE740F20400DF
:10170000C2F200000178019808440190FFE7FFE76A
:1017100000F01AFA0299401A0199884201D2FFE7B3
:10172000F6E704B080BD000090B00F900E9100204D
:101730000C900B900A900D90FFE70D980F2800F287
:10174000E881FFE70D99012088400C900E98006811
:101750000C9908400B900B980C99884240F0D4816A
:10176000FFE70E98406800F00300012807D0FFE76C
:101770000E98406800F0030002282FD1FFE70F9871
:1017800080680A900D984100032000FA01F10A9840
:1017900088430A900E98C0680D99490000FA01F13B
:1017A0000A9808430A900A980F9988600F98406831
:1017B0000A900D99012000FA01F10A9888430A90D5
:1017C0000E984068C0F300100D9900FA01F10A98D4
:1017D00008430A900A980F994860FFE70E984068FE
:1017E00000F00300032818D0FFE70F98C0680A90A4
:1017F0000D984100032000FA01F10A9888430A90ED
:101800000E9880680D99490000FA01F10A98084382
:101810000A900A980F99C860FFE70E98406800F098
:101820000300022826D1FFE70F980D996FF00302FD
:1018300002EA51010844006A0A900D9800F007007E
:1018400081000F2000FA01F10A9888430A900E984F
:1018500000690D9901F00701890000FA01F10A9869
:1018600008430A900A980F990D9B02EA530211440B
:101870000862FFE70F9800680A900D984100032066
:1018800000FA01F10A9888430A900E98406800F027
:1018900003000D99490000FA01F10A9808430A90E3
:1018A0000A980F9908600E9880798007002800F048
:1018B0002A81FFE7FFE70020099043F64400C4F2C5
:1018C0000200016841F480410160006800F480403A
:1018D00009900998FFE70D9820F0030043F60801EE
:1018E000C4F2010140580A900D9800F003008100F5
:1018F0000F2000FA01F10A9888430A900F980021FE
:10190000C4F20201884203D1FFE7002008907AE088
:101910000F9840F20041C4F20201884203D1FFE770
:10192000012007906CE00F9840F60001C4F202011C
:10193000884203D1FFE7022006905EE00F9840F650
:101940000041C4F20201884203D1FFE70320059061
:1019500050E00F9841F20001C4F20201884203D125
:10196000FFE70420049042E00F9841F20041C4F2E6
:101970000201884203D1FFE70520039034E00F986D
:1019800041F60001C4F20201884203D1FFE70620BC
:10199000029026E00F9841F60041C4F2020188420D
:1019A00003D1FFE70720019018E00F9842F20001F1
:1019B000C4F20201884203D1FFE7082000900AE048
:1019C0000F9942F20042C4F202020A20914208BF7B
:1019D00009200090FFE700980190FFE7019802902E
:1019E000FFE702980390FFE703980490FFE704984D
:1019F0000590FFE705980690FFE706980790FFE738
:101A000007980890FFE70898C0B20D9901F003010C
:101A1000890000FA01F10A9808430A900A980D9982
:101A200021F0030143F60802C4F20102885043F694
:101A30000840C4F2010000680A900B990A98884394
:101A40000A900E988079C006002805D5FFE70B990B
:101A50000A9808430A90FFE70A9843F60841C4F23F
:101A60000101086043F60C40C4F2010000680A90CE
:101A70000B990A9888430A900E988079800600286E
:101A800005D5FFE70B990A9808430A90FFE70A98E3
:101A900043F60C41C4F20101086043F60440C4F26D
:101AA000010000680A900B990A9888430A900E98E2
:101AB00080798007002805D5FFE70B990A9808432D
:101AC0000A90FFE70A9843F60441C4F20101086056
:101AD00043F60040C4F2010000680A900B990A988E
:101AE00088430A900E988079C00728B1FFE70B99C8
:101AF0000A9808430A90FFE70A9843F60041C4F2A7
:101B000001010860FFE7FFE7FFE70D9801300D9046
:101B100013E610B07047000082B00190ADF80210DB
:101B20008DF801209DF8010028B1FFE7BDF8020003
:101B30000199886105E0BDF80200000401998861FF
:101B4000FFE702B07047000040F20010C2F2000050
:101B50000068704740F20400C2F20000027840F2D0
:101B60000011C2F2000108681044086070470000CC
:101B700080B543F60041C4F20201086840F40070E9
:101B80000860086840F480600860086840F480706D
:101B90000860032000F08AF80F2000F005F800F03C
:101BA0003BF8002080BD000080B582B0009040F27C
:101BB0000000C2F20000006840F20401C2F200011D
:101BC0000A784FF47A71B1FBF2F1B0FBF1F000F05A
:101BD000A5FD20B1FFE701208DF8070018E000986F
:101BE0000F280DD8FFE700994FF0FF30002200F0DA
:101BF00043F8009840F20801C2F20001086003E0D7
:101C000001208DF8070003E000208DF80700FFE7B2
:101C10009DF8070002B080BD82B0FFE70020019070
:101C200043F64400C4F20200016841F480410160BF
:101C3000006800F4804001900198FFE7FFE7002072
:101C4000009043F64000C4F20200016841F0805168
:101C50000160006800F0805000900098FFE702B03B
:101C60007047000080B582B08DF807009DF907002D
:101C700002F03EF802B080BD80B586B08DF8170046
:101C8000049103920020029002F04AF802909DF91C
:101C90001700019002980499039A01F0E3FC0146B1
:101CA000019802F045F806B080BD000080B582B012
:101CB0000190019802F05EF802B080BD80B584B05A
:101CC00002900191029820B9FFE701208DF80F00E2
:101CD00021E1019843F60041C4F20201096801F0D4
:101CE0000F01884212D9FFE7019943F60040C4F280
:101CF00002000170006800F00F000199884204D0D2
:101D0000FFE701208DF80F0005E1FFE7029800785A
:101D1000800700282AD5FFE70298007840070028AE
:101D200009D5FFE743F60801C4F20201086840F450
:101D3000E0500860FFE7029800780007002809D506
:101D4000FFE743F60801C4F20201086840F460406E
:101D50000860FFE743F60801C4F20201086820F0BA
:101D6000F000029A926810430860FFE7029800783A
:101D7000C00700286ED0FFE702984068012811D103
:101D8000FFE743F60000C4F20200006800F40031EF
:101D90000020B0EB514F04D1FFE701208DF80F0078
:101DA000B9E02CE002984068022805D0FFE70298CD
:101DB0004068032811D1FFE743F60000C4F2020097
:101DC000006800F000710020B0EB516F04D1FFE714
:101DD00001208DF80F009EE010E043F60000C4F2F1
:101DE0000200006800F002010020B0EB510F04D1A6
:101DF000FFE701208DF80F008DE0FFE7FFE743F6D6
:101E00000801C4F20201086820F00300029A526837
:101E100010430860FFF798FE0090FFE743F60800C4
:101E2000C4F20200006800F00C0002994968B0EBAF
:101E3000810F0ED0FFE7FFF787FE0099401A41F2AD
:101E40008931884204D3FFE703208DF80F0062E058
:101E5000E4E7FFE7019843F60041C4F20201096894
:101E600001F00F01884212D2FFE7019943F60040CA
:101E7000C4F202000170006800F00F00019988426E
:101E800004D0FFE701208DF80F0044E0FFE702983F
:101E90000078400700280CD5FFE743F60801C4F29C
:101EA0000201086820F4E050029AD26810430860EA
:101EB000FFE702980078000700280DD5FFE743F6FA
:101EC0000801C4F20201086820F46040029A126915
:101ED00040EAC2000860FFE700F04CF843F6080152
:101EE000C4F202010968C9B20A0944F69001C0F6B9
:101EF0000001895CC84040F20001C2F200010860A4
:101F000040F20800C2F200000068FFF74DFE00201A
:101F10008DF80F00FFE79DF80F0004B080BD0000B2
:101F200040F20000C2F200000068704780B5FFF781
:101F3000F7FF43F60801C4F202010968C1F38222E7
:101F400044F6A001C0F60001895CC84080BD0000D5
:101F500080B5FFF7E5FF43F60801C4F20201096806
:101F600089B24A0B44F6A001C0F60001895CC84062
:101F700080BD000080B586B00020059004900390DD
:101F8000029043F60800C4F20200006800F00C0062
:101F90000146019140B1FFE7019804280AD0FFE70C
:101FA000019808280CD04FE042F20040C0F2F40043
:101FB00002904FE047F64000C0F27D10029049E0E9
:101FC00043F60400C4F20200016801F03F010591EC
:101FD00000684002002813D5FFE743F60400C4F26E
:101FE00002000068C0F3881047F64001C0F27D117E
:101FF000A0FB0101059A0023FEF7B4F9049012E05A
:1020000043F60400C4F202000068C0F3881042F2F4
:102010000041C0F2F401A0FB0101059A0023FEF784
:10202000A1F90490FFE743F60400C4F2020000683F
:1020300000F44031022000EBD13003900498039962
:10204000B0FBF1F0029005E042F20040C0F2F40073
:102050000290FFE7029806B080BD000080B586B010
:102060000490049820B9FFE701208DF8170050E391
:1020700004980078C007002800F0A580FFE743F629
:102080000800C4F20200006800F00C00042813D01D
:10209000FFE743F60800C4F20200006800F00C00FD
:1020A00008281ED1FFE743F60400C4F202000068CE
:1020B0004002002815D5FFE743F60000C4F20200F5
:1020C000006800F400310020B0EB514F08D0FFE76A
:1020D0000498406820B9FFE701208DF8170018E345
:1020E00070E0FFE704984068B0F5803F09D1FFE752
:1020F00043F60001C4F20201086840F48030086031
:1021000020E004984068B0F5A02F0DD1FFE743F61A
:102110000001C4F20201086840F4802008600868E9
:1021200040F4803008600CE043F60001C4F2020184
:10213000086820F480300860086820F48020086077
:10214000FFE7FFE7FFE704984068E8B1FFE7FFF724
:10215000FBFC0390FFE743F60000C4F202000068B6
:1021600000F400310020B0EB514F0CD1FFE7FFF736
:10217000EBFC0399401A652804D3FFE703208DF890
:102180001700C6E2E7E71CE0FFF7DEFC0390FFE77D
:1021900043F60000C4F20200006800F400310020A1
:1021A000B0EB514F0CD0FFE7FFF7CEFC0399401A7C
:1021B000652804D3FFE703208DF81700A9E2E7E7BD
:1021C000FFE7FFE7FFE7049800788007002840F169
:1021D0009680FFE743F60800C4F20200006810F0A2
:1021E0000C0F13D0FFE743F60800C4F202000068AA
:1021F00000F00C0008282CD1FFE743F60400C4F2DD
:10220000020000684002002823D4FFE743F60000E4
:10221000C4F20200006800F002010020B0EB510F90
:1022200009D0FFE70498C068012804D0FFE7012027
:102230008DF817006DE243F60001C4F20201086850
:1022400020F0F800049A126940EAC2000860FFE733
:1022500054E00498C06870B3FFE70021C4F247213E
:1022600001200860FFF770FC0390FFE743F60000D1
:10227000C4F20200006800F002010020B0EB510F30
:102280000CD1FFE7FFF760FC0399401A032804D341
:10229000FFE703208DF817003BE2E7E743F6000174
:1022A000C4F20201086820F0F800049A126940EABA
:1022B000C200086021E00021C4F24721002008602C
:1022C000FFF742FC0390FFE743F60000C4F2020070
:1022D000006800F002010020B0EB510F0CD0FFE7C6
:1022E000FFF732FC0399401A032804D3FFE70320C9
:1022F0008DF817000DE2E7E7FFE7FFE7FFE7049837
:102300000078000700284BD5FFE70498406918B310
:10231000FFE740F68061C4F2472101200860FFF723
:1023200013FC0390FFE743F67400C4F20200006858
:1023300000F002010020B0EB510F0CD1FFE7FFF7D6
:1023400003FC0399401A032804D3FFE703208DF808
:102350001700DEE1E7E722E040F68061C4F24721A2
:1023600000200860FFF7F0FB0390FFE743F67400DE
:10237000C4F20200006800F002010020B0EB510F2F
:102380000CD0FFE7FFF7E0FB0399401A032804D3C2
:10239000FFE703208DF81700BBE1E7E7FFE7FFE762
:1023A000049800784007002840F1CE80FFE7002025
:1023B0008DF8070043F64000C4F202000068C00038
:1023C000002815D4FFE7FFE70020009043F6400007
:1023D000C4F20200016841F080510160006800F021
:1023E000805000900098FFE701208DF80700FFE77C
:1023F00047F20000C4F200000068C005002822D4A3
:10240000FFE747F20001C4F20001086840F4807061
:102410000860FFF799FB0390FFE747F20000C4F262
:1024200000000068C00500280CD4FFE7FFF78CFB14
:102430000399401A032804D3FFE703208DF81700FF
:1024400067E1EAE7FFE7FFE704988068012809D120
:10245000FFE743F67001C4F20201086840F0010092
:1024600008601FE00498806805280DD1FFE743F657
:102470007001C4F20201086840F0040008600868B6
:1024800040F0010008600CE043F67001C4F2020164
:10249000086820F001000860086820F00400086067
:1024A000FFE7FFE7FFE704988068F8B1FFE7FFF771
:1024B0004BFB0390FFE743F67000C4F20200006894
:1024C00000F002010020B0EB510F0ED1FFE7FFF743
:1024D0003BFB0399401A41F28931884204D3FFE75C
:1024E00003208DF8170014E1E5E71EE0FFF72CFB51
:1024F0000390FFE743F67000C4F20200006800F0AA
:1025000002010020B0EB510F0ED0FFE7FFF71CFBDC
:102510000399401A41F28931884204D3FFE703202E
:102520008DF81700F5E0E5E7FFE79DF807000128C3
:1025300009D1FFE743F64001C4F20201086820F028
:1025400080500860FFE7FFE704988069002800F0EA
:10255000DC80FFE743F60800C4F20200006800F0E8
:102560000C00082800F08580FFE7049880690228A5
:102570005CD1FFE76021C4F2472100200860FFF72B
:10258000E3FA0390FFE743F60000C4F2020000689C
:1025900000F000710020B0EB516F0CD0FFE7FFF7A7
:1025A000D3FA0399401A032804D3FFE703208DF8D8
:1025B0001700AEE0E7E70499C869D1F820C04B6A7C
:1025C0008A6A40EA0C0040EA8310D2034FF6FF7398
:1025D0009A43A2F580321043C96A40EA016043F68B
:1025E0000401C4F2020108606021C4F24721012005
:1025F0000860FFF7A9FA0390FFE743F60000C4F272
:102600000200006800F000710020B0EB516F0CD1A7
:10261000FFE7FFF799FA0399401A032804D3FFE76D
:1026200003208DF8170074E0E7E721E06021C4F291
:10263000472100200860FFF787FA0390FFE743F681
:102640000000C4F20200006800F000710020B0EB4E
:10265000516F0CD0FFE7FFF777FA0399401A032870
:1026600004D3FFE703208DF8170052E0E7E7FFE708
:102670004AE004988069012804D1FFE701208DF821
:10268000170046E043F60400C4F20200006802901E
:1026900004988069012831D0FFE7029800F4800097
:1026A0000499C969884229D1FFE7029800F03F00E8
:1026B0000499096A884221D1FFE7029847F6C07160
:1026C00008400499496AB0EB811F17D1FFE70298CF
:1026D00000F440300499896AC9034FF6FF729143B0
:1026E000A1F58031884209D1FFE7029800F07060BF
:1026F0000499C96AB0EB016F04D0FFE701208DF89F
:10270000170006E0FFE7FFE7FFE700208DF817005E
:10271000FFE79DF8170006B080BD000080B582B0CD
:102720000190019800F0D8FF02B080BD82B0019006
:10273000ADF8021002B0704781B0009001B0704750
:1027400080B592B0119011980068006810901198AF
:102750000068C0680F901198006840690E900020D2
:102760000D900C90109800F00F000D900D9888B906
:10277000FFE79DF84000800600280AD5FFE79DF896
:102780003C008006002804D5FFE7119801F0A2F86C
:10279000E3E1FFE70D98002800F0C280FFE79DF815
:1027A0003800C00738B9FFE7BDF83C0010F4907F4F
:1027B00000F0B680FFE79DF84000C00758B1FFE782
:1027C0009DF83D00C00730B1FFE71199086C40F05B
:1027D00001000864FFE79DF84000400700280BD582
:1027E000FFE79DF83800C00730B1FFE71199086C8A
:1027F00040F002000864FFE79DF8400080070028D1
:102800000BD5FFE79DF83800C00730B1FFE71199FD
:10281000086C40F004000864FFE79DF840000007E2
:10282000002811D5FFE79DF83C008006002805D45C
:10283000FFE79DF83800C00730B1FFE71199086C39
:1028400040F008000864FFE71198006C002866D08B
:10285000FFE79DF84000800600280AD5FFE79DF8B5
:102860003C008006002804D5FFE7119801F032F8FB
:10287000FFE7119800684069C0F380100C90119830
:10288000006C0007002804D4FFE70C9800283ED015
:10289000FFE7119800F0C0FF1198006840694006FA
:1028A00000282FD5FFE7FFE7FFE71198006850E801
:1028B000050F20F040000B90FFE70B99119802687C
:1028C00042E805100028F0D1FFE7FFE71198806B80
:1028D00098B1FFE71198816B43F2F970C0F60000E0
:1028E00008651198806BFEF7DBFE28B1FFE71198B1
:1028F000806B016D8847FFE703E01198FFF71CFF2D
:10290000FFE703E01198FFF717FFFFE706E01198D4
:10291000FFF712FF119900200864FFE7FFE71CE1B1
:102920001198006B012840F0F880FFE79DF8400007
:10293000C006002840F1F180FFE79DF83C00C0068A
:10294000002840F1EA80FFE7FFE700200A90119895
:10295000006800680A901198006840680A900A9818
:10296000FFE7119800684069400600287ED5FFE720
:102970001198806B00684068ADF82600BDF826000D
:10298000002872D0FFE7BDF826001199898D884292
:102990006BDAFFE7BDF826001199C8851198806BA6
:1029A000C069B0F5807F58D0FFE7FFE7FFE71198D7
:1029B000006850E8030F20F480700890FFE7089942
:1029C0001198026842E803100028F0D1FFE7FFE702
:1029D000FFE7FFE71198006850E8050F20F00100BD
:1029E0000790FFE707991198026842E80510002850
:1029F000F0D1FFE7FFE7FFE7FFE71198006850E835
:102A0000050F20F040000690FFE706991198026834
:102A100042E805100028F0D1FFE7FFE711992020D8
:102A200081F83E00119900200863FFE7FFE7119845
:102A3000006850E8030F20F010000590FFE70599AB
:102A40001198026842E803100028F0D1FFE7FFE781
:102A50001198806BFEF7AEFDFFE71198818DC28D56
:102A6000891A89B2FFF762FEFFE776E01199888D37
:102A7000C98D401AADF812001198C08D00284BD0B6
:102A8000FFE7BDF81200002846D0FFE7FFE7FFE7A9
:102A90001198006850E8030F20F490700390FFE74E
:102AA00003991198026842E803100028F0D1FFE76B
:102AB000FFE7FFE7FFE71198006850E8050F20F0F7
:102AC00001000290FFE702991198026842E80510A0
:102AD0000028F0D1FFE7FFE71199202081F83E00A0
:102AE000119900200863FFE7FFE71198006850E89C
:102AF000030F20F010000190FFE701991198026880
:102B000042E803100028F0D1FFE7FFE71198BDF875
:102B10001210FFF70BFEFFE71FE09DF840000006D4
:102B200000280AD5FFE79DF83C000006002804D5E0
:102B3000FFE7119801F01EF80FE09DF840004006F5
:102B400000280AD5FFE79DF83C004006002804D580
:102B5000FFE7119800F0AAFEFFE712B080BD000069
:102B600080B582B00090009820B9FFE701208DF871
:102B700007003EE00098806908B1FFE700E0FFE74A
:102B8000009890F83D0040B9FFE70099002081F8D7
:102B90003C00009800F032F8FFE70099242081F80B
:102BA0003D0000980168C86820F40050C860009893
:102BB00000F042FF00980168086920F49040086125
:102BC00000980168486920F02A004861009801686F
:102BD000C86840F40050C860009900200864009A5A
:102BE000202182F83D10009A82F83E108DF80700EF
:102BF000FFE79DF8070002B080BD000080B594B0EB
:102C0000139000201290119010900F900E90139836
:102C1000006845F20001C4F20001884269D1FFE773
:102C2000FFE700200D9043F64000C4F20200016867
:102C300041F480110160006800F480100D900D983F
:102C4000FFE7FFE700200C9043F63000C4F20200DB
:102C5000016841F004010160006800F004000C907C
:102C60000C98FFE7FFE700200B9043F63000C4F21A
:102C70000200016841F008010160006800F00800EE
:102C80000B900B98FFE74FF480500E9002200390BA
:102C90000F900020079010900320049011900820BE
:102CA0000590129040F60000C4F202000EA90691B1
:102CB000FEF73AFDDDF80CC0049A05980699079BCB
:102CC0004FF0040ECDF838E0CDF83CC010931192CF
:102CD000129040F60040C4F20200FEF725FD079A6C
:102CE000352008901146FEF7C7FF0898FEF7BAFF97
:102CF00048E01398006844F60001C4F200018842DD
:102D00003FD1FFE7FFE700200A9043F64000C4F2FE
:102D10000200016841F480210160006800F4802015
:102D20000A900A98FFE7FFE70020099043F6300079
:102D3000C4F20200016841F002010160006800F085
:102D4000020009900998FFE74FF440600E900220BE
:102D50000F900020019010900320119007201290F6
:102D600040F20040C4F202000EA9FEF7DDFC019A19
:102D7000272002901146FEF77FFF0298FEF772FFB0
:102D8000FFE7FFE714B080BD80B58AB008900791D7
:102D9000ADF81A20059300200290089890F83E00A4
:102DA000202840F09B80FFE7079820B1FFE7BDF89F
:102DB0001A0020B9FFE701208DF8270092E0FFE715
:102DC000089890F83C00012804D1FFE702208DF814
:102DD000270087E00899012081F83C00FFE7FFE722
:102DE000089900200864089A222182F83E10089968
:102DF0000863FEF7A9FE0290BDF81A0008998885BD
:102E0000BDF81A000899C88508988068B0F5805FF9
:102E100009D1FFE70898006928B9FFE7002004906E
:102E20000798039004E00798049000200390FFE7C0
:102E3000FFE70899002081F83C00FFE7FFE70898CA
:102E4000C08D002842D0FFE70898029B05996A468A
:102E500011602021002200F0D7FE20B1FFE70320FF
:102E60008DF827003EE0049858B9FFE708980068FD
:102E700040686FF35F200399088003980230039045
:102E80001FE008988068B0F5805F08D0FFE70898D9
:102E9000806850B9FFE70898006930B9FFE70898E3
:102EA000006840680499087007E008980068406866
:102EB00000F07F0004990870FFE704980130049047
:102EC000FFE70899C88D0138C885B8E70899202020
:102ED00081F83E0000208DF8270003E002208DF8E5
:102EE0002700FFE79DF827000AB080BD81B0009061
:102EF00001B0704781B0009001B07047FFE7FEE776
:102F000080B582B0052000F087F8062000F0C6F8F2
:102F100001200021009100F01DF8032000F0BEF810
:102F200000980190FFE70198B0F5FA6F05DCFFE724
:102F3000FFE7019801300190F5E7032000F06CF8FD
:102F4000062000F069F80121084600F003F802B0FD
:102F500080BD000082B001900091009800F0030055
:102F600000900198052808D0FFE70198062804D0B2
:102F7000FFE70198032815D1FFE7019841000320DE
:102F800000FA01F241F20001C4F202010868904324
:102F900008600098019A520000FA02F20868104393
:102FA000086036E00198082808D0FFE70198072854
:102FB00004D0FFE70198092815D1FFE701984100E7
:102FC000032000FA01F241F20041C4F20201086854
:102FD000904308600098019A520000FA02F20868D3
:102FE0001043086014E001984100032000FA01F248
:102FF00041F60001C4F2020108689043086000989D
:10300000019A520000FA02F2086810430860FFE7D4
:10301000FFE702B07047000081B0009000980528DB
:1030200008D0FFE70098062804D0FFE7009803289F
:103030000CD1FFE70099012000FA01F241F21401DE
:10304000C4F2020108689043086024E00098082850
:1030500008D0FFE70098072804D0FFE70098092868
:103060000CD1FFE70099012000FA01F241F214416E
:10307000C4F202010868904308600BE00099012047
:1030800000FA01F241F61401C4F20201086890430B
:103090000860FFE7FFE701B07047000081B00090D3
:1030A0000098052808D0FFE70098062804D0FFE71D
:1030B000009803280CD1FFE70099012000FA01F2E3
:1030C00041F21401C4F2020108681043086024E0D0
:1030D0000098082808D0FFE70098072804D0FFE7E9
:1030E000009809280CD1FFE70099012000FA01F2AD
:1030F00041F21441C4F202010868104308600BE079
:103100000099012000FA01F241F61401C4F2020113
:10311000086810430860FFE7FFE701B07047000050
:1031200080B5002000F02CF9012000F029F980BDC5
:1031300080B586B000200590FFE70598C82805DC1B
:10314000FFE7FFE7059801300590F6E70520FFF758
:1031500063FF0320019000F013F9019800F010F9CB
:10316000019800F00DF90220049000F009F904988C
:1031700000F006F90820029000F002F90020039008
:1031800000F0FEF8029800F0FBF8039800F0F8F861
:10319000012000F0F5F8039800F0F2F8062000F0A6
:1031A000EFF8039800F0ECF80F2000F0E9F803982E
:1031B00000F0E6F8049800F0E3F806B080BD0000E7
:1031C00080B582B043F63001C4F20201086840F0D5
:1031D00010000860086840F020000860086840F0AF
:1031E00040000860052001210191FFF7B3FE01991D
:1031F0000620FFF7AFFE01990320FFF7ABFE019910
:103200000820FFF7A7FE01990720FFF7A3FE019909
:103210000920FFF79FFE01990846FFF79BFE41F248
:103220000401C4F20201086820F07F00086041F246
:103230000441C4F20201086820F07F00086041F6F2
:103240000401C4F20201086820F07F00086002B0A7
:1032500080BD000080B582B08DF807000520FFF723
:103260001DFF0620FFF7D8FE0320FFF717FF0820F9
:10327000FFF7D2FE0720FFF7CFFE0920FFF7CCFEB5
:103280000120FFF7C9FE9DF8070000F010010020A3
:10329000B0EB111F04D0FFE70820FFF7FFFEFFE7A8
:1032A0009DF8070000F020010020B0EB511F04D072
:1032B000FFE70720FFF7F2FEFFE79DF8070000F0A9
:1032C00040010020B0EB911F04D0FFE70920FFF779
:1032D000E5FEFFE79DF807100020B0EBD11F04D0FA
:1032E000FFE70120FFF7DAFEFFE703200090FFF77A
:1032F00093FE0098FFF7D2FE0820FFF78DFE07200F
:10330000FFF78AFE0920FFF787FE0120FFF784FE02
:103310009DF80700C00720B1FFE70820FFF7BEFEB9
:10332000FFE79DF8070000F002010020B0EB510F0D
:1033300004D0FFE70720FFF7B1FEFFE79DF8070085
:1033400000F004010020B0EB910F04D0FFE709204A
:10335000FFF7A4FEFFE79DF8070000F0080100203A
:10336000B0EBD10F04D0FFE70120FFF797FEFFE796
:103370000320FFF751FEFFF7C3FD02B080BD000040
:1033800080B582B08DF807000620FFF745FE0520C6
:10339000FFF742FE0320FFF781FE0820FFF73CFE07
:1033A0000720FFF739FE0920FFF736FE0120FFF75F
:1033B00033FE9DF80700C00720B1FFE70820FFF7A4
:1033C0006DFEFFE79DF8070000F002010020B0EB62
:1033D000510F04D0FFE70720FFF760FEFFE79DF8DD
:1033E000070000F004010020B0EB910F04D0FFE7CC
:1033F0000920FFF753FEFFE79DF8070000F00801E2
:103400000020B0EBD10F04D0FFE70120FFF746FE0C
:10341000FFE70320FFF700FEFFF772FD02B080BD5B
:1034200080B582B00190002000900090FFE70198E5
:103430000099405C50B1FFE701980099405CFFF7AC
:1034400009FFFFE7009801300090F0E702B080BD6F
:1034500080B588B08DED070A0020009006908DF8A9
:1034600014000490039002900190079801F010F965
:1034700041EC100B53EC102B44F6AB01C0F60001ED
:1034800001A8FCF7E7FF00980690FFE7069901A85E
:10349000405C50B1FFE7069901A8405CFFF7DAFEF7
:1034A000FFE7069801300690F0E708B080BD000005
:1034B00080B5FFF785FEFFF73BFE80BD80B592B07B
:1034C0000020119010900F900E900D90FFE70020BB
:1034D0000C9043F63000C4F20200016841F0100184
:1034E0000160006800F010000C900C98FFE7FFE707
:1034F00000200B9043F63000C4F20200016841F056
:1035000020010160006800F020000B900B98FFE79D
:10351000FFE700200A9043F63000C4F20200016881
:1035200041F002010160006800F002000A900A9870
:10353000FFE7FFE70020099043F63000C4F20200E5
:10354000016841F004010160006800F00400099086
:103550000998FFE7FFE70020089043F63000C4F227
:103560000200016841F008010160006800F00800F5
:1035700008900898FFE741F20000C4F202000290B0
:103580006821019100220592FEF7C6FA059A41F2E0
:103590000040C4F20200069040F282310391FEF72F
:1035A000BBFA019A029805990D92012204920E929B
:1035B0000F9110910DA90791FEF7B6F8DDF80CC038
:1035C000049B059A06980799CDF834C00E930F9284
:1035D0001092FEF7A9F812B080BD000080B582B04D
:1035E00040F2BC00C2F20000019045F20001C4F2BA
:1035F000000101604FF4E131416000218160C16050
:1036000001610C2242618161C161FFF7A9FA18B121
:10361000FFE7FDF7C7FFFFE702B080BD80B582B0CE
:1036200040F27800C2F20000019044F60001C4F2BA
:10363000000101604FF4E131416000218160C1600F
:1036400001610C2242618161C161FFF789FA18B101
:10365000FFE7FDF7A7FFFFE702B080BDFFE7FEE74A
:10366000FFE7FEE788B0079006910592079800F003
:10367000070004900498C0F10700052803D3FFE772
:103680000420019004E00498C0F107000190FFE7D6
:103690000198039004980430062803D8FFE700201F
:1036A000009003E0049803380090FFE70098029030
:1036B00006980399012202FA01F101390840029BA0
:1036C000984005999A40013A1140084308B0704764
:1036D000704700007047000080B582B000900098ED
:1036E0000138B0F1807F03D3FFE70120019019E09A
:1036F000009801384EF21401CEF2000108604FF03C
:10370000FF300F2100F014FB4EF21801CEF2000141
:10371000002008604EF21002CEF200020721116074
:103720000190FFE7019802B080BD000080B5FEF770
:1037300011FA80BD80B594B008A83021FCF7A0FE36
:10374000002007900690059004900390FFE700206A
:10375000029043F64000C4F20200016841F080513B
:103760000160006800F0805002900298FFE7FFE7D8
:103770000020019047F20000C4F20000016801221D
:1037800062F38F310160006800F4404001900198BD
:10379000FFE70220089001200B9010200C900020E1
:1037A0000E9008A8FEF75AFC18B1FFE7FDF7FAFEE5
:1037B000FFE70F20039000210491059106910791E6
:1037C00003A8FEF77BFA18B1FFE7FDF7EBFEFFE772
:1037D00014B080BD4EF68851CEF20001086840F466
:1037E000700008607047000080B540F2BC00C2F273
:1037F0000000FEF7A5FF80BD80B582B00190019862
:10380000806B009000990020C8850099C8840098BA
:10381000FEF792FF02B080BD84B00390FFE7FFE7A0
:103820000398006850E8030F20F490700290FFE7BF
:1038300002990398026842E803100028F0D1FFE7DC
:10384000FFE7FFE7FFE70398006850E8050F20F067
:1038500001000190FFE701990398026842E8051012
:103860000028F0D1FFE7FFE70398006B012814D18F
:10387000FFE7FFE7FFE70398006850E8030F20F039
:1038800010000090FFE700990398026842E80310D7
:103890000028F0D1FFE7FFE7FFE70399202081F838
:1038A0003E0003990020086304B0704780B582B0E1
:1038B000019001980168C86820F04000C860019933
:1038C000202081F83D000198FFF714FB002002B092
:1038D00080BD000080B586B00490049890F83E004A
:1038E000222840F0A180FFE704988068B0F5805F4F
:1038F00015D1FFE70498006988B9FFE7002003901D
:103900000498806A02900498006840686FF35F2012
:10391000029908800499886A0230886225E0049838
:10392000806A03900020029004988068B0F5805F60
:1039300008D0FFE70498806850B9FFE70498006951
:1039400030B9FFE70498006840680399087007E001
:1039500004980068406800F07F0003990870FFE752
:103960000499886A01308862FFE70499C88D01389C
:10397000C8850004002853D1FFE704980168C8688F
:1039800020F02000C86004980168C86820F48070A6
:10399000C86004980168486920F0010048610499F2
:1039A000202081F83E000498006B012830D1FFE709
:1039B000049900200863FFE7FFE70498006850E8D7
:1039C000030F20F010000190FFE7019904980268AE
:1039D00042E803100028F0D1FFE7FFE704980068F1
:1039E0000068C00600280ED5FFE7FFE70020009022
:1039F000049800680068009004980068406800908F
:103A00000098FFE7FFE70498818DFEF78FFE03E043
:103A10000498FFF76BFAFFE700208DF8170007E026
:103A200000208DF8170003E002208DF81700FFE753
:103A30009DF8170006B080BD80B586B0059005984A
:103A40000068006920F44050059A1168D26810435C
:103A50000861059988680B694A69C9691843104368
:103A60000843049005980068C06849F20C618843D7
:103A70000499084305990968C86005980068406979
:103A800020F44070059A11689269104348610598C6
:103A9000006841F20001C4F20101884209D0FFE749
:103AA0000598006841F20041C4F20101884204D146
:103AB000FFE7FEF74DFA039003E0FEF737FA0390B5
:103AC000FFE70598C069B0F5004F29D1FFE70398DB
:103AD0001921A0FB0101059A1368029353685A004B
:103AE000DB0FFCF73FFC0299864648F21F53C5F2F4
:103AF000EB13AEFB0320420910014FF0640C02FBF4
:103B00001CEC322202EBCC02A2FB0332F82303EAC4
:103B1000521300EB4300C2F342121044886026E0C7
:103B200003981921A0FB0101059A136801935368BA
:103B30009A009B0FFCF716FC0199844648F21F522D
:103B4000C5F2EB12ACFB02304309642003FB10CC3E
:103B5000322000EB0C10A0FB0202F02000EA521011
:103B600000EB0310C2F3431210448860FFE706B075
:103B700080BD000083B00190019890F83D0021289D
:103B80003AD1FFE701988068B0F5805F13D1FFE775
:103B90000198006978B9FFE70198006A00900098E1
:103BA00000886FF35F200199096848600199086AED
:103BB0000230086208E0019A106A411C1162007824
:103BC000019909684860FFE70199C88C0138C884E9
:103BD000000468B9FFE701980168C86820F0800018
:103BE000C86001980168C86840F04000C860FFE7FD
:103BF00000208DF80B0003E002208DF80B00FFE79A
:103C00009DF80B0003B0704780B588B0DDF828C080
:103C1000069005918DF813200393FFE7069800683E
:103C2000006805990840401AB0FA80F040099DF8F4
:103C30001310884249D1FFE70A980130002843D089
:103C4000FFE70A9840B1FFE7FDF77EFF0399401AAE
:103C50000A99884237D9FFE7FFE7FFE7069800682F
:103C600050E8030F20F4D0700290FFE70299069805
:103C7000026842E803100028F0D1FFE7FFE7FFE702
:103C8000FFE70698006850E8050F20F0010001905A
:103C9000FFE701990698026842E805100028F0D174
:103CA000FFE7FFE70699202081F83D00069981F89B
:103CB0003E00FFE70699002081F83C00FFE7032063
:103CC0008DF81F0005E0FFE7A8E700208DF81F0032
:103CD000FFE79DF81F0008B080BD000080B540F2EE
:103CE0007800C2F20000FEF72BFD80BDFFE7FEE783
:103CF00081B08DF803009DF9030000280ED4FFE782
:103D00009DF9031001F01F02012090404A094EF274
:103D10000011CEF2000141F82200FFE701B0704728
:103D20004EF60C50CEF200000068C0F3022070473F
:103D300082B08DF8070000919DF9070000280AD491
:103D4000FFE7009800019DF907104EF20042CEF205
:103D5000000288540BE0009800019DF8071001F064
:103D60000F014EF61452CEF200028854FFE702B063
:103D70007047000083B00290029800F007000090A6
:103D80004EF60C51CEF200010868019001984FF6F2
:103D9000FF02104001900198009A40EA02200022A0
:103DA000C0F2FA52104301900198086003B07047C6
:103DB00080B584B000200390FDF7DAFEFFF7BAFC6F
:103DC000FFF77CFBFFF70AFCFFF728FCFFF770FB0F
:103DD00044F6AE00C0F60000FFF722FBFFF7A0F9A3
:103DE000FFE7FFF79DF940F27001C2F20001029176
:103DF0000020086040F2BC00C2F2000040F27401F2
:103E0000C2F20001019102224FF4FA63FEF7BCFFF7
:103E1000019902980A78120200EE102AB8EEC00A40
:103E200080ED000A90ED000A497801EE101AB8EE14
:103E3000C11A30EE010A80ED000A90ED000AB2EEE0
:103E4000041A80EE010A80ED000A90ED000AFFF7E7
:103E5000FFFA4FF42F70FDF745FCC2E75FEA400C14
:103E600008BF91F0000F4FEA8C234FEAC12243EACA
:103E700051514FEA1C5018BF00F5F0404FEA300096
:103E800018BF41F000415FEA6C5C00F02980BCF192
:103E9000FF3F08BF40F080407047130C06BF12047C
:103EA0004FF0100C4FF0000C130E04BF12020CF177
:103EB000080C130F04BF12010CF1040C930F04BF84
:103EC00092000CF1020CD30F04BF52000CF1010C54
:103ED00011464FF00002A0F11F00A0EB0C0070474C
:103EE00011F0004F08BF704731F000413FF4D5AFEB
:103EF0000B0C06BF09044FF0100C4FF0000C0B0E1A
:103F000004BF09020CF1080C0B0F04BF09010CF1EE
:103F1000040C8B0F04BF89000CF1020CCB0F04BF03
:103F200049000CF1010CCCF1200322FA03F341EA21
:103F3000030102FA0CF2A0EB0C0000F10100704743
:103F400023F07F4720F07F4C80EA030000F0004020
:103F5000ACEB070303F57C5303F1FF032DE9804924
:103F600009B44FEA144324EA03484FEA154B25EA03
:103F70000B4E0FF2042606EB13273E7803FB066771
:103F8000C7F5000707FB06F64FEAD64606F102061C
:103F90004FEA543707FB066CCCF1005C4FEA1C4734
:103FA0002CEA074C0CFB06F507FB06F404EB154660
:103FB0004FEA961649085FEA320234BF00204FF0FC
:103FC00000404FEAD13706FB07FC4FEA1C4C0CFBC4
:103FD0000BF7D21B03FB0CF761EB07010CFB0EF791
:103FE000B0EB074072EB17420CFB08F734BFA2EBB3
:103FF0000742B2EB074261EB17414FEA0C444FEA2C
:10400000910706FB07FC4FEA1C4C0CFB0BF7B0EBCF
:10401000C74072EB573203FB0CF734BFA2EBC74229
:10402000B2EBC74261EB57310CFB0EF7B0EBC700A8
:1040300072EB57720CFB08F734BFA2EBC702B2EB6E
:10404000C70261EB57714FEA816141EA92114FEA71
:10405000826242EA90124FEA806004EBCC04039F34
:104060004FEAD13706FB07FC4FEA1C4C0CFB0BF761
:10407000D21B03FB0CF761EB07010CFB0EF7B0EB57
:10408000074072EB17420CFB08F734BFA2EB074264
:10409000B2EB074261EB17414FEA8C5504EB9C24CD
:1040A0004FEA910706FB07FC4FEA1C4C0CFB0BF791
:1040B000B0EBC74072EB573203FB0CF734BFA2EBF7
:1040C000C742B2EBC74261EB57310CFB0EF7B0EBC6
:1040D000C70072EB57720CFB08F734BFA2EBC702A4
:1040E000B2EBC70261EB57714FEA816141EA92116D
:1040F0004FEA826242EA90124FEA806015EB4C254B
:1041000044F100044FEAD13706FB07FC4FEA1C4C90
:104110000CFB0BF7D21B03FB0CF761EB07010CFB4D
:104120000EF7B0EB074072EB17420CFB08F734BFF9
:10413000A2EB0742B2EB074261EB17414FEA813134
:1041400041EA92414FEA823242EA90424FEA80309D
:104150004FEA0C7615EB1C1544F1000448EA0343C2
:104160004EEA0B484FF0000EB2EB080C71EB030760
:1041700024BF624639464EEB0E0E4FF0000B00187E
:10418000524149414BEB0B0BB2EB080C71EB0307AF
:104190007BF1000B24BF624639464EEB0E0E4FF00A
:1041A000000B0018524149414BEB0B0BB2EB080CD2
:1041B00071EB03077BF1000B24BF624639464EEBDF
:1041C0000E0E51EA020718BF46F0010616EB0E76F6
:1041D00055F1000254F1000103D5BDE88901BDE8A5
:1041E0000088BDE88901BDE80048B619524141EB9D
:1041F0000101A3F10103704780807F7E7D7C7B7A83
:104200007978777676757473727171706F6E6E6D82
:104210006C6C6B6A6A696868676666656464636328
:1042200062616160605F5F5E5E5D5D5C5C5B5B5AAE
:104230005A5959585857575656555555545453531B
:1042400052525251515050504F4F4F4E4E4D4D4D76
:104250004C4C4C4B4B4B4A4A4A49494948484847C1
:1042600047474746464645454544444444434343FF
:1042700043424242424141419C46002B30D47700A8
:104280002BD04FEA37071CB503B44FF010004FF0A6
:104290001001BAF1000F06D0BCF1000FDCBF40F0F6
:1042A000080040F008014FF000000FBCBDE81040CE
:1042B0000BF1010BBBF1010F08BF5FEA170722BF2B
:1042C00012F1010211F101014FF0004143F100032D
:1042D00000F0004043EA00007047F9D35708D0E7E8
:1042E00046EA06464FEA164613F1400F1FDD13F16A
:1042F000200FDFBF16430A46002120335B42BED0A9
:10430000C3F1200746EA06464FEA164602FA07F7C7
:1043100046EA070622FA03F2C3F1200701FA07F77B
:1043200042EA070221FA03F14FF00003A7E746EA49
:10433000020646EA06464FEA164646EA0106BCBFB2
:1043400046EA0646360C4FF000034FF000024FF0ED
:10435000000194E72DE9804C70B49A46934691E8A9
:10436000380007C831EA400C48BF34EA430C03D593
:10437000FFF7E6FDFFF780FFF0BCBDE8008C2DE9FC
:10438000804C70B49A46934691E8380007C810F004
:10439000804F08BF13F0804F03D100F005F8FFF7FE
:1043A0006BFFF0BCBDE8008C20F07F4723F07F4C12
:1043B00080EA030000F0004007EB0C03A3F57C53F8
:1043C000A3F1FE0392F0000F00F0B38095F0000F10
:1043D00000F077802DE901494FEA114021EA0048B9
:1043E0004FEA144624EA064700FB06FC08FB06F6E3
:1043F00007FB08F818EB06484CEB164C00FB07F7D8
:1044000018EB07484CEB17404FEA124B22EA0B4ED1
:104410004FEA154625EA06470BFB06FC0EFB06F69F
:1044200007FB0EFE1EEB064E4CEB164C0BFB07F784
:104430001EEB074E4CEB174B18EB0B0840F100003E
:1044400018EB0E0B58EB000840F100008F1A4FF0EC
:1044500000014FF000063CBFC943661B14BFB5EB1B
:10446000040C00213CBFC943F61B4FEA174427EA5E
:1044700004454FEA1C472CEA074C04FB076205FB86
:1044800007F70CFB05F616EB074642EB174204FB59
:104490000CFC16EB0C4642EB1C421BEB060658EBE1
:1044A000020241414EEA8E0E46EA9E0601D5BDE863
:1044B0000189B619524141EB0101A3F10103BDE8A5
:1044C00001894FEA144524EA05464FEA114721EADB
:1044D000074C05FB07F406FB07F70CFB06F111EB95
:1044E000074144EB174405FB0CFC11EB0C4144EB7A
:1044F0001C444FEA124722EA074C05FB07F206FB71
:1045000007F70CFB06F616EB074642EB174205FBD6
:104510000CFC16EB0C4642EB1C456A1854F10001EA
:1045200048BF7047B619524141EB0101A3F10103A5
:10453000704795F0000F37D04FEA114221EA02464A
:104540004FEA144724EA074C02FB07F106FB07F782
:104550000CFB06F414EB074441EB174102FB0CFC87
:1045600014EB0C4441EB1C414FEA154725EA074C7C
:1045700002FB07F506FB07F70CFB06F616EB0746F2
:1045800045EB174502FB0CFC16EB0C4645EB1C42B9
:10459000121951F1000148BF7047B619524141EB61
:1045A0000101A3F1010370474FEA144524EA0546CF
:1045B0004FEA114721EA074C05FB07F106FB07F715
:1045C0000CFB06F212EB074241EB174105FB0CFC1A
:1045D00012EB0C4251EB1C414FF0000648BF7047F4
:1045E000921841EB0101A3F10103704703B4019854
:1045F0004100009850EAC12018BF04204A0D18BF9E
:1046000040F0010040F2FF72B2EB515F08BF40F092
:104610000200012808BF052002B0704730380A2880
:1046200001D20120704700207047000010B500291A
:104630000AD00878002807D005487844FCF768FFBE
:10464000002801D0002010BD0248784410BD0000B1
:10465000A20200009A02000010B500290AD00878D2
:10466000002807D005487844FCF752FF002801D005
:10467000002010BD0248784410BD000092020000E6
:104680008A0200000808A0F500114FEA31017047C6
:1046900043004FEAD30C4FEA3C0C43401FBF400796
:1046A0000CF1605113F0FE4F70471CF0006F03D106
:1046B0000CF00041002070470CF0004343EA5070BA
:1046C00040EACC0010B500F00EF800BF00000092E8
:1046D0004FEA0001FFF7D6BF4FF00041A1F50021DE
:1046E0004FF0000070470EF1020E2EF0030E5EF840
:1046F000044B244204D44FEA4102B2F17F4F11D857
:104700004FEA4003B3F17F4F0CD80ED14FEAD07C73
:104710000CEB4C0C0CF1020CB2F17F4F08BF4CEBD0
:10472000D17C04E04FF0080C01E04FEAD17C0CEBA7
:104730004C0324FA03F404F00704B4F1040C06D289
:104740000EEB840CBDE810404CF0010C6047DFE834
:104750000CF0070802024FF00040A0F5800010BDE9
:104760000846420018BFD2F1807288BF00F00040B6
:1047700010BDF1EE100A4FF6FF71C0F2C03120EA11
:10478000010040F04070E1EE100A7047FCF7CABA31
:10479000FCF7FEBB000000000000000030313233A7
:1047A0003435363738394142434445464030580065
:1047B0003031323334353637383961626364656697
:1047C00040307800040000080000000000000002F3
:1047D000000100001030313233343536373839615A
:1047E0006263646566787000303132333435363751
:1047F00038394142434445465850000002400000C9
:10480000000000A00000000005400000000000C8FB
:10481000000000000C4000000000409C0000000070
:10482000194000000020BCBE000000003440000021
:10483000BFC91B8E00000004B5400000504BCFD014
:104840006607E2CF010000006C4100003E8251AAE1
:10485000DFEEA73401000000D9420000DCB5A0E281
:104860003A301F97FFFFFFFFB4450000FD25A0C8A9
:10487000E9A3C14FFFFFFFFFFF3F000000000080E2
:1048800000000000FF3F000000000080000000006A
:1048900000000000000000000102030406070809F0
:1048A0000000000001020304256400256600496E33
:1048B000697469616C69736564000000084A0008E6
:1048C000000000201000000010020008184A000834
:1048D00010000020F8060000300200081C00000054
:1048E00043000000F8FFFFFF0C0000000E00000076
:1048F0000F0000002E000000100100004300000027
:10490000F8FFFFFF004040404040404040404141F0
:104910004141414040404040404040404040404094
:10492000404040404005020202020202020202022E
:10493000020202020220202020202020202020022B
:1049400002020202020290909090909010101010BB
:104950001010101010101010101010101010101057
:1049600002020202020288888888888808080808EB
:1049700008080808080808080808080808080808B7
:1049800002020202400000000000000000000000DF
:104990000000000000000000000000000000000017
:1049A0000000000000000000000000000000000007
:1049B00000000000000000000000000000000000F7
:1049C00000000000000000000000000000000000E7
:1049D00000000000000000000000000000000000D7
:1049E00000000000000000000000000000000000C7
:1049F00000000000000000000000000000000000B7
:104A000000000000000000000024F400010000008D
:084A100010000000000000008E
:04000005080001AD41
:00000001FF
