:020000040800F2
:10000000B8060020790200088D1C0008FD150008C4
:10001000891C000871040008511F0008000000003E
:10002000000000000000000000000000011D0008AA
:100030007504000800000000FD1C0008591D0008A0
:10004000930200089302000893020008930200083C
:10005000930200089302000893020008930200082C
:10006000930200089302000893020008930200081C
:10007000930200089302000893020008930200080C
:1000800093020008930200089302000893020008FC
:1000900093020008930200089302000893020008EC
:1000A00093020008930200089302000893020008DC
:1000B00093020008930200089302000893020008CC
:1000C00093020008930200089302000893020008BC
:1000D00093020008930200089302000893020008AC
:1000E000930200089302000893020008930200089C
:1000F000930200089302000893020008930200088C
:10010000930200089302000893020008930200087B
:10011000930200089302000893020008930200086B
:10012000930200089302000893020008930200085B
:10013000930200089302000893020008930200084B
:10014000930200089302000893020008930200083B
:10015000930200089302000893020008930200082B
:10016000930200089302000893020008930200081B
:1001700093020008930200089302000800000000A8
:1001800093020008930200089302000893020008FB
:1001900093020008930200089302000893020008EB
:1001A00093020008930200089302000800F002F88E
:1001B00000F052F814A696E8000CB244B344DA45B5
:1001C00001D100F049F8BAE80F000FA696E8300018
:1001D000A5EB040504EB0607AAEB0704A7F101074A
:1001E0004FEA15154FEA3414A4F10104AC4201D3CF
:1001F00000F032F813F0010F18BFFB1A43F00103AF
:1002000000F001F8DBE71847481E0000681E0000F8
:10021000103A24BF78C878C1FAD8520724BF30C832
:1002200030C144BF04680C60704700007047000094
:100230000023002400250026103A28BF78C1FBD8EF
:10024000520728BF30C148BF0B6070471FB501F08F
:10025000DFFE1FBD10B510BD00F0D0F81146FFF74E
:10026000F5FF01F0BFFE00F0EEF803B4FFF7F2FF78
:1002700003BC00F0F5F80000094880470948004732
:10028000FEE7FEE7FEE7FEE7FEE7FEE7FEE7FEE746
:10029000FEE7FEE704480549054A064B70470000A3
:1002A000011E0008AD010008B8000020B8060020BB
:1002B000B8020020B802002053EA020C00F0698066
:1002C0002DE9F04B4FF00006002B1FBFB3FA83F56A
:1002D00003FA05F424FA05F65E4012BF1643B2FA9B
:1002E00082F502FA05F4C5F120051EBF22FA05FCCD
:1002F00044EA0C04203556EA044C4FEA144418BF73
:10030000641C4FF000084FF00009904271EB030CA1
:1003100039D3002919BFB1FA81F701FA07F6B0FA0B
:1003200080F700FA07F6C7F120071EBF20FA07FC86
:1003300046EA0C062037B6FBF4FCA7EB0507103F96
:1003400007F01F0BCBF120062CFA06F60CFA0BFB7C
:1003500044BFB3460026202FA4BF5E464FF0000BDB
:100360005BEA060C08BF4FF0010B19EB0B0948EBD9
:100370000608ABFB027C06FB02CC0BFB03CCC01BCC
:1003800071EB0C01C1E70B46024641464846BDE809
:10039000F08B13B5084318BF4FF0FF300146AFF3A1
:1003A0000080BDE81C4070474FF0000200B51346C6
:1003B00094469646203922BFA0E80C50A0E80C5085
:1003C000B1F12001BFF4F7AF090728BFA0E80C5036
:1003D00048BF0CC05DF804EB890028BF40F8042B2F
:1003E00008BF704748BF20F8022B11F0804F18BF9C
:1003F00000F8012B7047704770477047754600F052
:100400002BF8AE4605006946534620F007008546A6
:1004100018B020B5FFF73EFFBDE820404FF00006C2
:100420004FF000074FF000084FF0000BAC46ACE86F
:10043000C009ACE8C009ACE8C009ACE8C00921F0CB
:1004400007018D46704710B50446AFF30080204683
:10045000BDE81040FFF709BF0048704710000020BA
:1004600001491820ABBEFEE72600020070470000DD
:10047000FFE7FEE77047000081B0EFF3108072B62F
:100480000090FFE7FEE7000090B00F900E91002073
:100490000C900B900A900D90FFE70D980F2800F23A
:1004A000E881FFE70D99012088400C900E980068C4
:1004B0000C9908400B900B980C99884240F0D4811D
:1004C000FFE70E98406800F00300012807D0FFE71F
:1004D0000E98406800F0030002282FD1FFE70F9824
:1004E00080680A900D984100032000FA01F10A98F3
:1004F00088430A900E98C0680D99490000FA01F1EE
:100500000A9808430A900A980F9988600F984068E3
:100510000A900D99012000FA01F10A9888430A9087
:100520000E984068C0F300100D9900FA01F10A9886
:1005300008430A900A980F994860FFE70E984068B0
:1005400000F00300032818D0FFE70F98C0680A9056
:100550000D984100032000FA01F10A9888430A909F
:100560000E9880680D99490000FA01F10A98084335
:100570000A900A980F99C860FFE70E98406800F04B
:100580000300022826D1FFE70F980D996FF00302B0
:1005900002EA51010844006A0A900D9800F0070031
:1005A00081000F2000FA01F10A9888430A900E9802
:1005B00000690D9901F00701890000FA01F10A981C
:1005C00008430A900A980F990D9B02EA53021144BE
:1005D0000862FFE70F9800680A900D984100032019
:1005E00000FA01F10A9888430A900E98406800F0DA
:1005F00003000D99490000FA01F10A9808430A9096
:100600000A980F9908600E9880798007002800F0FA
:100610002A81FFE7FFE70020099043F64400C4F277
:100620000200016841F480410160006800F48040EC
:1006300009900998FFE70D9820F0030043F60801A0
:10064000C4F2010140580A900D9800F003008100A7
:100650000F2000FA01F10A9888430A900F980021B0
:10066000C4F20201884203D1FFE7002008907AE03B
:100670000F9840F20041C4F20201884203D1FFE723
:10068000012007906CE00F9840F60001C4F20201CF
:10069000884203D1FFE7022006905EE00F9840F603
:1006A0000041C4F20201884203D1FFE70320059014
:1006B00050E00F9841F20001C4F20201884203D1D8
:1006C000FFE70420049042E00F9841F20041C4F299
:1006D0000201884203D1FFE70520039034E00F9820
:1006E00041F60001C4F20201884203D1FFE706206F
:1006F000029026E00F9841F60041C4F202018842C0
:1007000003D1FFE70720019018E00F9842F20001A3
:10071000C4F20201884203D1FFE7082000900AE0FA
:100720000F9942F20042C4F202020A20914208BF2D
:1007300009200090FFE700980190FFE701980290E0
:10074000FFE702980390FFE703980490FFE70498FF
:100750000590FFE705980690FFE706980790FFE7EA
:1007600007980890FFE70898C0B20D9901F00301BF
:10077000890000FA01F10A9808430A900A980D9935
:1007800021F0030143F60802C4F20102885043F647
:100790000840C4F2010000680A900B990A98884347
:1007A0000A900E988079C006002805D5FFE70B99BE
:1007B0000A9808430A90FFE70A9843F60841C4F2F2
:1007C0000101086043F60C40C4F2010000680A9081
:1007D0000B990A9888430A900E9880798006002821
:1007E00005D5FFE70B990A9808430A90FFE70A9896
:1007F00043F60C41C4F20101086043F60440C4F220
:10080000010000680A900B990A9888430A900E9894
:1008100080798007002805D5FFE70B990A980843DF
:100820000A90FFE70A9843F60441C4F20101086008
:1008300043F60040C4F2010000680A900B990A9840
:1008400088430A900E988079C00728B1FFE70B997A
:100850000A9808430A90FFE70A9843F60041C4F259
:1008600001010860FFE7FFE7FFE70D9801300D90F9
:1008700013E610B07047000082B00190ADF802108E
:100880008DF801209DF8010028B1FFE7BDF80200B6
:100890000199886105E0BDF80200000401998861B2
:1008A000FFE702B07047000040F2B400C2F200005F
:1008B0000068704740F20400C2F20000027840F283
:1008C000B401C2F2000108681044086070470000DB
:1008D00080B543F60041C4F20201086840F400709C
:1008E0000860086840F480600860086840F4807020
:1008F0000860032000F080F80F2000F005F800F0F9
:100900003BF8002080BD000080B582B0009040F22E
:100910000000C2F20000006840F20401C2F20001CF
:100920000A784FF47A71B1FBF2F1B0FBF1F000F00C
:100930009BFD20B1FFE701208DF8070018E000982B
:100940000F280DD8FFE700994FF0FF30002200F08C
:1009500039F8009840F20801C2F20001086003E093
:1009600001208DF8070003E000208DF80700FFE765
:100970009DF8070002B080BD82B0FFE70020019023
:1009800043F64400C4F20200016841F48041016072
:10099000006800F4804001900198FFE7FFE7002025
:1009A000009043F64000C4F20200016841F080511B
:1009B0000160006800F0805000900098FFE702B0EE
:1009C0007047000080B586B08DF81700049103923F
:1009D0000020029001F0BEFA02909DF917000190EC
:1009E00002980499039A01F053F90146019801F025
:1009F000B9FA06B080BD000080B582B001900198C0
:100A000001F0D2FA02B080BD80B584B002900191AD
:100A1000029820B9FFE701208DF80F0021E101982D
:100A200043F60041C4F20201096801F00F01884257
:100A300012D9FFE7019943F60040C4F202000170A9
:100A4000006800F00F000199884204D0FFE7012000
:100A50008DF80F0005E1FFE7029800788007002875
:100A60002AD5FFE7029800784007002809D5FFE75C
:100A700043F60801C4F20201086840F4E05008603F
:100A8000FFE7029800780007002809D5FFE743F642
:100A90000801C4F20201086840F460400860FFE702
:100AA00043F60801C4F20201086820F0F000029A3F
:100AB000926810430860FFE702980078C00700289A
:100AC0006ED0FFE702984068012811D1FFE743F696
:100AD0000000C4F20200006800F400310020B0EB16
:100AE000514F04D1FFE701208DF80F00B9E02CE051
:100AF00002984068022805D0FFE702984068032862
:100B000011D1FFE743F60000C4F20200006800F0D4
:100B100000710020B0EB516F04D1FFE701208DF888
:100B20000F009EE010E043F60000C4F202000068EF
:100B300000F002010020B0EB510F04D1FFE70120CB
:100B40008DF80F008DE0FFE7FFE743F60801C4F2E0
:100B50000201086820F00300029A526810430860FE
:100B6000FFF7A2FE0090FFE743F60800C4F2020080
:100B7000006800F00C0002994968B0EB810F0ED0BC
:100B8000FFE7FFF791FE0099401A41F28931884250
:100B900004D3FFE703208DF80F0062E0E4E7FFE7EE
:100BA000019843F60041C4F20201096801F00F0107
:100BB000884212D2FFE7019943F60040C4F20200D6
:100BC0000170006800F00F000199884204D0FFE72F
:100BD00001208DF80F0044E0FFE7029800784007FD
:100BE00000280CD5FFE743F60801C4F202010868AB
:100BF00020F4E050029AD26810430860FFE70298A0
:100C00000078000700280DD5FFE743F60801C4F27D
:100C10000201086820F46040029A126940EAC200AA
:100C20000860FFE700F04CF843F60801C4F2020147
:100C30000968C9B20A0942F22A01C0F60001895CBA
:100C4000C84040F20001C2F20001086040F2080012
:100C5000C2F200000068FFF757FE00208DF80F0079
:100C6000FFE79DF80F0004B080BD000040F20000D7
:100C7000C2F200000068704780B5FFF7F7FF43F647
:100C80000801C4F202010968C1F3822242F23A016A
:100C9000C0F60001895CC84080BD000080B5FFF748
:100CA000E5FF43F60801C4F20201096889B24A0B64
:100CB00042F23A01C0F60001895CC84080BD0000E4
:100CC00080B586B00020059004900390029043F612
:100CD0000800C4F20200006800F00C000146019117
:100CE00040B1FFE7019804280AD0FFE701980828DF
:100CF0000CD04FE042F20040C0F2F40002904FE00E
:100D000047F64000C0F27D10029049E043F604002F
:100D1000C4F20200016801F03F0105910068400241
:100D2000002813D5FFE743F60400C4F20200006870
:100D3000C0F3881047F64001C0F27D11A0FB01010D
:100D4000059A0023FFF7B8FA049012E043F6040076
:100D5000C4F202000068C0F3881042F20041C0F201
:100D6000F401A0FB0101059A0023FFF7A5FA049006
:100D7000FFE743F60400C4F20200006800F44031CB
:100D8000022000EBD130039004980399B0FBF1F0FE
:100D9000029005E042F20040C0F2F4000290FFE74A
:100DA000029806B080BD000080B586B0049004981B
:100DB00020B9FFE701208DF8170050E30498007870
:100DC000C007002800F0A580FFE743F60800C4F242
:100DD0000200006800F00C00042813D0FFE743F67F
:100DE0000800C4F20200006800F00C0008281ED1C0
:100DF000FFE743F60400C4F2020000684002002846
:100E000015D5FFE743F60000C4F20200006800F4C5
:100E100000310020B0EB514F08D0FFE70498406844
:100E200020B9FFE701208DF8170018E370E0FFE715
:100E300004984068B0F5803F09D1FFE743F6000110
:100E4000C4F20201086840F48030086020E0049891
:100E50004068B0F5A02F0DD1FFE743F60001C4F2C2
:100E60000201086840F480200860086840F480307F
:100E700008600CE043F60001C4F20201086820F4A7
:100E800080300860086820F480200860FFE7FFE7F2
:100E9000FFE704984068E8B1FFE7FFF705FD03901E
:100EA000FFE743F60000C4F20200006800F40031DE
:100EB0000020B0EB514F0CD1FFE7FFF7F5FC039991
:100EC000401A652804D3FFE703208DF81700C6E217
:100ED000E7E71CE0FFF7E8FC0390FFE743F60000BC
:100EE000C4F20200006800F400310020B0EB514F62
:100EF0000CD0FFE7FFF7D8FC0399401A652804D30C
:100F0000FFE703208DF81700A9E2E7E7FFE7FFE717
:100F1000FFE7049800788007002840F19680FFE7FB
:100F200043F60800C4F20200006810F00C0F13D062
:100F3000FFE743F60800C4F20200006800F00C006E
:100F400008282CD1FFE743F60400C4F20200006831
:100F50004002002823D4FFE743F60000C4F2020059
:100F6000006800F002010020B0EB510F09D0FFE74C
:100F70000498C068012804D0FFE701208DF817000D
:100F80006DE243F60001C4F20201086820F0F800A7
:100F9000049A126940EAC2000860FFE754E004982E
:100FA000C06870B3FFE70021C4F247210120086048
:100FB000FFF77AFC0390FFE743F60000C4F202005B
:100FC000006800F002010020B0EB510F0CD1FFE7E8
:100FD000FFF76AFC0399401A032804D3FFE70320B4
:100FE0008DF817003BE2E7E743F60001C4F2020187
:100FF000086820F0F800049A126940EAC20008600C
:1010000021E00021C4F2472100200860FFF74CFCDA
:101010000390FFE743F60000C4F20200006800F00E
:1010200002010020B0EB510F0CD0FFE7FFF73CFCB2
:101030000399401A032804D3FFE703208DF8170013
:101040000DE2E7E7FFE7FFE7FFE704980078000716
:1010500000284BD5FFE70498406918B3FFE740F636
:101060008061C4F2472101200860FFF71DFC039056
:10107000FFE743F67400C4F20200006800F00201CA
:101080000020B0EB510F0CD1FFE7FFF70DFC0399E7
:10109000401A032804D3FFE703208DF81700DEE190
:1010A000E7E722E040F68061C4F2472100200860B3
:1010B000FFF7FAFB0390FFE743F67400C4F2020067
:1010C000006800F002010020B0EB510F0CD0FFE7E8
:1010D000FFF7EAFB0399401A032804D3FFE7032034
:1010E0008DF81700BBE1E7E7FFE7FFE7049800781A
:1010F0004007002840F1CE80FFE700208DF8070070
:1011000043F64000C4F202000068C000002815D475
:10111000FFE7FFE70020009043F64000C4F2020022
:10112000016841F080510160006800F0805000903B
:101130000098FFE701208DF80700FFE747F2000065
:10114000C4F200000068C005002822D4FFE747F27F
:101150000001C4F20001086840F480700860FFF7E5
:10116000A3FB0390FFE747F20000C4F20000006811
:10117000C00500280CD4FFE7FFF796FB0399401A3F
:10118000032804D3FFE703208DF8170067E1EAE79F
:10119000FFE7FFE704988068012809D1FFE743F6DD
:1011A0007001C4F20201086840F0010008601FE00D
:1011B0000498806805280DD1FFE743F67001C4F25A
:1011C0000201086840F004000860086840F001006F
:1011D00008600CE043F67001C4F20201086820F0D8
:1011E00001000860086820F004000860FFE7FFE7DE
:1011F000FFE704988068F8B1FFE7FFF755FB03901D
:10120000FFE743F67000C4F20200006800F002013C
:101210000020B0EB510F0ED1FFE7FFF745FB03991C
:10122000401A41F28931884204D3FFE703208DF848
:10123000170014E1E5E71EE0FFF736FB0390FFE738
:1012400043F67000C4F20200006800F002010020C2
:10125000B0EB510F0ED0FFE7FFF726FB0399401AC2
:1012600041F28931884204D3FFE703208DF817004B
:10127000F5E0E5E7FFE79DF80700012809D1FFE762
:1012800043F64001C4F20201086820F08050086073
:10129000FFE7FFE704988069002800F0DC80FFE7A3
:1012A00043F60800C4F20200006800F00C000828B1
:1012B00000F08580FFE70498806902285CD1FFE791
:1012C0006021C4F2472100200860FFF7EDFA039087
:1012D000FFE743F60000C4F20200006800F000716E
:1012E0000020B0EB516F0CD0FFE7FFF7DDFA039958
:1012F000401A032804D3FFE703208DF81700AEE05F
:10130000E7E70499C869D1F820C04B6A8A6A40EAC5
:101310000C0040EA8310D2034FF6FF739A43A2F504
:1013200080321043C96A40EA016043F60401C4F206
:10133000020108606021C4F2472101200860FFF724
:10134000B3FA0390FFE743F60000C4F2020000681E
:1013500000F000710020B0EB516F0CD1FFE7FFF7F8
:10136000A3FA0399401A032804D3FFE703208DF85A
:10137000170074E0E7E721E06021C4F24721002074
:101380000860FFF791FA0390FFE743F60000C4F20C
:101390000200006800F000710020B0EB516F0CD02B
:1013A000FFE7FFF781FA0399401A032804D3FFE708
:1013B00003208DF8170052E0E7E7FFE74AE00498C2
:1013C0008069012804D1FFE701208DF8170046E06D
:1013D00043F60400C4F20200006802900498806999
:1013E000012831D0FFE7029800F480000499C96910
:1013F000884229D1FFE7029800F03F000499096A6A
:10140000884221D1FFE7029847F6C071084004994D
:10141000496AB0EB811F17D1FFE7029800F4403012
:101420000499896AC9034FF6FF729143A1F580318F
:10143000884209D1FFE7029800F070600499C96AF8
:10144000B0EB016F04D0FFE701208DF8170006E034
:10145000FFE7FFE7FFE700208DF81700FFE79DF8A3
:10146000170006B080BD000080B582B001900198E1
:1014700000F048FC02B080BD80B582B000900098BA
:1014800020B9FFE701208DF807003EE00098806951
:1014900008B1FFE700E0FFE7009890F83D0040B991
:1014A000FFE70099002081F83C00009800F032F836
:1014B000FFE70099242081F83D0000980168C86882
:1014C00020F40050C860009800F0A4FC0098016867
:1014D000086920F49040086100980168486920F08C
:1014E0002A00486100980168C86840F40050C8604C
:1014F000009900200864009A202182F83D10009A8B
:1015000082F83E108DF80700FFE79DF8070002B053
:1015100080BD000080B58EB00D9000200C900B9027
:101520000A90099008900D98006845F20001C4F2F5
:101530000001884260D1FFE7FFE70020079043F6F3
:101540004000C4F20200016841F4801101600068AB
:1015500000F4801007900798FFE7FFE7002006904F
:1015600043F63000C4F20200016841F0040101605A
:10157000006800F0040006900698FFE7FFE70020EF
:10158000059043F63000C4F20200016841F0080102
:101590000160006800F0080005900598FFE74FF42F
:1015A00080500890022000900990002001900A903D
:1015B000032002900B90082003900C9040F600004E
:1015C000C4F2020008A90491FEF75EFFDDF800C036
:1015D000019B029A039804994FF0040ECDF820E085
:1015E000CDF824C00A930B920C9040F60040C4F250
:1015F0000200FEF749FFFFE70EB080BDFFE7FEE700
:1016000080B582B0052000F087F8062000F0C6F80B
:1016100001200021009100F01DF8032000F0BEF829
:1016200000980190FFE70198B0F5FA6F05DCFFE73D
:10163000FFE7019801300190F5E7032000F06CF816
:10164000062000F069F80121084600F003F802B016
:1016500080BD000082B001900091009800F003006E
:1016600000900198052808D0FFE70198062804D0CB
:10167000FFE70198032815D1FFE7019841000320F7
:1016800000FA01F241F20001C4F20201086890433D
:1016900008600098019A520000FA02F208681043AC
:1016A000086036E00198082808D0FFE7019807286D
:1016B00004D0FFE70198092815D1FFE70198410000
:1016C000032000FA01F241F20041C4F2020108686D
:1016D000904308600098019A520000FA02F20868EC
:1016E0001043086014E001984100032000FA01F261
:1016F00041F60001C4F202010868904308600098B6
:10170000019A520000FA02F2086810430860FFE7ED
:10171000FFE702B07047000081B0009000980528F4
:1017200008D0FFE70098062804D0FFE700980328B8
:101730000CD1FFE70099012000FA01F241F21401F7
:10174000C4F2020108689043086024E00098082869
:1017500008D0FFE70098072804D0FFE70098092881
:101760000CD1FFE70099012000FA01F241F2144187
:10177000C4F202010868904308600BE00099012060
:1017800000FA01F241F61401C4F202010868904324
:101790000860FFE7FFE701B07047000081B00090EC
:1017A0000098052808D0FFE70098062804D0FFE736
:1017B000009803280CD1FFE70099012000FA01F2FC
:1017C00041F21401C4F2020108681043086024E0E9
:1017D0000098082808D0FFE70098072804D0FFE702
:1017E000009809280CD1FFE70099012000FA01F2C6
:1017F00041F21441C4F202010868104308600BE092
:101800000099012000FA01F241F61401C4F202012C
:10181000086810430860FFE7FFE701B07047000069
:1018200080B586B000200590FFE70598C82805DC44
:10183000FFE7FFE7059801300590F6E70520FFF781
:101840006BFF0320019000F013F9019800F010F9EC
:10185000019800F00DF90220049000F009F90498B5
:1018600000F006F90820029000F002F90020039031
:1018700000F0FEF8029800F0FBF8039800F0F8F88A
:10188000012000F0F5F8039800F0F2F8062000F0CF
:10189000EFF8039800F0ECF80F2000F0E9F8039857
:1018A00000F0E6F8049800F0E3F806B080BD000010
:1018B00080B582B043F63001C4F20201086840F0FE
:1018C00010000860086840F020000860086840F0D8
:1018D00040000860052001210191FFF7BBFE01993E
:1018E0000620FFF7B7FE01990320FFF7B3FE019929
:1018F0000820FFF7AFFE01990720FFF7ABFE019923
:101900000920FFF7A7FE01990846FFF7A3FE41F261
:101910000401C4F20201086820F07F00086041F26F
:101920000441C4F20201086820F07F00086041F61B
:101930000401C4F20201086820F07F00086002B0D0
:1019400080BD000080B582B08DF807000520FFF74C
:1019500025FF0620FFF7E0FE0320FFF71FFF08200A
:10196000FFF7DAFE0720FFF7D7FE0920FFF7D4FEC6
:101970000120FFF7D1FE9DF8070000F010010020C4
:10198000B0EB111F04D0FFE70820FFF707FFFFE7C8
:101990009DF8070000F020010020B0EB511F04D09B
:1019A000FFE70720FFF7FAFEFFE79DF8070000F0CA
:1019B00040010020B0EB911F04D0FFE70920FFF7A2
:1019C000EDFEFFE79DF807100020B0EBD11F04D01B
:1019D000FFE70120FFF7E2FEFFE703200090FFF79B
:1019E0009BFE0098FFF7DAFE0820FFF795FE072020
:1019F000FFF792FE0920FFF78FFE0120FFF78CFE14
:101A00009DF80700C00720B1FFE70820FFF7C6FEDA
:101A1000FFE79DF8070000F002010020B0EB510F36
:101A200004D0FFE70720FFF7B9FEFFE79DF80700A6
:101A300000F004010020B0EB910F04D0FFE7092073
:101A4000FFF7ACFEFFE79DF8070000F0080100205B
:101A5000B0EBD10F04D0FFE70120FFF79FFEFFE7B7
:101A60000320FFF759FEFFF7CBFD02B080BD000059
:101A700080B582B08DF807000620FFF74DFE0520E7
:101A8000FFF74AFE0320FFF789FE0820FFF744FE18
:101A90000720FFF741FE0920FFF73EFE0120FFF778
:101AA0003BFE9DF80700C00720B1FFE70820FFF7C5
:101AB00075FEFFE79DF8070000F002010020B0EB83
:101AC000510F04D0FFE70720FFF768FEFFE79DF8FE
:101AD000070000F004010020B0EB910F04D0FFE7F5
:101AE0000920FFF75BFEFFE79DF8070000F0080103
:101AF0000020B0EBD10F04D0FFE70120FFF74EFE2E
:101B0000FFE70320FFF708FEFFF77AFD02B080BD74
:101B100080B582B00190002000900090FFE701980E
:101B20000099405C50B1FFE701980099405CFFF7D5
:101B300009FFFFE7009801300090F0E702B080BD98
:101B400080B5FFF7B5FEFFF76BFE80BD80B590B0A6
:101B500000200F900E900D900C900B90FFE700204E
:101B60000A9043F63000C4F20200016841F010010F
:101B70000160006800F010000A900A98FFE7FFE794
:101B80000020099043F63000C4F20200016841F0E1
:101B900020010160006800F0200009900998FFE72B
:101BA000FFE70020089043F63000C4F2020001680D
:101BB00041F004010160006800F0040008900898FA
:101BC000FFE7FFE70020079043F63000C4F2020071
:101BD000016841F008010160006800F0080007900A
:101BE0000798FFE741F20000C4F20200019068216B
:101BF000009100220492FEF73FFE049A41F2004059
:101C0000C4F20200059040F282310291FEF734FEE8
:101C1000009A019804990B92012203920C920D9163
:101C20000E910BA90691FEF72FFCDDF808C0039B6F
:101C3000049A05980699CDF82CC00C930D920E923B
:101C4000FEF722FC10B080BD80B582B040F270007B
:101C5000C2F20000019045F20001C4F200010160EF
:101C60004FF4E131416000218160C16001610C22CB
:101C700042618161C161FFF7FFFB18B1FFE7FEF729
:101C8000FBFBFFE702B080BDFFE7FEE7FFE7FEE7F3
:101C900088B0079006910592079800F0070004901D
:101CA0000498C0F10700052803D3FFE70420019042
:101CB00004E00498C0F107000190FFE70198039049
:101CC00004980430062803D8FFE70020009003E0C2
:101CD000049803380090FFE7009802900698039953
:101CE000012202FA01F101390840029B984005994E
:101CF0009A40013A1140084308B07047704700000D
:101D00007047000080B582B0009000980138B0F1B3
:101D1000807F03D3FFE70120019019E0009801388C
:101D20004EF21401CEF2000108604FF0FF300F2197
:101D300000F018F94EF21801CEF200010020086000
:101D40004EF21002CEF20002072111600190FFE76F
:101D5000019802B080BD000080B5FEF7ABFD80BDEC
:101D600080B594B008A83021FEF71EFB0020079034
:101D70000690059004900390FFE70020029043F640
:101D80004000C4F20200016841F080510160006827
:101D900000F0805002900298FFE7FFE700200190DA
:101DA00047F20000C4F200000168012262F38F31A3
:101DB0000160006800F4404001900198FFE70220B4
:101DC000089001200B9010200C9000200E9008A885
:101DD000FEF7EAFF18B1FFE7FEF74EFBFFE70F2023
:101DE00003900021049105910691079103A8FEF745
:101DF0000BFE18B1FFE7FEF73FFBFFE714B080BD15
:101E00004EF68851CEF20001086840F47000086078
:101E10007047000080B586B005900598006800699D
:101E200020F44050059A1168D26810430861059962
:101E300088680B694A69C9691843104308430490CC
:101E400005980068C06849F20C618843049908430A
:101E500005990968C86005980068406920F44070D9
:101E6000059A11689269104348610598006841F22B
:101E70000001C4F20101884209D0FFE7059800681B
:101E800041F20041C4F20101884204D1FFE7FEF7AC
:101E900005FF039003E0FEF7EFFE0390FFE70598D0
:101EA000C069B0F5004F29D1FFE703981921A0FBC5
:101EB0000101059A1368029353685A00DB0FFEF77D
:101EC000FBF90299864648F21F53C5F2EB13AEFBAD
:101ED0000320420910014FF0640C02FB1CEC32227B
:101EE00002EBCC02A2FB0332F82303EA521300EB0D
:101EF0004300C2F342121044886026E0039819217F
:101F0000A0FB0101059A1368019353689A009B0F87
:101F1000FEF7D2F90199844648F21F52C5F2EB123E
:101F2000ACFB02304309642003FB10CC322000EBF1
:101F30000C10A0FB0202F02000EA521000EB03108C
:101F4000C2F3431210448860FFE706B080BD000072
:101F5000FFE7FEE74EF60C50CEF200000068C0F33B
:101F60000220704782B08DF8070000919DF90700AC
:101F700000280AD4FFE7009800019DF907104EF2EF
:101F80000042CEF2000288540BE0009800019DF858
:101F9000071001F00F014EF61452CEF200028854E1
:101FA000FFE702B07047000083B00290029800F093
:101FB000070000904EF60C51CEF200010868019027
:101FC00001984FF6FF02104001900198009A40EAF4
:101FD00002200022C0F2FA521043019001980860DA
:101FE00003B0704780B582B000200190FEF770FC0E
:101FF000FFF7B6FEFFF7AAFDFFF726FEFFF7A0FDED
:1020000042F24200C0F60000FFF782FDFFE7FEE764
:10201000F1EE100A4FF6FF71C0F2C03120EA010064
:1020200040F04070E1EE100A704700000000000030
:102030000000010203040607080900000000010275
:102040000304496E697469616C697365640000001A
:10205000702000080000002010000000100200089E
:102060008020000810000020A806000030020008B0
:102070000024F40001000000100000000000000037
:04000005080001AD41
:00000001FF
