:020000040800F2
:1000000058070020F90200087D430008A53B0008BE
:100010007943000801170008CD4C000800000000DB
:10002000000000000000000000000000F143000894
:100030000517000800000000ED43000849440008CF
:100040001303000813030008130300081303000838
:100050001303000813030008130300081303000828
:100060001303000813030008130300081303000818
:100070001303000813030008130300081303000808
:1000800013030008130300081303000813030008F8
:1000900013030008130300081303000813030008E8
:1000A00013030008130300081303000813030008D8
:1000B0000545000813030008130300081303000894
:1000C00013030008130300081303000813030008B8
:1000D0001303000813030008BD4C000813030008B5
:1000E0001303000813030008130300081303000898
:1000F0001303000813030008130300081303000888
:100100001303000813030008130300081303000877
:100110001303000813030008130300081303000867
:100120001303000813030008130300081303000857
:100130001303000813030008130300081303000847
:100140001303000813030008130300081303000837
:100150001303000813030008130300081303000827
:100160001303000813030008130300081303000817
:100170001303000813030008130300080000000025
:1001800013030008130300081303000813030008F7
:1001900013030008130300081303000813030008E7
:1001A00013030008130300081303000800F002F80B
:1001B00000F092F80AA090E8000C82448344AAF16F
:1001C0000107DA4501D100F087F8AFF2090EBAE86D
:1001D0000F0013F0010F18BFFB1A43F0010318477B
:1001E000845F0000A45F0000103A24BF78C878C183
:1001F000FAD8520724BF30C830C144BF04680C602D
:10020000704700000023002400250026103A28BF74
:1002100078C1FBD8520728BF30C148BF0B60704778
:100220006E2900F0DF81702900F02183662905F036
:100230000387652905F00087672905F0FD86612998
:1002400005F0FC8603681B0A28BF41F0800169297C
:1002500000F08C81642900F08981752900F0868185
:100260006F2900F0AF82782900F0ED82E92900F0D3
:100270004982E42900F04682F52900F04382EF2903
:1002800000F0AC82F82900F0EC820368DB0928BF9B
:1002900041F08001632900F0ED87732900F0F287B7
:1002A000E32900F0FD87F32901F002800020704768
:1002B0001FB505F0B4FE01F051F804000020002144
:1002C00005F0F8F9401C60600020002105F0DCF921
:1002D000E0601FBD10B510BD01F012F81146FFF728
:1002E000E7FF04F055FD01F0EFF803B4FFF7F2FF6C
:1002F00003BC01F037F9000009488047094800476E
:10030000FEE7FEE7FEE7FEE7FEE7FEE7FEE7FEE7C5
:10031000FEE7FEE704480549054A064B7047000022
:10032000F1440008AD0100085801002058070020E2
:10033000580300205803002053EA020C00F06980A3
:100340002DE9F04B4FF00006002B1FBFB3FA83F5E9
:1003500003FA05F424FA05F65E4012BF1643B2FA1A
:1003600082F502FA05F4C5F120051EBF22FA05FC4C
:1003700044EA0C04203556EA044C4FEA144418BFF2
:10038000641C4FF000084FF00009904271EB030C21
:1003900039D3002919BFB1FA81F701FA07F6B0FA8B
:1003A00080F700FA07F6C7F120071EBF20FA07FC06
:1003B00046EA0C062037B6FBF4FCA7EB0507103F16
:1003C00007F01F0BCBF120062CFA06F60CFA0BFBFC
:1003D00044BFB3460026202FA4BF5E464FF0000B5B
:1003E0005BEA060C08BF4FF0010B19EB0B0948EB59
:1003F0000608ABFB027C06FB02CC0BFB03CCC01B4C
:1004000071EB0C01C1E70B46024641464846BDE888
:10041000F08B13B5084318BF4FF0FF300146AFF320
:100420000080BDE81C4070470FB41CB5084B06AAFD
:100430007B4469460090059800F0EDF804460020E2
:10044000694600F0FBF820461CBC5DF814FB000078
:10045000090200004FF0000200B51346944696468C
:10046000203922BFA0E80C50A0E80C50B1F12001C7
:10047000BFF4F7AF090728BFA0E80C5048BF0CC075
:100480005DF804EB890028BF40F8042B08BF7047D3
:1004900048BF20F8022B11F0804F18BF00F8012B45
:1004A000704770477047704770B5044685690068AB
:1004B000C10601D5302600E02026C00707D070BD58
:1004C000D4E9012130469047206A401C20626D1E0D
:1004D000F6D570BD70B5044685690078C00707D1B0
:1004E00070BDD4E9012120209047206A401C206281
:1004F0006D1EF6D570BD09684A0501D540B270473A
:10050000C905FCD500B2704709684A0501D5C0B2DB
:100510007047C905FCD580B2704770B50C460546DA
:10052000012A05D02878800600D5EA69002302E078
:10053000012305E05B1C934202D2E05C0028F9D164
:10054000A869E618C01AA861286A184428622846D3
:10055000FFF7AAFF04E0D5E9012114F8010B904749
:10056000B442F8D32846FFF7B5FF70BD2DE9F0413E
:100570000646002410687529314616A510D0FFF7ED
:10058000BAFF002802DA404213A507E031688A0763
:1005900001D512A502E0490704D511A5012401E007
:1005A000FFF7B2FF00210A2206F1240709E0B0FBA1
:1005B000F2FCB0FBF2F302FB1C003030785418461A
:1005C000491C0028F3D123462A463046BDE8F041B5
:1005D00000F061BA000000002D0000002B000000B8
:1005E0002000000011680268006A530501D50870F8
:1005F0000AE0D30501D5088006E0130603D5C2172B
:10060000C1E9000200E008600120704701694A1C4E
:1006100002610878704700B58FB0CDE90131002143
:10062000059105497944CDE903101146684600F06B
:1006300029F90FB000BD0000E5FFFFFF0A6802F8CE
:10064000010B0A60704700002DE9FF5F15468A46DE
:100650000446DFF8AC80F8440027D8E900103E4695
:10066000CDE9001010E03AF816106A4602A800F032
:1006700023FE411C07D02178890603D5E269391889
:1006800091420DD80744761C2078800602D5E06997
:10069000B84205DDAE42E6DB3AF816000028E2D1AA
:1006A000A069C01BA0612046FFF7FEFED8E900103C
:1006B000CDE90010002017E03AF818106A4602A8A9
:1006C00000F0FAFDB0F1FF3F81460BD000250DF19F
:1006D000080B05E0D4E901211BF8050090476D1CCB
:1006E0004D45F7D308F10100B0428046E4DB206AB3
:1006F000384420622046FFF7EDFEBDE8FF9F000072
:10070000E65900002DE9F0418046D21D22F0070293
:100710000025D2E90002F52915A614D0011E72F1B8
:10072000000106DA0023D0EB030063EB020211A6FE
:1007300008E0D8F800108B0701D50FA602E04907A2
:1007400001D50EA601251146002408F1240704E076
:1007500000F05CF930323A55641C50EA0102F7D1DE
:100760002B46324621464046BDE8F04100F093B9A1
:10077000000000002D0000002B0000002000000001
:1007800030B4002100F1240408E002F00705D2088B
:10079000303542EA4372DB086554491C52EA0305CE
:1007A000F3D10468002310A2250708D504F0200423
:1007B0000C4304D0C46901230CA2641EC46130BC84
:1007C00000F069B910B5044621461068FFF79CFE99
:1007D00002462046BDE810400023D1E7D21D22F09A
:1007E0000701D1E90023CBE7000000003000000042
:1007F000F0B40D460188090502D5214C7C4402E085
:100800001F4C7C440E34002100F1240608E002F065
:100810000F071209E75D42EA03721B097754491C6E
:1008200052EA0307F3D102780023120704D5702D92
:1008300006D009B1022311342246F0BC00F02BB9D6
:1008400001231034F8E770B504460D4621461068C0
:10085000FFF75AFE024629462046BDE870400023B5
:10086000C6E7D21D22F00703D3E90023C0E70368DF
:10087000126843F0200303600823C3610023B7E735
:10088000485800002DE9F05F894604464FF0000A01
:10089000DFF874B1FB44C0F820A02046E168884727
:1008A000002874D0252806D0D4E901219047206A79
:1008B000401C2062F1E700265F462046E168884739
:1008C0002028054607DB312D05D2781910F8200CB9
:1008D00008B10643F1E7B00701D526F00406C4F8D5
:1008E0001CA00027C4F818A02A2D09D0284604F01F
:1008F000C3FE38B304EB8708303DC8F8185019E040
:1009000059F8041B204604EB87029161E16888478F
:10091000012F054618D1E069002820DA26F02006CC
:100920001DE0D8F8180000EB800005EB40003038DF
:10093000C8F818002046E1688847054604F09CFE88
:100940000028EED1012F0AD02E2D08D12046E168D3
:1009500088477F1C0546022F46F02006C4DBA069AD
:10096000002803DA404246F00106A061F00701D0FA
:1009700026F010066C2D0BD0682D09D04C2D39D0E7
:100980006A2D35D0742D35D07A2D33D016E038E06D
:10099000E1682F4620468847B842054609D16C2FAA
:1009A00026D04FF48060E16806432046884705461C
:1009B00004E06C2F1AD04FF4807006430DB3A5F1FC
:1009C0004100192802D8203546F400664A462946D7
:1009D000204626604E46FFF723FC80B101280BD04D
:1009E000F61D26F0070000F1080956E74020E4E76D
:1009F0008020D8E70020D6E706F104094DE7284615
:100A000052E7206ABDE8F09FD857000030B5B0F13A
:100A10000A0271F100034FEA900E4EEA817EB0EBBC
:100A20000E0061EB91014FEA101E4EEA017E10EBC1
:100A30000E0041EB11114FEA102E4EEA016E10EB41
:100A40000E0041EB11214FEA104E4EEA014E10EB21
:100A50000E0041EB1141401841F100014FEAD00076
:100A600040EA41704FEAD1014FEA810444EA9074B0
:100A700010EB800544EB01046D1944EB0404521B98
:100A8000A3414FF0000348BF0A3200D530BD401CDF
:100A900041F1000130BD2DE9F0470D4699469246DF
:100AA000044600F124080168880604D5E06921F0B5
:100AB0001001216000E00120A84201DD471B00E099
:100AC0000027A1697A1902EB0900081AA0612078B1
:100AD000C00602D42046FFF7E7FC002608E0D4E970
:100AE00001211AF806009047206A401C761C2062FB
:100AF0004E45F4DB2078C0060AD52046FFF7D4FC2B
:100B000006E0D4E9012130209047206A401C206291
:100B1000381EA7F10107F4DC07E0D4E9012118F839
:100B200005009047206A401C2062281EA5F101059F
:100B3000F3DC2046FFF7CEFC2078000602D5022029
:100B4000BDE8F0870120FBE72DE9FF4F0C461E466C
:100B50004FF0FF378BB0D2E90001DDF860800A90DA
:100B60008A46C1F30A5505B93D46002108464FF0B3
:100B70000000BAF1000F00F4400005DA00EB80003D
:100B80004FF4400101EA50004FEA9059B9F1010FCA
:100B900000DDB9460A9850EA4A000ED044F61050DB
:100BA000A5F2FF3545432F14B8F1000F1ED0754252
:100BB000291E1EDDC9F100021CE0B8F1010F4FF043
:100BC000000001D0302103E0F24305E02154401C35
:100BD000B042FBDB30460022002121540B99C1F8C2
:100BE0000880C1E900200FB0BDE8F08FBD1B6D1C6F
:100BF000DEE74A4600DA694206A800F0F3FB06ABDE
:100C000093E8070003AB83E8070050460A9904F015
:100C100053F98DE80700A0F500501F3800900398A5
:100C2000002D0ADD42F21F014A460844002303A9B1
:100C30000390684604F0BCFB09E0A0F500504A466A
:100C40001F38002303A90390684604F0C6FB8DE813
:100C500007000004000C03D04FF0FF30410800E013
:100C60001046B8F1000F03D00022009215461EE096
:100C7000751E05D4FFF7CAFE303262556D1EF9D5D8
:100C8000B3460122084302D000227F1C04E02078F2
:100C9000302801D100227F1E002A099784D01DE050
:100CA000112D07DAFFF7B2FE303262556D1C50EAA3
:100CB0000102F5D1084302D00098C8B10EE000212E
:100CC000681E05E0235C625C63542254401E491C8C
:100CD0008142F7DBAB46A81B401E0990002004F8B8
:100CE0000B000B98099AC0F80880C0E9002B7AE73E
:100CF00011264FF0000857E72DE9F04F88460446CB
:100D0000D21D22F0070191B0D1E90001CDE90A011D
:100D100004F09AFC02460B98C00F01D02D2007E08A
:100D20002068810701D52B2002E0202101EAC000C4
:100D3000032A099001D0072A05DB034641462046D5
:100D400000F010FB0BE12078800601D5E06900E09F
:100D50000620B8F1650F814606D0B8F1660F18D0AD
:100D6000B8F1670F70D131E00020B9F1110F009098
:100D700001DB112301E009F101030AAA01A90CA872
:100D8000FFF7E2FEDDE90C70002609F1010583465C
:100D900047E001204B4600904FF000470AAA01A906
:100DA0000CA8FFF7D1FEDDE90DB00C995D460026D9
:100DB00010B909F101000D18B9EB050003D4C0F119
:100DC000FF3609F10105A5EB09002BE0B9F1010F90
:100DD00001DA4FF001090020B9F1110F00904846E7
:100DE00001DD112300E003460AAA01A90CA8FFF7C0
:100DF000ABFEDDE90C704D460026834620780007E7
:100E00000AD4AB4500DA5D4601A8012D04DD411985
:100E100011F8011C302907D04F4502DA17F1040FF1
:100E200004DA012082460FE06D1EEEE7002F02DC9F
:100E3000ED1B3E4403E0781CA84200DD7D1CB81B7E
:100E400000F1010A4FF000472078000703D4AA45BB
:100E500001DB4FF0FF3A0021B7F1004F0DF14308DD
:100E60008DF8431024D002202B23002F01DA7F427B
:100E70002D230A21021EA0F1010000DC5FB197FBC7
:100E8000F1FC97FBF1F201FB1C7C17460CF1300CD6
:100E900008F801CDEEE7A8F10100037021880905EB
:100EA00001D5452100E06521A0F1010800F8011CF1
:100EB00009980FA9A1EB0807FF1D00B101204119F6
:100EC00001EBEA70A1693844081A401EA06120783D
:100ED000C00602D42046FFF7E7FA099828B1D4E902
:100EE00001219047206A401C20622078C00622D54C
:100EF0002046FFF7D9FA1EE0002E04DBB34502DDE1
:100F000001A8805D00E03020D4E901219047206AEB
:100F1000401C2062761CAAF101005FEA000A0AD197
:100F200000F01CFAC0680168405CD4E901219047D8
:100F3000206A401C2062281EA5F10105DCDC07E0C8
:100F4000D4E9012118F8010B9047206A401C206267
:100F5000381EA7F10107F3DC2046FFF7BBFA032098
:100F600011B041E62DE9F04F04460D46D21D22F0A6
:100F7000070089B0D0E900974846394604F064FB81
:100F80000246F80F01D02D2307E02068810701D524
:100F90002B2302E0202101EAC0038DF820300BB1A1
:100FA000012000E00020032A824601D0072A04DB4A
:100FB0002946204600F0D6F93FE12078800601D48A
:100FC0000D2500E0E569C7F30A560D2D49DA002129
:100FD0004FEA175B08464FF00000002F00F4400076
:100FE00007DA00EB80004FF4400100EBD07001EA1B
:100FF00060008115012901DD4FF0FF3100224FEA29
:10100000850CBCF1180F06D31346ACF118004FF055
:101010008052C24003E04FF4801323FA0CF30CF12A
:101020000C0CBCF1200F04D3ACF1200C09FA0CF02D
:1010300001E007FA0CF000294FF0004801DD18B973
:101040000FE00ED140450CD319EB02095F4121B9E5
:10105000404502D19F4329EA0209BBEB175F00D04C
:10106000761C2088000502D57B48784402E07A4847
:101070007844193808AA302302F80A30037C0AF1B0
:101080000101002E0AF1020A53546A4602DC4FF0B5
:10109000300101E04FF031014FF001088DF80010F0
:1010A00002D0A6F2FF3603E059EA470100D06B4EAA
:1010B000002D02DC2178090704D54FF002082E210B
:1010C0008DF80110C44600210BE0C7F303433F0134
:1010D000C35C491C6D1E02F80830052908F101089F
:1010E00001DA002DF1DC00210CE000EB1973491C42
:1010F0001B786D1E082902F808304FEA091908F11B
:10110000010801DA002DF0DC21688B0602D516E01B
:10111000A8F10108E04505DD02EB080313F8013CE6
:10112000302BF5D0B8F1000F09DD02EB080313F8FE
:10113000013C2E2B03D1090701D4A8F10108002D91
:1011400005DD3E2102F808106D1E08F10108407C03
:10115000002E02F8080008F1010804DA2D2076427A
:1011600002F8080002E02B2002F808000A214FF4E0
:101170007A70864208F101080BDB96FBF0F33033FE
:1011800002F8083096FBF0F308F1010800FB136643
:1011900001E0642E0CDB642096FBF0F3303302F8A0
:1011A000083096FBF0F308F1010800FB136601E03C
:1011B0000A2E06DB96FBF1F0303002F8080008F149
:1011C000010896FBF1F001FB1060303002F80800D6
:1011D000A16908F1010808EB050202EB0A00081AF0
:1011E000A0612078C00602D42046FFF75DF9216A8D
:1011F00008AE01EB0A00206204E0D4E9012116F8F0
:10120000010B9047BAF1010AF7D22078C00602D547
:101210002046FFF749F96E4609E016F8010B3E2813
:101220000FD0D4E901219047206A401C2062B8F118
:101230000108F2D22046FFF74DF909B00320BDE8BE
:10124000F08F206A2844206203E0D4E90121302095
:1012500090476D1EEBD3F8E72650000002FCFFFF1D
:1012600010B5436913B1AFF3008001E0FFF755F902
:10127000012010BD127800F124010A7000224A708A
:101280000122EDE711684FF0FF32E9E710B543693D
:1012900013B1AFF3008001E0FFF7D6F9012010BDD4
:1012A000128800F1240182840022C2840122EDE729
:1012B00011684FF0FF32E9E72DE9F04116460C4680
:1012C000054600F043F8036893F80101012807D0B0
:1012D000FF2C12D8185D80B101202C70BDE8F08180
:1012E000D3F807013246214603F20713C7182846F0
:1012F000BC46BDE8F041002360474FF0FF30EDE70A
:10130000754600F0EBF8AE4605006946534620F0FE
:101310000700854618B020B5FEF7FCFFBDE8204069
:101320004FF000064FF000074FF000084FF0000BA1
:10133000AC46ACE8C009ACE8C009ACE8C009ACE810
:10134000C00921F007018D467047000010B500F07C
:1013500005F8001D10BD00BF5D4300000048704748
:10136000300000202DE9F0411F46044603260168A5
:10137000072A01F4006004DB08B116A505E016A5F4
:1013800003E008B115A500E015A521F010002060CC
:10139000A069C01EA0610FB1401EA0612046FFF7EA
:1013A00083F84FB1D4E9012138469047206A401CA8
:1013B0002062C01C206206E0206AFAE7D4E901211D
:1013C00015F8010B9047761EF8D22046FFF782F8F9
:1013D000BDE8F0814E414E006E616E00494E460000
:1013E000696E66002DE9F047814616468AB0354899
:1013F00078440DC88DE80D0032487844801C03AC59
:101400000DC884E80D0041F69B300844372190FB5D
:10141000F1F290FBF1F5A5F1800501FB12041B3CF4
:1014200002D56442012000E00020DFF898A0804649
:101430000027FA44AAF1BE0A0EE0E0070AD03246BD
:10144000684607EB470101230AEB810103F0C5FF62
:101450008DE8070064107F1C002CEED1194F7F44EB
:10146000AE3F19E0E80715D007EB04100DF1180A9C
:1014700090E80E008AE80E00C068F04201D1981989
:1014800008903246012306A903A803F0A6FF03AB88
:1014900083E807006D10641C002DE3D14FF00103B9
:1014A00032466946B8F1000F03A802D003F080FF6E
:1014B00001E003F092FFC9E90001C9F808200AB071
:1014C000BDE8F087304D000010B50446AFF3008052
:1014D0002046BDE81040FEF708BF000000487047F6
:1014E000100000200000000030B44FF0013C50F824
:1014F000042B51F8043BCCFA52F4D51A20D1FCB994
:1015000050F8042B51F8043BCCFA52F4D51A17D1F9
:10151000B4B950F8042B51F8043BCCFA52F4D51A64
:101520000ED16CB950F8042B51F8043BCCFA52F4AC
:10153000D51A05D1002CDAD030BC4FF0000070472E
:1015400029BAB1FA81F111F01801D1F120008440DB
:10155000F2D1CA40CB4012F0FF0213F0FF0330BCBF
:10156000D01A704701491820ABBEFEE726000200E2
:101570007047000082B0019042F20030C4F20100D6
:1015800000900099486820F4403048600198426813
:10159000009948681043486001980168486820F441
:1015A00080704860019801680269486840EA02203A
:1015B000486001980168486820F0407048600198D0
:1015C000016882684868104348600198016888682B
:1015D00020F40060886001980168C2688868104340
:1015E00088600198806A0121C0F60071884219D094
:1015F000FFE701980168886820F0706088600198B2
:101600000168826A88681043886001980168886868
:1016100020F04050886001980168C26A88681043D1
:1016200088600CE001980168886820F0706088602C
:1016300001980168886820F040508860FFE70198B1
:101640000168886820F0020088600198027E0168C5
:10165000886840EA42008860019890F82000C8B18C
:10166000FFE701980168486840F40060486001980D
:101670000168486820F46040486001980168426A47
:101680004EF20000CFF6FF7000EB42324868104384
:10169000486006E001980168486820F400604860EE
:1016A000FFE701980168C86A20F47000C8620198D9
:1016B0000168C2690020CFF6F07000EB0252C86AE0
:1016C0001043C86201980168886820F4007088603F
:1016D000019890F830200168886840EA42208860CC
:1016E00001980168886820F480608860019801682A
:1016F0004269886840EA8220886002B07047000032
:10170000FFE7FEE77047000072B6FFE7FEE7000064
:1017100085B00390029100200190FFE7039890F8B4
:101720003C00012804D1FFE702208DF8130007E1F7
:101730000399012081F83C00FFE7FFE70298006869
:101740000A281CD3FFE70298008800EB4000A0F1B4
:101750001E01072000FA01F203980168C86890434F
:10176000C86002998868098801EB41011E3900FAB6
:1017700001F203980168C8681043C86018E0029835
:10178000008800EB4001072000FA01F2039801688D
:1017900008699043086102998868098801EB410152
:1017A00000FA01F203980168086910430861FFE735
:1017B0000298406806281BD8FFE70298406800EBB3
:1017C0008000411F1F2000FA01F203980168486B56
:1017D0009043486302990888496801EB8101053903
:1017E00000FA01F203980168486B104348633DE03A
:1017F000029840680C281CD8FFE70298406800EB6C
:101800008000A0F123011F2000FA01F20398016873
:10181000086B9043086302990888496801EB8101CD
:10182000233900FA01F203980168086B104308633A
:101830001BE00298406800EB8000A0F141011F20EE
:1018400000FA01F203980168C86A9043C8620299DD
:101850000888496801EB8101413900FA01F20398D7
:101860000168C86A1043C862FFE7FFE742F2003030
:10187000C4F2010000900398006842F20001C4F233
:101880000101884210D1FFE70298006812280BD1AD
:10189000FFE70099486820F4000048600099486814
:1018A00040F480004860FFE70398006842F20001BE
:1018B000C4F20101884239D1FFE702980068122181
:1018C000C1F20001884205D0FFE7029800681128A4
:1018D0002CD1FFE70099486820F480004860009907
:1018E000486840F400004860029800681221C1F284
:1018F0000001884219D1FFE740F20000C2F2000067
:1019000000684DF68361C4F21B31A0FB0110800C0E
:1019100000EB800040000190FFE7019820B1FFE755
:10192000019801380190F8E7FFE7FFE7FFE7039927
:10193000002081F83C00FFE700208DF81300FFE74E
:101940009DF8130005B0704781B0009000980068C2
:10195000C06C01B07047000080B584B002900020D8
:101960008DF80700029820B9FFE701208DF80F00DD
:1019700042E00298806A0121C0F60071884201D0DD
:10198000FFE7FFE70298006C50B9FFE7029800F00C
:1019900037F8029900204864029981F83C00FFE77B
:1019A0000298006CC006002817D4FFE70298006C6C
:1019B00040F0020020F48850029908640298FFF772
:1019C000D9FD0299002048640298006C40F00100A3
:1019D00020F002000299086403E001208DF807005E
:1019E000FFE7FFE70299002081F83C00FFE79DF840
:1019F00007008DF80F00FFE79DF80F0004B080BDD1
:101A000080B588B007900020069005900490039060
:101A100002900798006842F20001C4F20101884276
:101A20002FD1FFE7FFE70020019043F64400C4F206
:101A30000200016841F480710160006800F4807068
:101A400001900198FFE7FFE70020009043F6300087
:101A5000C4F20200016841F001010160006800F079
:101A6000010000900098FFE72020029003200390DF
:101A7000002004900020C4F2020002A900F03CFA09
:101A8000FFE708B080BD000080B584B002900191EE
:101A9000002000900298006880684005002816D554
:101AA000FFE7029800688068C00500280FD5FFE7AF
:101AB0000299086C40F020000864FFE702990020BA
:101AC00081F83C00FFE701208DF80F006DE000F089
:101AD00023FC0090FFE702980068006800F0020015
:101AE000022829D0FFE70198013020B3FFE70198D1
:101AF00040B1FFE700F010FC0099401A01998842BC
:101B000018D9FFE702980068006800F00200022878
:101B10000FD0FFE70299086C40F004000864FFE76B
:101B20000299002081F83C00FFE703208DF80F00A8
:101B30003BE0FFE7FFE7CEE7029801686FF0120095
:101B400008600299086C40F400700864029800680C
:101B5000806810F0405F24D1FFE70298007E00BB50
:101B6000FFE702980068C06A10F4700F07D0FFE723
:101B70000298006880684005002812D4FFE70299A7
:101B8000086C20F4807008640298006CC00400287F
:101B900006D4FFE70299086C40F001000864FFE7F3
:101BA000FFE700208DF80F00FFE79DF80F0004B05D
:101BB00080BD000084B0029000200190FFE70298F1
:101BC00090F83C00012804D1FFE702208DF80F00B7
:101BD000D4E00299012081F83C00FFE7FFE702987A
:101BE00000688068C007F0B9FFE70298016888685C
:101BF00040F00100886040F20000C2F2000000687E
:101C00004DF68361C4F21B31A0FB0110800C00EB88
:101C100040000190FFE7019820B1FFE701980138EB
:101C20000190F8E7FFE7029800688068C007002885
:101C300000F09580FFE70298006C40F4807040F25D
:101C40000161884302990864029800684068400571
:101C5000002809D5FFE70298006C40F4805020F47A
:101C6000005002990864FFE70298006CC004002845
:101C700006D5FFE70299486C20F00600486403E0AF
:101C8000029900204864FFE7FFE70299002081F8ED
:101C90003C00FFE742F20030C4F2010000900298DD
:101CA00001686FF02200086000984068C006E8BB39
:101CB000FFE70298006842F20001C4F20101884285
:101CC00024D0FFE70298006842F20011C4F201013B
:101CD000884208D1FFE742F20430C4F201000068F4
:101CE000C00698B1FFE70298006842F20021C4F2F2
:101CF0000101884219D1FFE742F20430C4F2010029
:101D0000006800F01F000F280FD8FFE70298006856
:101D1000806810F0405F07D1FFE70298016888688B
:101D200040F080408860FFE7FFE717E00298006816
:101D300042F20001C4F2010188420ED1FFE702988D
:101D40000068806810F0405F07D1FFE702980168E3
:101D5000886840F080408860FFE7FFE70AE002996A
:101D6000086C40F0100008640299486C40F00100D3
:101D70004864FFE700208DF80F00FFE79DF80F0093
:101D800004B0704780B584B002900298806D0190D5
:101D900000F0C2FA0090029890F8350002280DD0A9
:101DA000FFE7029980204865FFE70299002081F84B
:101DB0003400FFE701208DF80F0055E0029801681C
:101DC000086820F01600086002980168486920F051
:101DD000800048610298006C20B9FFE70298806C8F
:101DE00038B1FFE702980168086820F00800086031
:101DF000FFE702980168086820F001000860FFE72B
:101E0000029800680068C007C8B1FFE700F084FAD4
:101E10000099401A062811D3FFE70299202048654F
:101E20000299032081F83500FFE70299002081F82C
:101E30003400FFE703208DF80F0015E0E0E702987B
:101E4000C16D3F208840019988600299012081F886
:101E50003500FFE70299002081F83400FFE7FFE733
:101E600000208DF80F00FFE79DF80F0004B080BD43
:101E700082B00090009890F83500022807D0FFE764
:101E800000998020486501208DF807000EE0009938
:101E9000052081F8350000980168086820F00100ED
:101EA0000860FFE700208DF80700FFE79DF80700B6
:101EB00002B0704780B584B0039000F02DFA029014
:101EC000039801900198013048B1FFE740F2040007
:101ED000C2F200000178019808440190FFE7FFE793
:101EE00000F01AFA0299401A0199884201D2FFE7DC
:101EF000F6E704B080BD000090B00F900E91002076
:101F00000C900B900A900D90FFE70D980F2800F2AF
:101F1000E881FFE70D99012088400C900E98006839
:101F20000C9908400B900B980C99884240F0D48192
:101F3000FFE70E98406800F00300012807D0FFE794
:101F40000E98406800F0030002282FD1FFE70F9899
:101F500080680A900D984100032000FA01F10A9868
:101F600088430A900E98C0680D99490000FA01F163
:101F70000A9808430A900A980F9988600F98406859
:101F80000A900D99012000FA01F10A9888430A90FD
:101F90000E984068C0F300100D9900FA01F10A98FC
:101FA00008430A900A980F994860FFE70E98406826
:101FB00000F00300032818D0FFE70F98C0680A90CC
:101FC0000D984100032000FA01F10A9888430A9015
:101FD0000E9880680D99490000FA01F10A980843AB
:101FE0000A900A980F99C860FFE70E98406800F0C1
:101FF0000300022826D1FFE70F980D996FF0030226
:1020000002EA51010844006A0A900D9800F00700A6
:1020100081000F2000FA01F10A9888430A900E9877
:1020200000690D9901F00701890000FA01F10A9891
:1020300008430A900A980F990D9B02EA5302114433
:102040000862FFE70F9800680A900D98410003208E
:1020500000FA01F10A9888430A900E98406800F04F
:1020600003000D99490000FA01F10A9808430A900B
:102070000A980F9908600E9880798007002800F070
:102080002A81FFE7FFE70020099043F64400C4F2ED
:102090000200016841F480410160006800F4804062
:1020A00009900998FFE70D9820F0030043F6080116
:1020B000C4F2010140580A900D9800F0030081001D
:1020C0000F2000FA01F10A9888430A900F98002126
:1020D000C4F20201884203D1FFE7002008907AE0B1
:1020E0000F9840F20041C4F20201884203D1FFE799
:1020F000012007906CE00F9840F60001C4F2020145
:10210000884203D1FFE7022006905EE00F9840F678
:102110000041C4F20201884203D1FFE70320059089
:1021200050E00F9841F20001C4F20201884203D14D
:10213000FFE70420049042E00F9841F20041C4F20E
:102140000201884203D1FFE70520039034E00F9895
:1021500041F60001C4F20201884203D1FFE70620E4
:10216000029026E00F9841F60041C4F20201884235
:1021700003D1FFE70720019018E00F9842F2000119
:10218000C4F20201884203D1FFE7082000900AE070
:102190000F9942F20042C4F202020A20914208BFA3
:1021A00009200090FFE700980190FFE70198029056
:1021B000FFE702980390FFE703980490FFE7049875
:1021C0000590FFE705980690FFE706980790FFE760
:1021D00007980890FFE70898C0B20D9901F0030135
:1021E000890000FA01F10A9808430A900A980D99AB
:1021F00021F0030143F60802C4F20102885043F6BD
:102200000840C4F2010000680A900B990A988843BC
:102210000A900E988079C006002805D5FFE70B9933
:102220000A9808430A90FFE70A9843F60841C4F267
:102230000101086043F60C40C4F2010000680A90F6
:102240000B990A9888430A900E9880798006002896
:1022500005D5FFE70B990A9808430A90FFE70A980B
:1022600043F60C41C4F20101086043F60440C4F295
:10227000010000680A900B990A9888430A900E980A
:1022800080798007002805D5FFE70B990A98084355
:102290000A90FFE70A9843F60441C4F2010108607E
:1022A00043F60040C4F2010000680A900B990A98B6
:1022B00088430A900E988079C00728B1FFE70B99F0
:1022C0000A9808430A90FFE70A9843F60041C4F2CF
:1022D00001010860FFE7FFE7FFE70D9801300D906F
:1022E00013E610B07047000082B00190ADF8021004
:1022F0008DF801209DF8010028B1FFE7BDF802002C
:102300000199886105E0BDF8020000040199886127
:10231000FFE702B07047000040F25410C2F2000024
:102320000068704740F20400C2F20000027840F2F8
:102330005411C2F2000108681044086070470000A0
:1023400080B543F60041C4F20201086840F4007011
:102350000860086840F480600860086840F4807095
:102360000860032000F08AF80F2000F005F800F064
:102370003BF8002080BD000080B582B0009040F2A4
:102380000000C2F20000006840F20401C2F2000145
:102390000A784FF47A71B1FBF2F1B0FBF1F000F082
:1023A000A5FD20B1FFE701208DF8070018E0009897
:1023B0000F280DD8FFE700994FF0FF30002200F002
:1023C00043F8009840F20801C2F20001086003E0FF
:1023D00001208DF8070003E000208DF80700FFE7DB
:1023E0009DF8070002B080BD82B0FFE70020019099
:1023F00043F64400C4F20200016841F480410160E8
:10240000006800F4804001900198FFE7FFE700209A
:10241000009043F64000C4F20200016841F0805190
:102420000160006800F0805000900098FFE702B063
:102430007047000080B582B08DF807009DF9070055
:1024400002F046FC02B080BD80B586B08DF8170062
:10245000049103920020029002F052FC02909DF938
:102460001700019002980499039A01F089FF014630
:10247000019802F04DFC06B080BD000080B582B02E
:102480000190019802F066FC02B080BD80B584B076
:1024900002900191029820B9FFE701208DF80F000A
:1024A00021E1019843F60041C4F20201096801F0FC
:1024B0000F01884212D9FFE7019943F60040C4F2A8
:1024C00002000170006800F00F000199884204D0FA
:1024D000FFE701208DF80F0005E1FFE70298007883
:1024E000800700282AD5FFE70298007840070028D7
:1024F00009D5FFE743F60801C4F20201086840F479
:10250000E0500860FFE7029800780007002809D52E
:10251000FFE743F60801C4F20201086840F4604096
:102520000860FFE743F60801C4F20201086820F0E2
:10253000F000029A926810430860FFE70298007862
:10254000C00700286ED0FFE702984068012811D12B
:10255000FFE743F60000C4F20200006800F4003117
:102560000020B0EB514F04D1FFE701208DF80F00A0
:10257000B9E02CE002984068022805D0FFE70298F5
:102580004068032811D1FFE743F60000C4F20200BF
:10259000006800F000710020B0EB516F04D1FFE73C
:1025A00001208DF80F009EE010E043F60000C4F219
:1025B0000200006800F002010020B0EB510F04D1CE
:1025C000FFE701208DF80F008DE0FFE7FFE743F6FE
:1025D0000801C4F20201086820F00300029A526860
:1025E00010430860FFF798FE0090FFE743F60800ED
:1025F000C4F20200006800F00C0002994968B0EBD8
:10260000810F0ED0FFE7FFF787FE0099401A41F2D5
:102610008931884204D3FFE703208DF80F0062E080
:10262000E4E7FFE7019843F60041C4F202010968BC
:1026300001F00F01884212D2FFE7019943F60040F2
:10264000C4F202000170006800F00F000199884296
:1026500004D0FFE701208DF80F0044E0FFE7029867
:102660000078400700280CD5FFE743F60801C4F2C4
:102670000201086820F4E050029AD2681043086012
:10268000FFE702980078000700280DD5FFE743F622
:102690000801C4F20201086820F46040029A12693D
:1026A00040EAC2000860FFE700F04CF843F608017A
:1026B000C4F202010968C9B20A0946F23C11C0F627
:1026C0000001895CC84040F20001C2F200010860CC
:1026D00040F20800C2F200000068FFF74DFE002043
:1026E0008DF80F00FFE79DF80F0004B080BD0000DB
:1026F00040F20000C2F200000068704780B5FFF7AA
:10270000F7FF43F60801C4F202010968C1F382220F
:1027100046F24C11C0F60001895CC84080BD000043
:1027200080B5FFF7E5FF43F60801C4F2020109682E
:1027300089B24A0B46F24C11C0F60001895CC840D0
:1027400080BD000080B586B0002005900490039005
:10275000029043F60800C4F20200006800F00C008A
:102760000146019140B1FFE7019804280AD0FFE734
:10277000019808280CD04FE042F20040C0F2F4006B
:1027800002904FE047F64000C0F27D10029049E011
:1027900043F60400C4F20200016801F03F01059114
:1027A00000684002002813D5FFE743F60400C4F296
:1027B00002000068C0F3881047F64001C0F27D11A6
:1027C000A0FB0101059A0023FDF7B6FD049012E07D
:1027D00043F60400C4F202000068C0F3881042F21D
:1027E0000041C0F2F401A0FB0101059A0023FDF7AE
:1027F000A3FD0490FFE743F60400C4F20200006862
:1028000000F44031022000EBD1300390049803998A
:10281000B0FBF1F0029005E042F20040C0F2F4009B
:102820000290FFE7029806B080BD000080B586B038
:102830000490049820B9FFE701208DF8170050E3B9
:1028400004980078C007002800F0A580FFE743F651
:102850000800C4F20200006800F00C00042813D045
:10286000FFE743F60800C4F20200006800F00C0025
:1028700008281ED1FFE743F60400C4F202000068F6
:102880004002002815D5FFE743F60000C4F202001D
:10289000006800F400310020B0EB514F08D0FFE792
:1028A0000498406820B9FFE701208DF8170018E36D
:1028B00070E0FFE704984068B0F5803F09D1FFE77A
:1028C00043F60001C4F20201086840F48030086059
:1028D00020E004984068B0F5A02F0DD1FFE743F643
:1028E0000001C4F20201086840F480200860086812
:1028F00040F4803008600CE043F60001C4F20201AD
:10290000086820F480300860086820F4802008609F
:10291000FFE7FFE7FFE704984068E8B1FFE7FFF74C
:10292000FBFC0390FFE743F60000C4F202000068DE
:1029300000F400310020B0EB514F0CD1FFE7FFF75E
:10294000EBFC0399401A652804D3FFE703208DF8B8
:102950001700C6E2E7E71CE0FFF7DEFC0390FFE7A5
:1029600043F60000C4F20200006800F400310020C9
:10297000B0EB514F0CD0FFE7FFF7CEFC0399401AA4
:10298000652804D3FFE703208DF81700A9E2E7E7E5
:10299000FFE7FFE7FFE7049800788007002840F191
:1029A0009680FFE743F60800C4F20200006810F0CA
:1029B0000C0F13D0FFE743F60800C4F202000068D2
:1029C00000F00C0008282CD1FFE743F60400C4F205
:1029D000020000684002002823D4FFE743F600000D
:1029E000C4F20200006800F002010020B0EB510FB9
:1029F00009D0FFE70498C068012804D0FFE7012050
:102A00008DF817006DE243F60001C4F20201086878
:102A100020F0F800049A126940EAC2000860FFE75B
:102A200054E00498C06870B3FFE70021C4F2472166
:102A300001200860FFF770FC0390FFE743F60000F9
:102A4000C4F20200006800F002010020B0EB510F58
:102A50000CD1FFE7FFF760FC0399401A032804D369
:102A6000FFE703208DF817003BE2E7E743F600019C
:102A7000C4F20201086820F0F800049A126940EAE2
:102A8000C200086021E00021C4F247210020086054
:102A9000FFF742FC0390FFE743F60000C4F2020098
:102AA000006800F002010020B0EB510F0CD0FFE7EE
:102AB000FFF732FC0399401A032804D3FFE70320F1
:102AC0008DF817000DE2E7E7FFE7FFE7FFE704985F
:102AD0000078000700284BD5FFE70498406918B339
:102AE000FFE740F68061C4F2472101200860FFF74C
:102AF00013FC0390FFE743F67400C4F20200006881
:102B000000F002010020B0EB510F0CD1FFE7FFF7FE
:102B100003FC0399401A032804D3FFE703208DF830
:102B20001700DEE1E7E722E040F68061C4F24721CA
:102B300000200860FFF7F0FB0390FFE743F6740006
:102B4000C4F20200006800F002010020B0EB510F57
:102B50000CD0FFE7FFF7E0FB0399401A032804D3EA
:102B6000FFE703208DF81700BBE1E7E7FFE7FFE78A
:102B7000049800784007002840F1CE80FFE700204D
:102B80008DF8070043F64000C4F202000068C00060
:102B9000002815D4FFE7FFE70020009043F640002F
:102BA000C4F20200016841F080510160006800F049
:102BB000805000900098FFE701208DF80700FFE7A4
:102BC00047F20000C4F200000068C005002822D4CB
:102BD000FFE747F20001C4F20001086840F480708A
:102BE0000860FFF799FB0390FFE747F20000C4F28B
:102BF00000000068C00500280CD4FFE7FFF78CFB3D
:102C00000399401A032804D3FFE703208DF8170027
:102C100067E1EAE7FFE7FFE704988068012809D148
:102C2000FFE743F67001C4F20201086840F00100BA
:102C300008601FE00498806805280DD1FFE743F67F
:102C40007001C4F20201086840F0040008600868DE
:102C500040F0010008600CE043F67001C4F202018C
:102C6000086820F001000860086820F0040008608F
:102C7000FFE7FFE7FFE704988068F8B1FFE7FFF799
:102C80004BFB0390FFE743F67000C4F202000068BC
:102C900000F002010020B0EB510F0ED1FFE7FFF76B
:102CA0003BFB0399401A41F28931884204D3FFE784
:102CB00003208DF8170014E1E5E71EE0FFF72CFB79
:102CC0000390FFE743F67000C4F20200006800F0D2
:102CD00002010020B0EB510F0ED0FFE7FFF71CFB05
:102CE0000399401A41F28931884204D3FFE7032057
:102CF0008DF81700F5E0E5E7FFE79DF807000128EC
:102D000009D1FFE743F64001C4F20201086820F050
:102D100080500860FFE7FFE704988069002800F012
:102D2000DC80FFE743F60800C4F20200006800F010
:102D30000C00082800F08580FFE7049880690228CD
:102D40005CD1FFE76021C4F2472100200860FFF753
:102D5000E3FA0390FFE743F60000C4F202000068C4
:102D600000F000710020B0EB516F0CD0FFE7FFF7CF
:102D7000D3FA0399401A032804D3FFE703208DF800
:102D80001700AEE0E7E70499C869D1F820C04B6AA4
:102D90008A6A40EA0C0040EA8310D2034FF6FF73C0
:102DA0009A43A2F580321043C96A40EA016043F6B3
:102DB0000401C4F2020108606021C4F2472101202D
:102DC0000860FFF7A9FA0390FFE743F60000C4F29A
:102DD0000200006800F000710020B0EB516F0CD1D0
:102DE000FFE7FFF799FA0399401A032804D3FFE796
:102DF00003208DF8170074E0E7E721E06021C4F2BA
:102E0000472100200860FFF787FA0390FFE743F6A9
:102E10000000C4F20200006800F000710020B0EB76
:102E2000516F0CD0FFE7FFF777FA0399401A032898
:102E300004D3FFE703208DF8170052E0E7E7FFE730
:102E40004AE004988069012804D1FFE701208DF849
:102E5000170046E043F60400C4F202000068029046
:102E600004988069012831D0FFE7029800F48000BF
:102E70000499C969884229D1FFE7029800F03F0010
:102E80000499096A884221D1FFE7029847F6C07188
:102E900008400499496AB0EB811F17D1FFE70298F7
:102EA00000F440300499896AC9034FF6FF729143D8
:102EB000A1F58031884209D1FFE7029800F07060E7
:102EC0000499C96AB0EB016F04D0FFE701208DF8C7
:102ED000170006E0FFE7FFE7FFE700208DF8170087
:102EE000FFE79DF8170006B080BD000080B582B0F6
:102EF0000190019801F07EFA02B080BD81B000908F
:102F000001B0704781B0009001B0704785B0039068
:102F10000291FFE7039890F83C00012804D1FFE7F5
:102F200002208DF813007EE00399012081F83C0017
:102F3000FFE7FFE70399022081F83D00039800684E
:102F4000406801900398006880680090019820F024
:102F5000700001900298016801980843019001985F
:102F6000039909684860039800680021C4F20101D0
:102F700088423CD0FFE703980068B0F1804F36D01C
:102F8000FFE70398006840F20041C4F20001884264
:102F90002DD0FFE70398006840F60001C4F200015D
:102FA000884224D0FFE70398006840F60041C4F24D
:102FB000000188421BD0FFE70398006840F20041FF
:102FC000C4F20101884212D0FFE70398006844F27E
:102FD0000001C4F20101884209D0FFE703980068AC
:102FE00041F60001C4F2000188420ED1FFE70098CB
:102FF00020F08000009002984168009808430090FB
:103000000098039909688860FFE70399012081F817
:103010003D00FFE70399002081F83C00FFE7002016
:103020008DF81300FFE79DF8130005B0704700000E
:1030300080B582B00090009820B9FFE701208DF89C
:1030400007003FE0009890F83D0040B9FFE7009985
:10305000002081F83C00009800F038F8FFE7009964
:10306000022081F83D00009951F8040B01F052FA5A
:103070000099012081F84600FFE70099012081F8BE
:103080003E00009981F83F00009981F840000099C6
:1030900081F84100FFE7FFE70099012081F8420035
:1030A000009981F84300009981F84400009981F863
:1030B0004500FFE70099012081F83D0000208DF8D0
:1030C0000700FFE79DF8070002B080BD80B584B01F
:1030D000039003980068B0F1804F1BD1FFE7FFE732
:1030E0000020029043F64000C4F20200016841F063
:1030F00001010160006800F0010002900298FFE702
:103100001C20019000221146FFF79EF90198FFF75D
:1031100091F9FFE704B080BD80B586B004900391BB
:1031200000208DF80B00FFE7049890F83C00012880
:1031300004D1FFE702208DF81700ABE004990120CD
:1031400081F83C00FFE7FFE70499022081F83D0089
:103150000498006880680190019820F07700019041
:10316000019820F47F4001900198049909688860D3
:10317000039800680090002872D0FFE7009810289C
:103180006ED0FFE7009820286AD0FFE7009830282B
:1031900066D0FFE70098402855D0FFE700985028F8
:1031A00037D0FFE70098602840D0FFE700987028EC
:1031B0000BD0FFE70098B0F5805F05D0FFE70098DF
:1031C000B0F5005F16D052E055E004980068039B0C
:1031D0005A689968DB6801F075FA0498006880689D
:1031E0000190019840F077000190019804990968D6
:1031F000886040E004980068039B5A689968DB681F
:1032000001F060FA04980168886840F480408860A2
:1032100031E004980068039A5168D26801F082FA9C
:1032200004980068502101F067FA24E004980068CF
:10323000039A5168D26801F09DFA049800686021F1
:1032400001F05AFA17E004980068039A5168D268AE
:1032500001F068FA04980068402101F04DFA0AE094
:10326000049800680399096801F046FA03E0012018
:103270008DF80B00FFE70499012081F83D00FFE77E
:103280000499002081F83C00FFE79DF80B008DF8C1
:103290001700FFE79DF8170006B080BD81B00090D1
:1032A00001B0704780B584B0039003980068C0688F
:1032B000029003980068006901909DF8040080075F
:1032C000002824D5FFE79DF80800800700281DD5B9
:1032D000FFE7039801686FF002000861039901207D
:1032E0000877039800688069800720B1FFE703989A
:1032F000FFF7D4FF06E0039800F0E2F8039800F02F
:10330000E3F8FFE7039900200877FFE7FFE79DF860
:1033100004004007002825D5FFE79DF80800400776
:1033200000281ED5FFE7039801686FF004000861CC
:1033300003990220087703980068806910F4407FA1
:1033400004D0FFE70398FFF7A9FF06E0039800F019
:10335000B7F8039800F0B8F8FFE703990020087762
:10336000FFE7FFE79DF804000007002824D5FFE7EA
:103370009DF80800000700281DD5FFE703980168A5
:103380006FF008000861039904200877039800682B
:10339000C069800720B1FFE70398FFF77FFF06E0D1
:1033A000039800F08DF8039800F08EF8FFE703997A
:1033B00000200877FFE7FFE79DF80400C00600281B
:1033C00025D5FFE79DF80800C00600281ED5FFE7B9
:1033D000039801686FF010000861039908200877CE
:1033E00003980068C06910F4407F04D0FFE7039899
:1033F000FFF754FF06E0039800F062F8039800F02E
:1034000063F8FFE7039900200877FFE7FFE79DF8DF
:103410000400C00778B1FFE79DF80800C00748B175
:10342000FFE7039801686FF001000861039800F05E
:103430004FF8FFE7FFE79DF804000006002810D5CD
:10344000FFE79DF808000006002809D5FFE703986C
:1034500001686FF0800008610398FFF74FFDFFE7F8
:10346000FFE79DF804004006002810D5FFE79DF80F
:1034700008004006002809D5FFE7039801686FF0AF
:1034800040000861039800F027F8FFE7FFE79DF888
:1034900004008006002810D5FFE79DF8080080068C
:1034A000002809D5FFE7039801686FF02000086144
:1034B0000398FFF727FDFFE7FFE704B080BD00009A
:1034C00081B0009001B0704781B0009001B07047AA
:1034D00081B0009001B0704781B0009001B070479A
:1034E00082B00190ADF8021002B0704781B0009038
:1034F00001B0704780B592B01190119800680068D3
:10350000109011980068C0680F9011980068406989
:103510000E9000200D900C90109800F00F000D9070
:103520000D9888B9FFE79DF84000800600280AD56D
:10353000FFE79DF83C008006002804D5FFE71198BE
:1035400001F0B0F9EAE1FFE70D98002800F0C28031
:10355000FFE79DF83800C00738B9FFE7BDF83C0029
:1035600010F4907F00F0B680FFE79DF84000C007A0
:1035700058B1FFE79DF83D00C00730B1FFE7119952
:10358000486C40F001004864FFE79DF840004007A8
:1035900000280BD5FFE79DF83800C00730B1FFE7E2
:1035A0001199486C40F002004864FFE79DF8400024
:1035B000800700280BD5FFE79DF83800C00730B121
:1035C000FFE71199486C40F004004864FFE79DF85C
:1035D00040000007002811D5FFE79DF83C00800659
:1035E000002805D4FFE79DF83800C00730B1FFE799
:1035F0001199486C40F008004864FFE71198406C4E
:10360000002866D0FFE79DF84000800600280AD514
:10361000FFE79DF83C008006002804D5FFE71198DD
:1036200001F040F9FFE7119800684069C0F380108D
:103630000C901198406C0007002804D4FFE70C9808
:1036400000283ED0FFE7119801F0CEF811980068ED
:103650004069400600282FD5FFE7FFE7FFE71198F4
:10366000006850E8050F20F040000B90FFE70B9931
:103670001198026842E805100028F0D1FFE7FFE743
:103680001198C06B98B1FFE71198C16B44F2C970F3
:10369000C0F6000008651198C06BFEF7E9FB28B181
:1036A000FFE71198C06B016D8847FFE703E01198B1
:1036B000FFF71CFFFFE703E01198FFF717FFFFE795
:1036C00006E01198FFF712FF119900204864FFE708
:1036D000FFE723E11198006B012840F0FF80FFE72E
:1036E0009DF84000C006002840F1F880FFE79DF8F3
:1036F0003C00C006002840F1F180FFE7FFE7002012
:103700000A901198006800680A9011980068406853
:103710000A900A98FFE7119800684069400600285F
:1037200040F18280FFE71198C06B00684068ADF8F7
:103730002600BDF82600002875D0FFE7BDF826005A
:103740001199898D88426EDAFFE7BDF8260011993C
:10375000C8851198C06BC069B0F5807F58D0FFE76D
:10376000FFE7FFE71198006850E8030F20F480702E
:103770000890FFE708991198026842E803100028B2
:10378000F0D1FFE7FFE7FFE7FFE71198006850E897
:10379000050F20F001000790FFE7079911980268D4
:1037A00042E805100028F0D1FFE7FFE7FFE7FFE759
:1037B0001198006850E8050F20F040000690FFE7E0
:1037C00006991198026842E805100028F0D1FFE739
:1037D000FFE71199202081F8420011990020086329
:1037E000FFE7FFE71198006850E8030F20F0100092
:1037F0000590FFE705991198026842E80310002838
:10380000F0D1FFE7FFE71198C06BFEF7BBFAFFE7C7
:103810001199022048631198818DC28D891A89B24D
:10382000FFF75EFEFFE779E01199888DC98D401A98
:10383000ADF812001198C08D00284ED0FFE7BDF8FA
:103840001200002849D0FFE7FFE7FFE71198006862
:1038500050E8030F20F490700390FFE7039911984C
:10386000026842E803100028F0D1FFE7FFE7FFE716
:10387000FFE71198006850E8050F20F00100029062
:10388000FFE702991198026842E805100028F0D17C
:10389000FFE7FFE71199202081F8420011990020ED
:1038A0000863FFE7FFE71198006850E8030F20F076
:1038B00010000190FFE701991198026842E8031097
:1038C0000028F0D1FFE7FFE7119902204863119823
:1038D000BDF81210FFF704FEFFE71FE09DF840005F
:1038E000000600280AD5FFE79DF83C0000060028E6
:1038F00004D5FFE7119801F029F90FE09DF8400089
:10390000400600280AD5FFE79DF83C004006002845
:1039100004D5FFE7119800F0B1FFFFE712B080BDBA
:1039200080B582B00090009820B9FFE701208DF8A3
:10393000070040E00098806908B1FFE700E0FFE77A
:10394000009890F8410040B9FFE70099002081F805
:103950004000009800F034F8FFE70099242081F837
:10396000410000980168C86820F40050C8600098C1
:1039700001F04EF800980168086920F49040086151
:1039800000980168486920F02A00486100980168A1
:10399000C86840F40050C860009900204864009A4C
:1039A000202182F84110009A82F842100099486361
:1039B0008DF80700FFE79DF8070002B080BD00000A
:1039C00080B58AB009900020089007900690059075
:1039D00004900998006844F20041C4F20001884252
:1039E0003ED1FFE7FFE70020039043F64000C4F21A
:1039F0000200016841F400310160006800F4003009
:103A000003900398FFE7FFE70020029043F63000A1
:103A1000C4F20200016841F008010160006800F092
:103A2000080002900298FFE76020049002200590B1
:103A3000002000900690032007900720089040F691
:103A40000040C4F2020004A9FEF756FA009A2620AC
:103A500001901146FEF7F8FC0198FEF7EBFCFFE73A
:103A60000AB080BD81B0009001B0704780B58AB0C7
:103A700008900791ADF81A2005930020029008984D
:103A800090F84100202840F08180FFE7079820B19E
:103A9000FFE7BDF81A0020B9FFE701208DF82700E5
:103AA00078E00899002048640899212081F84100B5
:103AB000FEF732FC0290BDF81A0008998884BDF820
:103AC0001A000899C88408988068B0F5805F09D109
:103AD000FFE70898006928B9FFE7002004900798DD
:103AE000039004E00798049000200390FFE7FFE7AD
:103AF0000898C08C78B3FFE70898029B05996A463E
:103B000011608021002201F06BF840B1FFE70899B5
:103B1000202081F8410003208DF827003AE0049826
:103B200058B9FFE7039800886FF35F200899096888
:103B3000486003980230039008E0049800780899E0
:103B400009684860049801300490FFE70899C88C20
:103B50000138C884CCE70898029B05996A46116031
:103B60004021002201F03CF840B1FFE708992020F5
:103B700081F8410003208DF827000BE008992020F0
:103B800081F8410000208DF8270003E002208DF825
:103B90002700FFE79DF827000AB080BD81B00090A4
:103BA00001B07047FFE7FEE780B582B0052000F066
:103BB00087F8062000F0C6F801200021009100F0EF
:103BC0001DF8032000F0BEF800980190FFE701986F
:103BD000B0F5FA6F05DCFFE7FFE7019801300190CF
:103BE000F5E7032000F06CF8062000F069F80121E9
:103BF000084600F003F802B080BD000082B00190DA
:103C00000091009800F0030000900198052808D06A
:103C1000FFE70198062804D0FFE70198032815D193
:103C2000FFE701984100032000FA01F241F2000190
:103C3000C4F202010868904308600098019A52009B
:103C400000FA02F208681043086036E0019808287C
:103C500008D0FFE70198072804D0FFE7019809285A
:103C600015D1FFE701984100032000FA01F241F26B
:103C70000041C4F202010868904308600098019A6C
:103C8000520000FA02F208681043086014E001983C
:103C90004100032000FA01F241F60001C4F20201E2
:103CA0000868904308600098019A520000FA02F2F6
:103CB000086810430860FFE7FFE702B070470000A4
:103CC00081B000900098052808D0FFE700980628EA
:103CD00004D0FFE7009803280CD1FFE700990120EA
:103CE00000FA01F241F21401C4F2020108689043A3
:103CF000086024E00098082808D0FFE7009807280B
:103D000004D0FFE7009809280CD1FFE700990120B3
:103D100000FA01F241F21441C4F202010868904332
:103D200008600BE00099012000FA01F241F614014D
:103D3000C4F20201086890430860FFE7FFE701B0A2
:103D40007047000081B000900098052808D0FFE778
:103D50000098062804D0FFE7009803280CD1FFE75D
:103D60000099012000FA01F241F21401C4F20201AB
:103D700008681043086024E00098082808D0FFE78E
:103D80000098072804D0FFE7009809280CD1FFE726
:103D90000099012000FA01F241F21441C4F202013B
:103DA0000868104308600BE00099012000FA01F256
:103DB00041F61401C4F20201086810430860FFE7ED
:103DC000FFE701B07047000080B5002000F02CF93B
:103DD000012000F029F980BD80B586B00020059053
:103DE000FFE70598C82805DCFFE7FFE705980130E5
:103DF0000590F6E70520FFF763FF0320019000F030
:103E000013F9019800F010F9019800F00DF9022063
:103E1000049000F009F9049800F006F908200290D7
:103E200000F002F90020039000F0FEF8029800F084
:103E3000FBF8039800F0F8F8012000F0F5F803987B
:103E400000F0F2F8062000F0EFF8039800F0ECF82C
:103E50000F2000F0E9F8039800F0E6F8049800F06D
:103E6000E3F806B080BD000080B582B043F63001B3
:103E7000C4F20201086840F010000860086840F0D1
:103E800020000860086840F040000860052001211B
:103E90000191FFF7B3FE01990620FFF7AFFE0199EC
:103EA0000320FFF7ABFE01990820FFF7A7FE019959
:103EB0000720FFF7A3FE01990920FFF79FFE019954
:103EC0000846FFF79BFE41F20401C4F202010868B4
:103ED00020F07F00086041F20441C4F2020108684A
:103EE00020F07F00086041F60401C4F20201086876
:103EF00020F07F00086002B080BD000080B582B075
:103F00008DF807000520FFF71DFF0620FFF7D8FEFC
:103F10000320FFF717FF0820FFF7D2FE0720FFF767
:103F2000CFFE0920FFF7CCFE0120FFF7C9FE9DF868
:103F3000070000F010010020B0EB111F04D0FFE7D4
:103F40000820FFF7FFFEFFE79DF8070000F02001C3
:103F50000020B0EB511F04D0FFE70720FFF7F2FE6F
:103F6000FFE79DF8070000F040010020B0EB911F33
:103F700004D0FFE70920FFF7E5FEFFE79DF80710F3
:103F80000020B0EBD11F04D0FFE70120FFF7DAFEDD
:103F9000FFE703200090FFF793FE0098FFF7D2FEA3
:103FA0000820FFF78DFE0720FFF78AFE0920FFF7A4
:103FB00087FE0120FFF784FE9DF80700C00720B1AF
:103FC000FFE70820FFF7BEFEFFE79DF8070000F0BF
:103FD00002010020B0EB510F04D0FFE70720FFF7EC
:103FE000B1FEFFE79DF8070000F004010020B0EBF0
:103FF000910F04D0FFE70920FFF7A4FEFFE79DF82B
:10400000070000F008010020B0EBD10F04D0FFE75B
:104010000120FFF797FEFFE70320FFF751FEFFF7B0
:10402000C3FD02B080BD000080B582B08DF80700EE
:104030000620FFF745FE0520FFF742FE0320FFF7AD
:1040400081FE0820FFF73CFE0720FFF739FE09201C
:10405000FFF736FE0120FFF733FE9DF80700C0078B
:1040600020B1FFE70820FFF76DFEFFE79DF807008E
:1040700000F002010020B0EB510F04D0FFE7072051
:10408000FFF760FEFFE79DF8070000F00401002045
:10409000B0EB910F04D0FFE70920FFF753FEFFE7D5
:1040A0009DF8070000F008010020B0EBD10F04D00C
:1040B000FFE70120FFF746FEFFE70320FFF700FEC2
:1040C000FFF772FD02B080BD80B582B00190002084
:1040D00000900090FFE701980099405C50B1FFE725
:1040E00001980099405CFFF709FFFFE70098013055
:1040F0000090F0E702B080BD80B588B08DED070A72
:104100000020009006908DF8140004900390029017
:104110000190079801F012FF41EC100B53EC102BAB
:1041200046F26011C0F6000101A8FCF77DF9009885
:104130000690FFE7069901A8405C50B1FFE7069999
:1041400001A8405CFFF7DAFEFFE706980130069011
:10415000F0E708B080BD000080B5FFF785FEFFF7EF
:104160003BFE80BD80B586B000220092059204928D
:104170000392029240F27400C2F20000019042F2F7
:104180000001C4F2010101604260826002610276B6
:1041900080F82020C2620121C0F600718162C260F5
:1041A0000121C16180F830204161FDF7D5FB18B1D4
:1041B000FFE7FDF7A9FAFFE7052002900120039031
:1041C0000020049040F27400C2F2000002A9FDF742
:1041D0009FFA18B1FFE7FDF797FAFFE706B080BD39
:1041E00080B58EB000200D900C900B900A90099035
:1041F000FFE70020089043F63000C4F20200016897
:1042000041F001010160006800F001000890089889
:10421000FFE7FFE70020079043F63000C4F20200FA
:10422000016841F002010160006800F0020007909F
:104230000798FFE7FFE70020069043F63000C4F23E
:104240000200016841F008010160006800F0080008
:1042500006900698FFE740F20040C4F2020000908A
:104260000121029100220392FEF73EF8039A0020FA
:10427000C4F2020004904FF480610191FEF734F81B
:104280000098029A039909920A920B910C9109A93C
:104290000591FDF731FEDDF804C0029B039A0498F6
:1042A0000599CDF824C00A930B920C92FDF724FED9
:1042B0000EB080BD80B588B00021019107910691B4
:1042C000059104910391029140F2BC00C2F20000FA
:1042D0004FF08042026040F2E7324260816045F276
:1042E0000822C26001618161FEF7A2FE18B1FFE7FA
:1042F000FDF70AFAFFE74FF48050049040F2BC004B
:10430000C2F2000004A9FEF707FF18B1FFE7FDF7AE
:10431000FBF9FFE700200290039040F2BC00C2F2DC
:10432000000002A9FEF7F2FD18B1FFE7FDF7ECF976
:10433000FFE708B080BD000080B582B040F20410F5
:10434000C2F20000019044F20041C4F20001016099
:104350004FF4E131416000218160C16001610C22B4
:1043600042618161C161FFF7DBFA18B1FFE7FDF738
:10437000CBF9FFE702B080BDFFE7FEE7FFE7FEE70E
:1043800088B0079006910592079800F00700049006
:104390000498C0F10700052803D3FFE7042001902B
:1043A00004E00498C0F107000190FFE70198039032
:1043B00004980430062803D8FFE70020009003E0AB
:1043C000049803380090FFE700980290069803993C
:1043D000012202FA01F101390840029B9840059937
:1043E0009A40013A1140084308B0704770470000F6
:1043F0007047000080B582B0009000980138B0F19D
:10440000807F03D3FFE70120019019E00098013875
:104410004EF21401CEF2000108604FF0FF300F2180
:1044200000F076FC4EF21801CEF200010020086088
:104430004EF21002CEF20002072111600190FFE758
:10444000019802B080BD000080B5FDF76BFF80BD14
:1044500080B594B008A83021FBF7FCFF002007903E
:104460000690059004900390FFE70020029043F629
:104470004000C4F20200016841F080510160006810
:1044800000F0805002900298FFE7FFE700200190C3
:1044900047F20000C4F200000168012262F38F318C
:1044A0000160006800F4404001900198FFE702209D
:1044B000089001200B9010200C9000200E9008A86E
:1044C000FEF7B4F918B1FFE7FDF71EF9FFE70F207B
:1044D00003900021049105910691079103A8FDF72F
:1044E000D5FF18B1FFE7FDF70FF9FFE714B080BD66
:1044F0004EF68851CEF20001086840F47000086062
:104500007047000080B540F2BC00C2F20000FEF728
:10451000C9FE80BD83B002900191029800680090AE
:1045200002980021C4F20101884225D0FFE70298D9
:10453000B0F1804F20D0FFE7029840F20041C4F272
:104540000001884218D0FFE7029840F60001C4F24B
:104550000001884210D0FFE7029840F60041C4F203
:104560000001884208D0FFE7029840F20041C4F2FF
:10457000010188420AD1FFE7009820F07000009006
:1045800001984168009808430090FFE702980021D5
:10459000C4F20101884255D0FFE70298B0F1804F84
:1045A00050D0FFE7029840F20041C4F20001884277
:1045B00048D0FFE7029840F60001C4F200018842AB
:1045C00040D0FFE7029840F60041C4F20001884263
:1045D00038D0FFE7029840F20041C4F2010188425E
:1045E00030D0FFE7029844F20001C4F20101884292
:1045F00028D0FFE7029844F20041C4F2010188424A
:1046000020D0FFE7029844F60001C4F2010188427D
:1046100018D0FFE7029841F60001C4F20001884279
:1046200010D0FFE7029841F60041C4F20001884231
:1046300008D0FFE7029842F20001C4F2000188426C
:104640000AD1FFE7009820F4407000900198C168FB
:10465000009808430090FFE7009820F0800001993F
:1046600049690843009000980299086001988068A1
:104670000299C86201980068029988620298002134
:10468000C4F20101884208D0FFE7029840F20041DD
:10469000C4F20101884205D1FFE70198006902993F
:1046A0000863FFE702990120486102980069C0078A
:1046B00030B1FFE70299086920F001000861FFE7C7
:1046C00003B0704785B0049003910292019304985F
:1046D00080680090009820F47F4000900398029931
:1046E000019A41EA02210143009808430090009892
:1046F0000499886005B0704783B0029001910298D8
:1047000080680090009820F0700000900198009957
:10471000084340F00700009000980299886003B0B9
:104720007047000085B00490039102920498006ADB
:1047300000900499086A20F00100086204988069DA
:104740000190019820F0F00001900299019840EA50
:1047500001100190009820F00A0000900399009841
:1047600008430090019804998861009804990862B0
:1047700005B0704785B00490039102920498006AD6
:1047800000900499086A20F010000862049880697B
:104790000190019820F4704001900299019840EA3C
:1047A00001300190009820F0A0000090039900983B
:1047B00040EA0110009001980499886100980499DA
:1047C000086205B07047000080B582B00190019882
:1047D000806B009000990020C8850099C8840098DB
:1047E000FEF784FE02B080BD84B00390FFE7FFE7D0
:1047F0000398006850E8030F20F490700290FFE7E0
:1048000002990398026842E803100028F0D1FFE7FC
:10481000FFE7FFE7FFE70398006850E8050F20F087
:1048200001000190FFE701990398026842E8051032
:104830000028F0D1FFE7FFE70398006B012814D1AF
:10484000FFE7FFE7FFE70398006850E8030F20F059
:1048500010000090FFE700990398026842E80310F7
:104860000028F0D1FFE7FFE7FFE70399202081F858
:10487000420003990020086304B0704780B582B0FD
:10488000019001980168C86820F04000C860019953
:10489000202081F841000198FFF780F9002002B044
:1048A00080BD000080B586B00490049890F8420066
:1048B000222840F0A480FFE704988068B0F5805F6C
:1048C00015D1FFE70498006988B9FFE7002003903D
:1048D0000498806A02900498006840686FF35F2033
:1048E000029908800499886A0230886225E0049859
:1048F000806A03900020029004988068B0F5805F81
:1049000008D0FFE70498806850B9FFE70498006971
:1049100030B9FFE70498006840680399087007E021
:1049200004980068406800F07F0003990870FFE772
:104930000499886A01308862FFE70499C88D0138BC
:10494000C8850004002856D1FFE704980168C868AC
:1049500020F02000C86004980168C86820F48070C6
:10496000C86004980168486920F001004861049912
:10497000202081F842000499002048630498006BCD
:10498000012830D1FFE7049900200863FFE7FFE723
:104990000498006850E8030F20F010000190FFE732
:1049A00001990498026842E803100028F0D1FFE75B
:1049B000FFE7049800680068C00600280ED5FFE7EE
:1049C000FFE70020009004980068006800900498B9
:1049D0000068406800900098FFE7FFE70498818D29
:1049E000FEF77EFD03E00498FFF73CF8FFE70020A8
:1049F0008DF8170007E000208DF8170003E0022073
:104A00008DF81700FFE79DF8170006B080BD000085
:104A100080B586B0059005980068006920F4405084
:104A2000059A1168D26810430861059988680B6976
:104A30004A69C969184310430843049005980068FF
:104A4000C06849F20C6188430499084305990968D4
:104A5000C86005980068406920F44070059A1168A4
:104A60009269104348610598006841F20001C4F260
:104A70000101884209D0FFE70598006841F2004132
:104A8000C4F20101884204D1FFE7FDF749FE03901B
:104A900003E0FDF733FE0390FFE70598C069B0F52A
:104AA000004F29D1FFE703981921A0FB0101059AC6
:104AB0001368029353685A00DB0FFBF73DFC029921
:104AC000864648F21F53C5F2EB13AEFB03204209A2
:104AD00010014FF0640C02FB1CEC322202EBCC0202
:104AE000A2FB0332F82303EA521300EB4300C2F3A4
:104AF00042121044886026E003981921A0FB0101AE
:104B0000059A1368019353689A009B0FFBF714FCF6
:104B10000199844648F21F52C5F2EB12ACFB0230F9
:104B20004309642003FB10CC322000EB0C10A0FBE7
:104B30000202F02000EA521000EB0310C2F343120D
:104B400010448860FFE706B080BD000083B001908C
:104B5000019890F8410021283AD1FFE70198806838
:104B6000B0F5805F13D1FFE70198006978B9FFE7DE
:104B70000198006A0090009800886FF35F20019907
:104B8000096848600199086A0230086208E0019AE1
:104B9000106A411C11620078019909684860FFE7BA
:104BA0000199C88C0138C884000468B9FFE70198EE
:104BB0000168C86820F08000C86001980168C86872
:104BC00040F04000C860FFE700208DF80B0003E0D4
:104BD00002208DF80B00FFE79DF80B0003B0704733
:104BE00080B586B0DDF820C0049003918DF80B20CD
:104BF0000193FFE704980068006803990840401A91
:104C0000B0FA80F040099DF80B1088424DD1FFE7C3
:104C100008980130002847D0FFE7FDF77DFB019998
:104C2000401A0899884203D8FFE7089820B9FFE79F
:104C300003208DF817003CE004980068C068400726
:104C4000002830D5FFE7039880282CD0FFE7039891
:104C5000402828D0FFE704980068006800F00801A9
:104C60000120B0EBD10F1DD1FFE7FFE7002000903E
:104C700004980068006800900498006840680090FC
:104C80000098FFE70498FFF7AFFD049908204864F7
:104C9000FFE70499002081F84000FFE701208DF82C
:104CA000170006E0FFE7FFE7A4E700208DF81700F4
:104CB000FFE79DF8170006B080BD000080B540F208
:104CC0000410C2F20000FEF715FC80BDFFE7FEE70E
:104CD00081B08DF803009DF9030000280ED4FFE792
:104CE0009DF9031001F01F02012090404A094EF285
:104CF0000011CEF2000141F82200FFE701B0704739
:104D00004EF60C50CEF200000068C0F3022070474F
:104D100082B08DF8070000919DF9070000280AD4A1
:104D2000FFE7009800019DF907104EF20042CEF215
:104D3000000288540BE0009800019DF8071001F074
:104D40000F014EF61452CEF200028854FFE702B073
:104D50007047000083B00290029800F007000090B6
:104D60004EF60C51CEF200010868019001984FF602
:104D7000FF02104001900198009A40EA02200022B0
:104D8000C0F2FA52104301900198086003B07047D6
:104D900080B584B000200390FDF7D2FAFFF758FBEE
:104DA000FFF71EFAFFF7DEF9FFF784FAFFF7C4FA00
:104DB000FFF7D2F946F25410C0F60000FFF784F96D
:104DC000FFE7FFF701F840F27400C2F20000009024
:104DD000FCF7F0FE00984FF0FF31FCF755FE00980D
:104DE000FCF7B2FD0146009840F25012C2F20002F8
:104DF0001160FCF7A9FD00F0A2FE41EC100B9FED45
:104E0000281B53EC112B51EC100B00F0ABFE41ECC6
:104E1000100B51EC100B9FED240B53EC102B00F0FA
:104E200007FD41EC100B51EC100B9FED210B53ECE7
:104E3000102B00F055FC41EC100B51EC100B00F066
:104E400051FE014640F24C10C2F2000001600168C0
:104E5000C1F3032140F27002C2F2000201925170CC
:104E60000168117000684CF6CD41CCF6CC41A0FB36
:104E70000110C00800EE100AB8EE400AFFF73CF936
:104E80004FF47A700290FDF715F80199029B40F2F9
:104E90000410C2F200000222FEF7E8FD91E700BF15
:104EA00000000000008076400000000000D08B4031
:104EB00000000000000074405FEA400C08BF91F061
:104EC000000F4FEA8C234FEAC12243EA51514FEAC7
:104ED0001C5018BF00F5F0404FEA300018BF41F0F9
:104EE00000415FEA6C5C00F02980BCF1FF3F08BF25
:104EF00040F080407047130C06BF12044FF0100CB6
:104F00004FF0000C130E04BF12020CF1080C130F2B
:104F100004BF12010CF1040C930F04BF92000CF1BA
:104F2000020CD30F04BF52000CF1010C11464FF0DC
:104F30000002A0F11F00A0EB0C00704711F0004F21
:104F400008BF704731F000413FF4D5AF0B0C06BFEE
:104F500009044FF0100C4FF0000C0B0E04BF0902B7
:104F60000CF1080C0B0F04BF09010CF1040C8B0FA2
:104F700004BF89000CF1020CCB0F04BF49000CF1F7
:104F8000010CCCF1200322FA03F341EA030102FAF7
:104F90000CF2A0EB0C0000F10100704723F07F47FA
:104FA00020F07F4C80EA030000F00040ACEB0703E8
:104FB00003F57C5303F1FF032DE9804909B44FEA5F
:104FC000144324EA03484FEA154B25EA0B4E0FF22F
:104FD000042606EB13273E7803FB0667C7F5000798
:104FE00007FB06F64FEAD64606F102064FEA5437AB
:104FF00007FB066CCCF1005C4FEA1C472CEA074C1F
:105000000CFB06F507FB06F404EB15464FEA961673
:1050100049085FEA320234BF00204FF000404FEAF7
:10502000D13706FB07FC4FEA1C4C0CFB0BF7D21BDD
:1050300003FB0CF761EB07010CFB0EF7B0EB07402D
:1050400072EB17420CFB08F734BFA2EB0742B2EB3E
:10505000074261EB17414FEA0C444FEA910706FB08
:1050600007FC4FEA1C4C0CFB0BF7B0EBC74072EB94
:10507000573203FB0CF734BFA2EBC742B2EBC74277
:1050800061EB57310CFB0EF7B0EBC70072EB5772B8
:105090000CFB08F734BFA2EBC702B2EBC70261EB0F
:1050A00057714FEA816141EA92114FEA826242EA06
:1050B00090124FEA806004EBCC04039F4FEAD13793
:1050C00006FB07FC4FEA1C4C0CFB0BF7D21B03FB47
:1050D0000CF761EB07010CFB0EF7B0EB074072EB2E
:1050E00017420CFB08F734BFA2EB0742B2EB0742B2
:1050F00061EB17414FEA8C5504EB9C244FEA910772
:1051000006FB07FC4FEA1C4C0CFB0BF7B0EBC7404F
:1051100072EB573203FB0CF734BFA2EBC742B2EB82
:10512000C74261EB57310CFB0EF7B0EBC70072EBD7
:1051300057720CFB08F734BFA2EBC702B2EBC702F1
:1051400061EB57714FEA816141EA92114FEA826245
:1051500042EA90124FEA806015EB4C2544F10004BE
:105160004FEAD13706FB07FC4FEA1C4C0CFB0BF750
:10517000D21B03FB0CF761EB07010CFB0EF7B0EB46
:10518000074072EB17420CFB08F734BFA2EB074253
:10519000B2EB074261EB17414FEA813141EA92419C
:1051A0004FEA823242EA90424FEA80304FEA0C7670
:1051B00015EB1C1544F1000448EA03434EEA0B4882
:1051C0004FF0000EB2EB080C71EB030724BF6246F0
:1051D00039464EEB0E0E4FF0000B0018524149417C
:1051E0004BEB0B0BB2EB080C71EB03077BF1000BE5
:1051F00024BF624639464EEB0E0E4FF0000B0018EE
:10520000524149414BEB0B0BB2EB080C71EB03071E
:105210007BF1000B24BF624639464EEB0E0E51EA7D
:10522000020718BF46F0010616EB0E7655F1000294
:1052300054F1000103D5BDE88901BDE80088BDE84F
:105240008901BDE80048B619524141EB0101A3F1C3
:105250000103704780807F7E7D7C7B7A79787776CA
:1052600076757473727171706F6E6E6D6C6C6B6A43
:105270006A696868676666656464636362616160E1
:10528000605F5F5E5E5D5D5C5C5B5B5A5A5959585E
:1052900058575756565555555454535352525251C8
:1052A000515050504F4F4F4E4E4D4D4D4C4C4C4B1E
:1052B0004B4B4A4A4A494949484848474747474665
:1052C00046464545454444444443434343424242A1
:1052D000424141419C46002B30D477002BD04FEA0D
:1052E00037071CB503B44FF010004FF01001BAF1AE
:1052F000000F06D0BCF1000FDCBF40F0080040F00A
:1053000008014FF000000FBCBDE810400BF1010B8D
:10531000BBF1010F08BF5FEA170722BF12F10102BC
:1053200011F101014FF0004143F1000300F0004092
:1053300043EA00007047F9D35708D0E746EA06462B
:105340004FEA164613F1400F1FDD13F1200FDFBFA8
:1053500016430A46002120335B42BED0C3F120072A
:1053600046EA06464FEA164602FA07F746EA0706F5
:1053700022FA03F2C3F1200701FA07F742EA070213
:1053800021FA03F14FF00003A7E746EA020646EAD6
:1053900006464FEA164646EA0106BCBF46EA0646FE
:1053A000360C4FF000034FF000024FF0000194E77D
:1053B0002DE9804C70B49A46934691E8380007C8AE
:1053C00031EA400C48BF34EA430C03D5FFF7E6FD51
:1053D000FFF780FFF0BCBDE8008C2DE9804C70B475
:1053E0009A46934691E8380007C810F0804F08BFEE
:1053F00013F0804F03D100F005F8FFF76BFFF0BC0E
:10540000BDE8008C20F07F4723F07F4C80EA03004A
:1054100000F0004007EB0C03A3F57C53A3F1FE035F
:1054200092F0000F00F0B38095F0000F00F077804D
:105430002DE901494FEA114021EA00484FEA14469C
:1054400024EA064700FB06FC08FB06F607FB08F803
:1054500018EB06484CEB164C00FB07F718EB074817
:105460004CEB17404FEA124B22EA0B4E4FEA15461F
:1054700025EA06470BFB06FC0EFB06F607FB0EFEB5
:105480001EEB064E4CEB164C0BFB07F71EEB074EC4
:105490004CEB174B18EB0B0840F1000018EB0E0B10
:1054A00058EB000840F100008F1A4FF000014FF058
:1054B00000063CBFC943661B14BFB5EB040C0021BA
:1054C0003CBFC943F61B4FEA174427EA04454FEA9D
:1054D0001C472CEA074C04FB076205FB07F70CFB93
:1054E00005F616EB074642EB174204FB0CFC16EBE5
:1054F0000C4642EB1C421BEB060658EB02024141F4
:105500004EEA8E0E46EA9E0601D5BDE80189B6191F
:10551000524141EB0101A3F10103BDE801894FEACA
:10552000144524EA05464FEA114721EA074C05FBDA
:1055300007F406FB07F70CFB06F111EB074144EB00
:10554000174405FB0CFC11EB0C4144EB1C444FEAE7
:10555000124722EA074C05FB07F206FB07F70CFB94
:1055600006F616EB074642EB174205FB0CFC16EB62
:105570000C4642EB1C456A1854F1000148BF7047C5
:10558000B619524141EB0101A3F10103704795F0B7
:10559000000F37D04FEA114221EA02464FEA144782
:1055A00024EA074C02FB07F106FB07F70CFB06F4A5
:1055B00014EB074441EB174102FB0CFC14EB0C44C9
:1055C00041EB1C414FEA154725EA074C02FB07F562
:1055D00006FB07F70CFB06F616EB074645EB1745EF
:1055E00002FB0CFC16EB0C4645EB1C42121951F168
:1055F000000148BF7047B619524141EB0101A3F1C8
:10560000010370474FEA144524EA05464FEA114763
:1056100021EA074C05FB07F106FB07F70CFB06F236
:1056200012EB074241EB174105FB0CFC12EB0C425D
:1056300051EB1C414FF0000648BF7047921841EBF8
:105640000101A3F10103704703B4019841000098E0
:1056500050EAC12018BF04204A0D18BF40F00100D5
:1056600040F2FF72B2EB515F08BF40F00200012828
:1056700008BF052002B0704730380A2801D2012047
:10568000704700207047000010B500290AD0087844
:10569000002807D005487844FBF726FF002801D0F2
:1056A000002010BD0248784410BD0000EE0A000042
:1056B000E60A000010B500290AD00878002807D0B3
:1056C00005487844FBF710FF002801D0002010BDEA
:1056D0000248784410BD0000DE0A0000D60A00002F
:1056E00010B591EA030F48BF83F0004300F14083F7
:1056F000841A71EB030C05D2121943EB0C03001B47
:1057000061EB0C014FEA1154A4EB135CDFF81CE1D0
:105710001EEA430F18BF9EEA445F00F0748021EA3E
:10572000045123EA0E0343F48013DCF1200E32D33C
:1057300022FA0CFE10EB0E0023FA0CFE41EB0E01D8
:10574000CCF1200E03FA0EFE10EB0E00CCF1200E71
:1057500051F10001B1F5801F32D201EB045112FA70
:105760000EF2BDE8104058BF7047401C38BF5FEADA
:10577000420218BF7047002814BF20F0010041F119
:1057800000014FEA410313F5001F38BF7047A1F134
:10579000C04100F0DFBA012A43EB0302ACF1200C58
:1057A000DCF11F0E32BF4FF0000E23FA0CF310EBAA
:1057B000030041EB0451B4EB115FD0D0A1EB0451D5
:1057C00001F58011490801EB04515FEA30000ED366
:1057D00050F1000038BF12FA0EFE08D1BDE81040AB
:1057E000C9E7401C38BF5FEA4202CAD1C3E7BDE83F
:1057F00010404FEA410313F5001F38BF7047A1F175
:10580000C04100F0A7BA9EEA445F08D011EA5E0FDB
:10581000BDE8104004BF01F0004100207047BDE822
:10582000104070B500F048FA64FBBE3E0000E0FF97
:105830002DE9C04130B4DFF8A4C23CEA111418BF0E
:105840003CEA131400F0ED801CEA111481EA030510
:1058500044EAD57418BF1CEA131500F0C880A4EB05
:10586000050404F17F7404F500344FF0004545EA67
:10587000C12145EAC32341EA505143EA52534FEA5A
:10588000C0204FEAC222994208BF904200F09D809A
:105890004FEA13650FF24416765D4FEA134506FB97
:1058A00005F7C7F1807706FB07F74FEAD737A7FB65
:1058B00003687642A7FB06CEC8F5803838BFA8F14A
:1058C000010807FB08E6A6FB028C4FF0000EE6FB82
:1058D00003CEDCF1000CCEF1004E38BFAEF1010E6C
:1058E000A6FB0C584FF00007E6FB0E87A1FB08C68D
:1058F000A0FB07CE16EB0E064FF0000545F10005A4
:10590000E1FB076515F1E04E7EBFA4F580345FEA48
:1059100046066D4116F1800745F100054FEA17274D
:1059200047EA05674FEA15254FEA0666A6F1DE4607
:10593000B6F1805F20D9384605EBC47124F0010C24
:1059400001EB0C11BCF1FE6F02D8F0BCBDE8008188
:1059500024425CBF01F5801E9EEAC47F02D4F0BCE5
:10596000BDE80081244200F13980A1F1C041F0BCC2
:10597000BDE8004100F0EEB94FEAD02040EA4150C6
:105980004FEAD1214FEAD22242EA43524FEAD323CF
:10599000A7FB028607FB036605FB02661EEA0E0FE5
:1059A00058BFA6EB0056B6EB00564FEA520E4EEA31
:1059B000C37E18EB0E0E56EB530EBCD518EB020847
:1059C0005E417F1C55F10005B5E74FF480154FF09F
:1059D00000074FF000064FF00008ACE701F1C041AE
:1059E00001F000414FF00000F0BCBDE800810CEA7E
:1059F000131511EA0C1F00D00CE013EA0C1F00F085
:105A000026804FF0000081EA030101F00041F0BC64
:105A1000BDE80081F0BCBDE8004181EA030100F06F
:105A200099B9F0BCBDE8004170B500F045F900BF80
:105A3000097EFC3E00F007B84FF0000081EA030148
:105A400001F00041704781EA030100F083B9F0BC26
:105A5000BDE8004122494FF000007047FFFDFBF90F
:105A6000F7F5F4F2F0EEEDEBE9E8E6E4E3E1E0DE91
:105A7000DDDBDAD8D7D5D4D3D1D0CFCDCCCBCAC803
:105A8000C7C6C5C4C2C1C0BFBEBDBCBBBAB9B8B72A
:105A9000B6B5B4B3B2B1B0AFAEADACABAAA9A8A81D
:105AA000A7A6A5A4A3A3A2A1A09F9F9E9D9C9C9BEB
:105AB0009A99999897979695959493939291919096
:105AC0008F8F8E8E8D8C8C8B8B8A89898888878727
:105AD0008685858484838382828181800000FF079C
