:020000040800F2
:10000000580700204D0200085D1B000899190008E0
:10001000591B00084D0500082521000800000000BC
:10002000000000000000000000000000911B00081C
:1000300051050008000000008D1B0008C51B0008CA
:1000400067020008670200086702000867020008EC
:1000500067020008670200086702000867020008DC
:1000600067020008670200086702000867020008CC
:1000700067020008670200086702000867020008BC
:1000800067020008670200086702000867020008AC
:10009000670200086702000867020008670200089C
:1000A000670200086702000867020008670200088C
:1000B000691C000867020008670200086702000860
:1000C000670200086702000867020008670200086C
:1000D000670200086702000815210008670200088F
:1000E000670200086702000867020008670200084C
:1000F000670200086702000867020008670200083C
:10010000670200086702000867020008670200082B
:10011000670200086702000867020008670200081B
:10012000670200086702000867020008670200080B
:1001300067020008670200086702000867020008FB
:1001400067020008670200086702000867020008EB
:1001500067020008670200086702000867020008DB
:1001600067020008670200086702000867020008CB
:10017000670200086702000867020008000000002C
:1001800067020008670200086702000867020008AB
:10019000670200086702000867020008670200089B
:1001A00067020008670200086702000800F002F812
:1001B00000F03CF80AA090E8000C82448344AAF1C5
:1001C0000107DA4501D100F031F8AFF2090EBAE8C3
:1001D0000F0013F0010F18BFFB1A43F0010318477B
:1001E000EC2500000C260000103A24BF78C878C126
:1001F000FAD8520724BF30C830C144BF04680C602D
:10020000704700000023002400250026103A28BF74
:1002100078C1FBD8520728BF30C148BF0B60704778
:100220001FB502F0B9FA1FBD10B510BD00F0D0F82F
:100230001146FFF7F5FF01F0B3FF00F0EEF803B44D
:10024000FFF7F2FF03BC00F0F5F800000948804713
:1002500009480047FEE7FEE7FEE7FEE7FEE7FEE7A8
:10026000FEE7FEE7FEE7FEE704480549054A064BC0
:1002700070470000551C0008AD010008580100201F
:1002800058070020580300205803002053EA020CAE
:1002900000F069802DE9F04B4FF00006002B1FBFE6
:1002A000B3FA83F503FA05F424FA05F65E4012BFAB
:1002B0001643B2FA82F502FA05F4C5F120051EBF15
:1002C00022FA05FC44EA0C04203556EA044C4FEAB5
:1002D000144418BF641C4FF000084FF0000990420E
:1002E00071EB030C39D3002919BFB1FA81F701FA78
:1002F00007F6B0FA80F700FA07F6C7F120071EBF2D
:1003000020FA07FC46EA0C062037B6FBF4FCA7EB04
:100310000507103F07F01F0BCBF120062CFA06F65D
:100320000CFA0BFB44BFB3460026202FA4BF5E4649
:100330004FF0000B5BEA060C08BF4FF0010B19EB06
:100340000B0948EB0608ABFB027C06FB02CC0BFB5F
:1003500003CCC01B71EB0C01C1E70B4602464146C2
:100360004846BDE8F08B13B5084318BF4FF0FF3087
:100370000146AFF30080BDE81C4070474FF000021B
:1003800000B5134694469646203922BFA0E80C508B
:10039000A0E80C50B1F12001BFF4F7AF090728BF66
:1003A000A0E80C5048BF0CC05DF804EB890028BFE2
:1003B00040F8042B08BF704748BF20F8022B11F00B
:1003C000804F18BF00F8012B704770477047704787
:1003D000754600F02BF8AE4605006946534620F0FE
:1003E0000700854618B020B5FFF73EFFBDE8204066
:1003F0004FF000064FF000074FF000084FF0000BE1
:10040000AC46ACE8C009ACE8C009ACE8C009ACE84F
:10041000C00921F007018D46704710B50446AFF3BF
:1004200000802046BDE81040FFF709BF0048704734
:100430001000002001491820ABBEFEE72600020094
:100440007047000010B542F20432C4F20102116894
:1004500021F440311160D2F800C090E80A4043EA2C
:100460000C03C46813604A6822F480724A6002690F
:100470004B6843EA02224A604A6822F040724A60AE
:100480004A6842EA0E024A608A6822F400628A6080
:100490008A6822438A60826A8B68012423F0706331
:1004A0008B608B68C0F60074A24202D123F04052E8
:1004B00008E01A438A608A6822F040528A60C26A61
:1004C0008B681A438A608A6822F002028A608A680E
:1004D000037E90F8204042EA43028A604A6884B171
:1004E00042F400624A604A684EF2000322F460421D
:1004F0004A60426ACFF6FF734C6803EB42322243F4
:1005000001E022F400624A60CA6A40F2000C22F460
:100510007002CA62C3694269CFF6F07CCC6A0CEB08
:1005200003532343CB628B6823F400738B6090F8F2
:1005300030008B6843EA40208860886820F480603F
:100540008860886840EA8220886010BDFEE700006D
:100550007047000072B600BFFEE7000070B581B0C2
:100560000022009290F83C20012A01D1022186E06D
:100570000E6801221FFA86FC80F83C204FEA4C02EC
:1005800012FA86F302680A2E32BF10321E3B0C327A
:100590004FF0070E15680EFA03F4A54315608D6839
:1005A000146805FA03F3234313604968062906D843
:1005B000026801EB8101053902F134030AE00C29DC
:1005C00001EB8101026887BF413902F12C03233915
:1005D00002F130031F221C688A4024EA02021A60DA
:1005E0001A680CFA01F1114342F2043E1960C4F298
:1005F000010E0168122EAEF5417208BF914202D081
:10060000914239D10DE0DEF8003023F40003CEF83A
:100610000030DEF8003043F48003CEF80030914221
:100620002AD11221C1F200018E4201D0112E23D114
:10063000DEF800208E4222F48002CEF80020DEF8A0
:10064000002042F40002CEF8002015D140F2000153
:10065000C2F2000109684DF68362C4F21B32A1FBAD
:100660000212910C01EB8101490000BF0091009939
:1006700011B100990139F9E7002180F83C100846D2
:1006800001B070BD0068C06C70470000B0B510B319
:100690000446006C30B9204600F020F80020606469
:1006A00084F83C00206C0125C0060FD4206C41F278
:1006B00002118843023020642046FFF7C3FE002069
:1006C0006064206C65F3010000252064002084F83C
:1006D0003C002846B0BD0120B0BD000080B586B00A
:1006E00042F200010068C4F2010100228842059232
:1006F000CDE903220292019201D006B080BD43F6FB
:1007000030000092C4F20200436943F480734361F5
:10071000436903F480730093009B0092036843F0E5
:1007200001030360006800F00100009000982020A1
:1007300001900320CDE9020201F5604001A900F01B
:100740005BF906B080BD0000F0B581B004460068DA
:100750000D468268520544BF80685FEAC0502BD4C2
:1007600000F01EFA21680A68920715D406466F1C2D
:1007700008E000BF20680068800727D52168086866
:10078000800709D4002FF9D0002DF3D000F008FA2B
:10079000801BA842EED8F1E76FF012000860206CD1
:1007A00040F400702064886810F0405F01D1207E22
:1007B000B0B1002001B0F0BD206C40F020002064FA
:1007C000002084F83C00012001B0F0BD206C40F016
:1007D00004002064002084F83C00032001B0F0BD38
:1007E000C86A10F4700F02D088684005E1D4206C0C
:1007F00020F480702064206CC004DAD4206C40F0B7
:1008000001002064D5E7000081B00021009190F83C
:100810003C10012902BF022001B07047012201688B
:1008200080F83C208A68D20718D18A684DF6836325
:1008300042F001028A6040F20002C2F20002126835
:10084000C4F21B33A2FB03239A0C02EB420200BF4B
:100850000092009A12B1009A013AF9E78B68026C93
:10086000DB0707D142F010010164416C41F0010146
:10087000416458E040F201739A4302F580720264C9
:100880004A68520504D5026C012363F30D320264F9
:10089000026C0023D2044FF0000244BF426C22F0ED
:1008A000060242F2043C426480F83C306FF02200C1
:1008B000C4F2010C0860DCF80000C0060DD0ACF5F5
:1008C000417081422FD14FF60450CFF6FF705CF893
:1008D000000010F0405F26D121E042F20000C4F297
:1008E0000100814217D042F20020C4F2010081428F
:1008F0000DD042F20010C4F20100814213D1DCF8A5
:100900000000C00607D0ACF5827081420BD1DCF844
:100910000000C00607D4886810F0405F03D18868E3
:1009200040F080408860002001B0704770B5866D4F
:10093000044600F035F994F83510022925D1054612
:100940002068216C026822F016020260426922F0DF
:100950008002426109B9A16C19B1016821F0080156
:100960000160016821F00101016000BF206800689A
:10097000C0070ED000F014F9401B0628F6D3202043
:100980006065032084F835000CE08020606501205C
:1009900008E0E06D3F2101FA00F0B060012084F82A
:1009A00035000020002184F8341070BD90F8351017
:1009B000022909D1052180F835100068016821F06D
:1009C00001010160002070478021416501207047CE
:1009D000B0B5044600F0E4F8054640F20400C2F267
:1009E00000000078611C18BF044400BF00F0D8F874
:1009F000401BA042FAD3B0BD2DE9F04F83B000F107
:100A00003E4202F1FF724FEAB22242F200470192E7
:100A1000C4F202070A224FF0010E00254FF0000A2F
:100A20004FF00008B84208BF092200920AE000BF58
:100A300008F101080AF1040AB8F1100F05F10205E6
:100A400000F0A4800C680EFA08FB14EA0B09EFD042
:100A50004C6804F0030CACF1010EBEF1010F11D88B
:100A60000322876802FA05F6CA68B743AA403A43E8
:100A700082604268C4F3001722EA0B0207FA08F703
:100A80003A434260BCF1030F1CD0C26803238E6856
:100A900003FA05F7BA4306FA05F73A43BCF1020F29
:100AA000C2600FD16FF0030202EA580202440AF05A
:100AB0001C060F23176A03FA06F40B69A743B34019
:100AC0003B431362026803234F68AB409A4307F02D
:100AD0000303AB401A4317F4403F4FF0010E02608E
:100AE000A6D0002243F644030292C4F202031A681D
:100AF00043F6004442F480421A601A68C4F20104CA
:100B000002F480420292029A28F003024FF6084B48
:100B10002244CFF6FF7B52F80B300AF00C070F2669
:100B2000BE4023EA060C019B009E092B38BF1E46DF
:100B300006FA07F747EA0C0342F80B30A2684B6845
:100B400042EA090743F60C4CDE0258BF22EA0907C5
:100B5000A760C4F2010CDCF800209E0242EA0907FB
:100B600058BF22EA0907CCF8007062689E0342EA87
:100B7000090758BF22EA090767602268DB0342EAD7
:100B8000090358BF22EA0903236051E703B0BDE817
:100B9000F08F0000002A08BF09048161704700003F
:100BA00040F25410C2F200000068704740F20400A6
:100BB00040F25411C2F20000C2F2000100780A684B
:100BC000104408607047000080B543F60040C4F24E
:100BD0000200016841F400710160016841F4806124
:100BE0000160016841F480710160032000F060F849
:100BF0000F2000F005F800F02BF8002080BD000069
:100C0000B0B540F20402C2F2000240F200011278D4
:100C1000C2F200014FF47A730968B3FBF2F20446A2
:100C2000B1FBF2F1084600F0F9FA0F2C4FF0010584
:100C30000CD858B94FF0FF3021460022002500F0B3
:100C400027F840F20800C2F2000004602846B0BD58
:100C500082B0002043F640010190C4F202014A68CC
:100C600042F480424A604A6802F480420192019A4A
:100C70000090086840F080500860086800F08050DC
:100C80000090009802B0704780B501F04DFA80BD29
:100C900070B514460D46064601F056FA294622461E
:100CA00000F05EFF0146304601F056FA70BD0000CC
:100CB00080B501F063FA80BD2DE9F041002800F015
:100CC0008B8043F60808C4F202080446D8F8F803FB
:100CD0000D4600F00F00884207D288F8F853D8F884
:100CE000F80300F00F00A84276D12068810717D5DD
:100CF000410705D5D8F8001041F4E051C8F80010BC
:100D0000010705D5D8F8001041F46041C8F800107B
:100D1000D8F80010A26821F0F0011143C8F80010C3
:100D2000C0073FD1D8F8F80300F00F00A84207D958
:100D300088F8F853D8F8F80300F00F00A8424BD118
:100D40002068410707D5D8F80010E26821F4E05187
:100D50001143C8F80010000708D5D8F80000216931
:100D600020F4604040EAC100C8F8000000F07EF8BE
:100D7000D8F8001042F2B272C1F30311C0F60002BB
:100D8000515C40F2000220FA01F140F20800C2F288
:100D900000000068C2F200021160FFF731FF00207E
:100DA000BDE8F0816068811E022907D258F8081C4E
:100DB00089015CBF0120BDE8F08110E0012807D166
:100DC00058F8081C89035CBF0120BDE8F08106E0EB
:100DD00058F8081C890702D40120BDE8F081D8F832
:100DE000001021F003010843C8F80000FFF7D8FE07
:100DF000064641F2883700BFD8F80000616800F06D
:100E00000C00B0EB810F8DD0FFF7CAFE801BB842FB
:100E1000F2D90320BDE8F08140F20000C2F20000E8
:100E20000068704780B5FFF7F7FF43F60801C4F28A
:100E30000201096842F2C272C1F38221C0F60002C7
:100E4000515CC84080BD000080B5FFF7E5FF43F668
:100E50000801C4F20201096842F2C272C1F34231D0
:100E6000C0F60002515CC84080BD000010B543F6DA
:100E70000404C4F20204606800F00C0008280AD0E0
:100E8000042819BF42F20040C0F2F40047F64000C7
:100E9000C0F27D1010BD206821682368490247F622
:100EA0004001C0F27D1100F03F02C3F388105CBF27
:100EB00042F20041C0F2F401A1FB00010023FFF760
:100EC000E5F921680222C1F3014102EB4101B0FBC7
:100ED000F1F010BD2DE9F04182B0002800F0A280B1
:100EE0000446007843F60006C007C4F2020643D069
:100EF000B06800F00C00042805D1306880033BD5B1
:100F00006068C8BB8EE0B06800F00C00082802D111
:100F100070684002F1D46568B5F5A02F0AD0B5F528
:100F2000803F0BD0306820F480303060306820F48F
:100F3000802006E0306840F480203060306840F463
:100F400080303060FFF72CFE002D054611D000BF29
:100F50003068800310D4FFF723FE401B6428F7D9C4
:100F600022E100BFFFF71CFE401B64284FF0030086
:100F700055D830688003F5D4207880071AD5B0683A
:100F800010F00C0F09D0B06800F00C00082840F0F9
:100F90008A807068400200F186803068800702D540
:100FA000E06801283ED13068216920F0F80040EA6D
:100FB000C10030602078000738D4207840074CD436
:100FC000A5695DB3B06800F00C00082840F09E8071
:100FD000012D27D07068E16900F480028A4221D196
:100FE000216A00F03F028A421CD147F6C071626A52
:100FF0000140B1EB821F15D1A26A0023CFF6FF7327
:1010000003EBC23200F440316FF30F02914209D179
:10101000E16A00F07060B0EB016F03D1002002B014
:10102000BDE8F081012002B0BDE8F08160690028D0
:1010300040F20000C4F2472057D00121C0F8801EC2
:10104000FFF7AEFD054600BF706F8007B5D4FFF710
:10105000A7FD401B0228F7D9A6E0306C10F080589D
:101060000AD100200190306C40F080503064306C28
:1010700000F080500190019847F20007C4F2000789
:101080003868C00524D4386840F480703860FFF7B1
:1010900087FD05463868C0051AD4FFF781FD401B5F
:1010A0000228F7D980E0E068002851D00020C4F27F
:1010B000472001210160FFF773FD05463068800776
:1010C0003FF571AFFFF76CFD401B0228F6D96BE0CE
:1010D000A568052D50D0012D52D0306F20F00100B1
:1010E0003067306F20F004004DE00021C0F8801E12
:1010F000FFF756FD054600BF706F80077FF55DAFB7
:10110000FFF74EFD401B0228F6D94DE00027C4F240
:10111000472700203866FFF743FD022D05460BD117
:101120003068800158D5FFF73BFD401B02284FF087
:101130000300F5D973E700BF306880017FF56EAF1B
:10114000FFF72EFD401B02284FF00300F4D966E79D
:101150000020C4F2472000210160FFF721FD054671
:10116000306880077FF526AFFFF71AFD401B022885
:101170004FF00300F4D952E7306F40F004003067BD
:10118000306F40F001003067FFF70AFD002D054683
:1011900041F2883714D000BF306F800713D4FFF7B7
:1011A000FFFC401BB842F7D9032002B0BDE8F08134
:1011B000FFF7F6FC401BB8424FF003003FF62FAF9D
:1011C000306F8007F4D4B8F1000F7FF4F9AE306CC3
:1011D00020F080503064F3E604F11C052FCD084365
:1011E0000021CFF6FF7140EA821001EBC3316FF3AB
:1011F0000F0140EA05600843706001203866FFF780
:10120000CFFC0446306880013FF508AFFFF7C8FC0B
:10121000001B02284FF00300F4D900E780B500F06E
:10122000B9FC80BD704700007047000010B590F811
:101230003C20012A4FF0020252D0012380F83C30BA
:1012400080F83D200268D2F804E0D2F808C00C68AB
:101250002EF07003234341F2FF74C4F20004A24253
:1012600053600DDC40F2FF73C4F200039A4215DCB8
:10127000B2F1804F29D040F20043C4F2000322E0D3
:1012800040F2FF33C4F201039A4212DC41F600033C
:10129000C4F200039A4218D0002312E040F6000383
:1012A000C4F200039A4210D040F60043C4F2000397
:1012B00009E044F20003C4F201039A4205D040F26F
:1012C0000043C4F201039A4204D149682CF0800320
:1012D000194391600121002280F83D1080F83C20E4
:1012E000104610BD002804BF0120704710B5044609
:1012F00090F83D0028B9002084F83C00204600F01A
:101300001FF8022084F83D002068211D00F0B4FC85
:10131000012084F8460084F83E0084F83F0084F8F9
:10132000400084F8410084F8420084F8430084F8C7
:10133000440084F8450084F83D00002010BD000002
:1013400080B582B00068B0F1804F01D002B080BD9E
:101350000020019043F64000C4F202000168002220
:1013600041F0010101600068002100F001000190DE
:1013700001981C20FFF78CFC1C20FFF785FC02B0B5
:1013800080BD000010B5044690F83C0001284FF0E5
:10139000020008BF10BD012284F83C2084F83D0003
:1013A00020684FF6777382689A4382600A684F2AF2
:1013B0000FDC1F2A22DD202A23D0302A21D0402A08
:1013C0004DD14B68CA68194600F004FD20684021E1
:1013D0003BE06F2A17DDB2F5005F20D0B2F5805FE9
:1013E0002AD0702A3BD1D1E9012CCB68614600F0AC
:1013F000DDFC2068816841F077011AE00AB1102A0B
:101400002DD1114621E0502A18D0602A27D14B68EF
:10141000CA68194600F0F0FC2068602115E0D1E9A7
:10142000012CCB68614600F0C1FC2068816841F462
:101430008041816000200BE0002009E04B68CA6811
:10144000194600F0C7FC2068502100F0BBFC0020CA
:10145000012184F83D10002184F83C1010BD0120CA
:10146000F6E7000070470000B0B504460068C168A8
:10147000026902EA0105A9071DD4680731D42807CB
:1014800047D4E8065CD4E80773D128067BD4680605
:1014900006D520686FF040010161204600F084F815
:1014A000A80658BFB0BD20686FF02001016120463A
:1014B000FFF7BAFEB0BD6FF0020101610121217793
:1014C0008069800703D02046FFF7CCFF05E0204667
:1014D00000F064F8204600F063F8002020776807E9
:1014E000CDD520686FF00401016102212177806968
:1014F00010F4407F03D02046FFF7B4FF05E02046FC
:1015000000F04CF8204600F04BF800202077280728
:10151000B7D520686FF00801016104212177C06907
:10152000800703D02046FFF79DFF05E0204600F02E
:1015300035F8204600F034F800202077E806A2D5E0
:1015400020686FF01001016108212177C06910F453
:10155000407F03D02046FFF785FF05E0204600F0DE
:101560001DF8204600F01CF800202077E8073FF423
:101570008CAF20686FF001010161204600F012F885
:1015800028067FF584AF20686FF080010161204656
:10159000FFF748FE68067FF583AF7AE770470000E3
:1015A000704700007047000070470000704700005F
:1015B00070470000B0B582B0036804461868D96867
:1015C0005A6900F02F05202D01F0200505D125B125
:1015D000204600F05FFC02B0B0BD5FEA007C1EBF99
:1015E00002F0010E01F4907212EB0E024AD1226B4E
:1015F0000840C1063DD5012A3BD100200190186862
:1016000001905868019001985869400642D4A08D15
:10161000E18DE28D002A1CBF401A5FEA004101D132
:1016200002B0B0BD216851E8031F226821F4907117
:1016300042E80313002BF5D1216851E8051F226809
:1016400021F0010142E80513002BF5D1202184F897
:1016500042100021216300BF216851E8031F226866
:1016600021F0100142E80313002BF5D10221616340
:1016700054E0010658D44006D2D5204600F0FEFBC7
:1016800002B0B0BDC20718BF11F4807251D1420739
:1016900055D45BE0E06B016849688AB2002ABFD08C
:1016A000A38D9A42BCD2E185C069B0F5807F30D06D
:1016B000206850E8030F216820F4807041E803029D
:1016C000002AF5D1206850E8050F216820F00100BC
:1016D00041E80502002AF5D1206850E8050F21688D
:1016E00020F0400041E80502002AF5D1202084F8CE
:1016F00042000020206300BF206850E8030F2168EB
:1017000020F0100041E80302002AF5D1E06BFFF75A
:101710000DF902206063A08DE18D401A81B2204650
:10172000FFF744FF02B0B0BD204600F085FC02B0D8
:10173000B0BD626C42F001026264420706D5BEF1A0
:10174000000F03D0626C42F002026264820706D589
:10175000BEF1000F03D0626C42F004026264BCF17F
:10176000000F06D55EEA050203D0626C42F0080263
:101770006264626C002A3FF453AF0840800602D5D1
:10178000204600F087FB20684069616C00F0400053
:1017900001F00801401827D0204600F047FB2068E0
:1017A000406940061BD500BF206850E8050F21683E
:1017B00020F0400041E80502002AF5D1E06B70B14D
:1017C00041F61D61C0F600010165FFF7EFF8002842
:1017D0003FF426AFE06B016D884702B0B0BD2046F4
:1017E000FFF7E6FE02B0B0BD2046FFF7E1FE0020A5
:1017F000606402B0B0BD0000002804BF0120704743
:1018000010B5044690F8410028B9002084F8400043
:10181000204600F021F8242084F841002068C168A7
:1018200021F40051C160204600F098FB2068016956
:1018300021F490410161416921F02A014161C168AF
:1018400041F40051C16000202021606484F84110FF
:1018500084F84210606310BD80B586B044F2004148
:101860000068C4F20001002288420592CDE90322FB
:101870000292019201D006B080BD43F63000009282
:10188000C4F20200036943F400330361036903F403
:1018900000330093009B0092036843F00803036049
:1018A000006800F00800009000986020019002207D
:1018B000CDE90202032004900720059001F5E430F1
:1018C00001A9FFF799F8262000210022FFF7E0F98F
:1018D0002620FFF7D9F906B080BD00007047000050
:1018E0002DE9F041044690F8410020281CBF022059
:1018F000BDE8F0810E4600294FF0010042D01746A6
:10190000002A08BFBDE8F0814FF0000821201D46E5
:10191000C4F8448084F84100FFF742F9A784E784C3
:10192000A1680746B1F5805F0DD12069002814BF7A
:101930003046B046064606E016F8010B21684860BE
:10194000E08C0138E084E08C80B1204680213A466A
:101950002B4600F09BFBB8B9002EEDD138F8020BF6
:1019600021686FF35F2048600026E9E720464021A8
:101970003A462B4600F08AFB202184F841100028CB
:1019800018BF0320BDE8F081202084F84100032027
:10199000BDE8F08170470000FEE70000B0B584B0FC
:1019A00040F2740042F2000101220024C2F2000061
:1019B000C4F20101C0F600720125CDE90244CDE96F
:1019C0000044047680F82040C0E90A24C56180F80C
:1019D0003040C0E90014C0E90244C0E90445FEF704
:1019E00055FE70B90520CDE9000540F27400C2F241
:1019F000000069460294FEF7B1FD002804BF04B060
:101A0000B0BDFEF7A7FD00002DE9F04387B0002729
:101A100043F630000697CDE90477CDE902770197C8
:101A2000C4F20200016840F2000841F001010160C7
:101A30000168C4F2020801F00101019101990197C6
:101A4000016808F5806541F002010160016800222B
:101A500001F002010191019901970168012441F00F
:101A6000080101600068012100F008000190019860
:101A70002846FFF78FF840464FF4806100224FF46C
:101A80008069FFF787F802AE28463146CDE9024467
:101A9000CDE90477FEF7B0FF40463146CDE9029428
:101AA000CDE90477FEF7A8FF07B0BDE8F08300009A
:101AB00080B586B040F2BC000021C2F200004FF0B9
:101AC000804240F2E73345F2082CCDE90411CDE91C
:101AD0000211CDE90011C0E90023C0E9021C016137
:101AE0008161FFF7FFFBC0B94FF48050029040F2D4
:101AF000BC00C2F2000002A9FFF744FC68B9002054
:101B0000CDE9000040F2BC00C2F200006946FFF7D8
:101B10008DFB002804BF06B080BDFEF71BFD000052
:101B200080B540F2041044F20041C2F20000C4F259
:101B3000000100234FF00C0C4FF4E13280E80E005E
:101B4000C0E90333C0E905C3C361FFF755FE0028B0
:101B500008BF80BDFEF7FEFCFEE70000FEE70000C8
:101B600000F0070080F00703042B28BF04234FF088
:101B7000FF3C03380CFA03F338BF0020994381403F
:101B80000CFA00F022EA000008437047704700009A
:101B900070470000B0B501380024B4EB106F1CBFD3
:101BA0000120B0BD4EF21005CEF2000568604FF086
:101BB000FF300F2100F0D0FA0720AC6028602046EB
:101BC000B0BD000080B5FEF7F1FF80BDB0B592B0AA
:101BD00006AC20463021FEF7D1FB002543F640003D
:101BE0000595CDE90355CDE901550095C4F20200F4
:101BF0000168012241F080510160006800F08050CE
:101C00000090009847F200000095C4F200000168BF
:101C100062F38F310160006800F44040009000984A
:101C20000220069010200A90204609920C95FFF79A
:101C300051F968B90F20CDE9010501A80021CDE9CE
:101C400003550595FFF738F8002804BF12B0B0BD62
:101C5000FEF780FC4EF68850CEF20000016841F499
:101C6000700101607047000080B540F2BC00C2F214
:101C70000000FFF7F9FB80BD10B540F6FF3E03689A
:101C8000C4F2000E40F2004C7045C4F2010C0FDCAF
:101C9000B0F1804F19D040F20042C4F200029042ED
:101CA00013D040F60002C4F2000290420DD010E0C2
:101CB00040F60042C4F20002904206D0604504D0D3
:101CC0000022C4F20102904203D14A6823F070035B
:101CD000134341F6FF72C4F2000290420DDC7045DE
:101CE0001FDCB0F1804F41D040F20042C4F200024C
:101CF00090423BD040F6000221E043F6FF72C4F26E
:101D00000102904220DC42F20002C4F20002904242
:101D10002CD00022C4F20102904227D0604525D089
:101D200028E040F60042C4F2000290421ED041F684
:101D30000002C4F20002904218D041F60042C4F200
:101D40000002904212D015E044F20002C4F20102F7
:101D500090420BD044F60002C4F20102904205D03A
:101D600044F20042C4F20102904203D1CA6823F453
:101D70004073134323F080024B69D1F800E08C6874
:101D80001A430260C46240F48062C0F828E06245F1
:101D900004BF09690163012141610169C90708BFE5
:101DA00010BD016921F00101016110BDD0F808C02A
:101DB00011432CF47F4C41EA032141EA0C0181607C
:101DC00070470000826822F07002114341F0070161
:101DD00081607047D0F820C0036A23F001030362DA
:101DE000836923F0F00343EA02122CF00A0319433B
:101DF0008261016270470000D0F820C0036A23F0BE
:101E000010030362836923F4704343EA02322CF027
:101E1000A00343EA011182610162704780B5806BC3
:101E20000021C185C184FFF7C3FB80BD016851E873
:101E3000031F026821F4907142E80313002BF5D1CF
:101E4000016851E8051F026821F0010142E805130D
:101E5000002BF5D1016B01290AD100BF016851E8BF
:101E6000031F026821F0100142E80313002BF5D193
:101E7000202180F8421000210163704780B501687D
:101E8000CA6822F04002CA60202180F84110FFF7A2
:101E900081FD80BD80B582B090F8421022291ED10C
:101EA0008268B2F5805F02D1016900294AD0816A57
:101EB000B2F5805F07D00AB9026922B102685268A0
:101EC00002F07F0201E0026852680A700121826A12
:101ED00011448162C18D01390A04C18501D002B06B
:101EE00080BD0168CA6822F02002CA60CA6822F474
:101EF0008072CA604A6922F001024A61202180F89A
:101F0000421000214163026B012A23D1016300BF0B
:101F1000016851E8031F026821F0100142E8031331
:101F2000002BF5D101680A68D20606D5002201927D
:101F30000A680192496801910199818DFFF736FB8A
:101F400002B080BD0168826A49686FF35F21118029
:101F50000221BCE7FFF7C2FC02B080BD10B5044609
:101F60000068D4E902C22369016921F44051114398
:101F70000161626943EA0C01E3691143C2681943D4
:101F800049F20C639A431143C1604169A26921F48B
:101F9000407141F20043114340F48062C4F20103F6
:101FA0009A42416102D1FEF74FFF01E0FEF73AFF8E
:101FB000E16963681922B1F5004FA0FB02011CD151
:101FC0005A00DB0FFEF762F948F21F51C5F2EB1120
:101FD000A0FB01235A096FF0630302FB03003223C5
:101FE00003EBC000A0FB01014FF4F87000EA1110F0
:101FF00000EB0210C1F342111AE09A009B0FFEF7AA
:1020000045F948F21F51C5F2EB11A0FB01235A0913
:102010006FF0630302FB0300322303EB0010A0FB0D
:102020000101F02000EA511000EB0210C1F343114E
:1020300022680843906010BD90F84110212923D1F7
:102040008168B1F5805F01D1016931B1016A02682F
:102050004B1C03620978516007E0016A036831F89C
:10206000022B6FF35F225A600162C18C01390A04AE
:10207000C18418BF70470068C16821F08001C16049
:10208000C16841F04001C160704700002DE9F04196
:1020900082B00446006800680840884203D10020EE
:1020A00002B0BDE8F0811D460E4690465F1C04E07C
:1020B000206800683040B04228D0002FF8D0FEF7EA
:1020C0006FFD01464FF003000DB3A1EB0801A942DB
:1020D0001DD82068C1684907EAD5402EE8D0802E77
:1020E000E6D001680907E3D5002501950168019153
:1020F0004068019001982046FFF798FE0820606430
:1021000084F84050012002B0BDE8F081002002B008
:10211000BDE8F08180B540F20410C2F20000FFF784
:1021200049FA80BDFEE70000002848BF704700F074
:102130001F01012202FA01F14EF200124009CEF213
:10214000000242F8201070474EF60C50CEF200000C
:102150000068C0F3022070474EF6145300F00F02DF
:10216000CEF2000309011A4400F16043B0F1FF3FD1
:10217000C8BF03F564421170704700004EF60C5161
:10218000CEF200010A684FF6FF031A4060F30A22FC
:1021900042F0806040F0FD70086070470000000071
:1021A000FEF712FDFFF712FDFFF72EFCFFF7F6FB1F
:1021B000FFF77EFCFFF7B4FC9FED270B40F27404A1
:1021C00059EC108B9FED260B40F24C1B40F2700631
:1021D00040F2041AC2F2000455EC107BC2F2000B6C
:1021E000C2F20006C2F2000A2046FEF70DFB2046AE
:1021F0004FF0FF31FEF7A8FA2046FEF743FA40F20F
:102200005011C2F2000108602046FEF73BFA00F0D0
:10221000B2F942464B4600F027F83A462B4600F00A
:10222000BDF900F07BF9CBF80000DBF80000C0F34B
:1022300003207070DBF8000030704FF47A70FEF706
:10224000C7FB5046314602224FF47A73FFF748FB32
:10225000CAE700BF00BF00BF0000000000FEAF40A3
:102260000000000000408F402DE9C04130B4DFF88D
:10227000A4C23CEA111418BF3CEA131400F0ED802C
:102280001CEA111481EA030544EAD57418BF1CEA5C
:10229000131500F0C880A4EB050404F17F7404F565
:1022A00000344FF0004545EAC12145EAC32341EA25
:1022B000505143EA52534FEAC0204FEAC22299429A
:1022C00008BF904200F09D804FEA13650FF244165C
:1022D000765D4FEA134506FB05F7C7F1807706FBED
:1022E00007F74FEAD737A7FB03687642A7FB06CE6E
:1022F000C8F5803838BFA8F1010807FB08E6A6FB3F
:10230000028C4FF0000EE6FB03CEDCF1000CCEF1A8
:10231000004E38BFAEF1010EA6FB0C584FF000077F
:10232000E6FB0E87A1FB08C6A0FB07CE16EB0E0648
:102330004FF0000545F10005E1FB076515F1E04EA2
:102340007EBFA4F580345FEA46066D4116F1800732
:1023500045F100054FEA172747EA05674FEA1525BB
:102360004FEA0666A6F1DE46B6F1805F20D9384610
:1023700005EBC47124F0010C01EB0C11BCF1FE6FF4
:1023800002D8F0BCBDE8008124425CBF01F5801E8C
:102390009EEAC47F02D4F0BCBDE80081244200F173
:1023A0003980A1F1C041F0BCBDE8004100F0EEB9B8
:1023B0004FEAD02040EA41504FEAD1214FEAD222E1
:1023C00042EA43524FEAD323A7FB028607FB036688
:1023D00005FB02661EEA0E0F58BFA6EB0056B6EBD1
:1023E00000564FEA520E4EEAC37E18EB0E0E56EB25
:1023F000530EBCD518EB02085E417F1C55F1000559
:10240000B5E74FF480154FF000074FF000064FF08E
:102410000008ACE701F1C04101F000414FF00000BD
:10242000F0BCBDE800810CEA131511EA0C1F00D0C6
:102430000CE013EA0C1F00F026804FF0000081EA48
:10244000030101F00041F0BCBDE80081F0BCBDE833
:10245000004181EA030100F099B9F0BCBDE80041F8
:1024600070B500F045F900BF097EFC3E00F007B8EA
:102470004FF0000081EA030101F00041704781EA5A
:10248000030100F083B9F0BCBDE8004122494FF0E0
:1024900000007047FFFDFBF9F7F5F4F2F0EEEDEB0D
:1024A000E9E8E6E4E3E1E0DEDDDBDAD8D7D5D4D352
:1024B000D1D0CFCDCCCBCAC8C7C6C5C4C2C1C0BF9E
:1024C000BEBDBCBBBAB9B8B7B6B5B4B3B2B1B0AFA4
:1024D000AEADACABAAA9A8A8A7A6A5A4A3A3A2A188
:1024E000A09F9F9E9D9C9C9B9A9999989797969543
:1024F00095949393929191908F8F8E8E8D8C8C8BDF
:102500008B8A898988888787868585848483838266
:10251000828181800000FF070000F87F4FEA11539D
:10252000A3F58063D3F11E03A8BFD3F1200C08DB11
:102530004FF0004242EAC12252EA505232FA03F00E
:10254000704709420BD4102BC4BF0020704703F51D
:10255000787CBCF1FF3F05D04FF0FF3070474FF063
:102560000000704770B500F0C3F800BF49922480A6
:1025700000207047F0E7B0FA80F310FA03F10AD0B8
:10258000C3F11D0303F580634FEA03524FEA415044
:1025900002EBD12170474FF00000704770B5DFF8B3
:1025A00048C11CEA111E1EBF1CEA13159EEA0C0F3F
:1025B00095EA0C0F00F06F8081EA03044EEAD47EA6
:1025C000AE4421EA4C1123EA4C1341F4801143F448
:1025D0008013AEF17F7EA1FB024CA0FB0365361990
:1025E00055EB0C05A1FB034C4CF10003A0FB021CB6
:1025F00016EB0C06654153F10003094218BF46F083
:10260000010613F4007F0BD14FEA03314FEA053086
:1026100041EA155140EA165034036FF003020AE014
:102620004FEAC3214FEAC52041EA555140EA5650CE
:10263000F4026FF0020202EB2E4201EB025585EA32
:10264000CE710AD05FEA440C18BF24F0004450F168
:10265000000041F1000120EAD47040F2FE7C6245A6
:1026600000D270BDA84214BF4FF080444FF04044E8
:10267000002E08BF0024BEF1806FA8BFA1F1C041A9
:10268000BDE8704080F2828001F1C04101F000415C
:102690004FF0000070470CEA13159EEA0C0F18BFAC
:1026A00095EA0C0F06D081EA030E4FF000000EF001
:1026B000004170BD00F01CF88900013E00F007B831
:1026C00000F009B84FEA430C5FEA5C5C08D081EA8D
:1026D000030100F05BB84FEA410C5FEA5C5CF6D1A5
:1026E00002494FF0000070470000FF070000F87F2C
:1026F0000EF1020E2EF0030E5EF8046B364205D486
:10270000012A43EB030515F5001F12D8012841EB00
:10271000010C1CF5001F0CD80ED14FEAD17C0CEB3C
:102720004C0C0CF1020C15F5001F08BF4CEBD37CD0
:1027300004E04FF0080C01E04FEAD37C0CEB4C05B1
:1027400026FA05F606F00706B6F1040C06D20EEBE3
:10275000860CBDE870404CF0010C6047DFE80CF0DF
:10276000090B02024FF00041A1F500214FF00000DB
:1027700070BD19461046012851EB010418BFD4F56D
:10278000001484BF002001F0004170BD0808A0F5CE
:1027900000114FEA31017047F1EE100A4FF6FF7158
:1027A000C0F2C03120EA010040F04070E1EE100AB2
:1027B000704700000000000000000102030406074B
:1027C000080900000000010203040000F0270008CF
:1027D0000000002010000000E801000800280008A8
:1027E000100000204807000004020008000000005C
:1027F0000024F400010000001000000000000000B0
:04000005080001AD41
:00000001FF
